:100000000C9465000C948D000C948D000C948D0064
:100010000C948D000C948D000C948D000C948D002C
:100020000C948D000C948D000C948D000C948D001C
:100030000C948D000C948D000C948D000C948D000C
:100040000C94FD1B0C948D000C94B6130C9490131F
:100050000C948D000C948D000C948D000C948D00EC
:100060000C948D000C948D00BD0ED50E4D0F3F10DD
:100070005F107F108710341000000000240027005C
:100080002A0000000000250028002B0004040404BE
:100090000404040402020202020203030303030332
:1000A000010204081020408001020408102001020F
:1000B00004081020000000080002010000030407EB
:1000C0000000000000000000CA2511241FBECFEF71
:1000D000D8E0DEBFCDBF12E0A0E0B1E0EAE0F1E59C
:1000E00002C005900D92AC32B107D9F726E0ACE220
:1000F000B2E001C01D92AF36B207E1F710E0C5E6ED
:10010000D0E004C02197FE010E942027C436D10709
:10011000C9F70E943B210C9483280C940000CF93D4
:10012000DF931F92CDB7DEB7DC01ED91FC91028821
:10013000F389E02D41E050E0BE016F5F7F4F0995EC
:1001400097FD03C0898190E002C08FEF9FEF0F9071
:10015000DF91CF910895FC014485558541155105E6
:1001600051F0FB01248535852115310521F081E011
:100170004217530709F080E00895DC011C96ED91C9
:10018000FC911D97309739F08181811106C08081E3
:1001900082958170089580E0089581E00895DC01E2
:1001A000ED91FC91028CF38DE02D099591E089276A
:1001B0000895089580E090E0089580E3FB01808336
:1001C0003296842F82958F7090E1899F4019112477
:1001D0004A3014F4405D01C0495C4293482F8111BC
:1001E000F0CF0895DC01ED91FC91048CF58DE02DAC
:1001F0000994CF93DF93EC01E881F981008CF18DB4
:10020000E02D0995882339F08C859D850196DF9135
:10021000CF910C94A019DF91CF9108950F931F9364
:10022000CF93DF931F92CDB7DEB78C01DC01ED9148
:10023000FC91008CF18DE02D0995882391F0D80177
:100240001C96ED91FC911D978181882351F041E02E
:1002500050E0BE016F5F7F4F0E94C320898190E014
:1002600002C08FEF9FEF0F90DF91CF911F910F9101
:100270000895EF92FF920F931F93CF93DF93EC01BA
:10028000E881F981008CF18DE02D09958823B9F082
:100290008C859D857C012FEFE21AF20A8C010A5FA2
:1002A0001F4FC0E0D0E0F70181917F010E94D71E6F
:1002B000C80FD91FE016F106B1F7CE0102C080E0E9
:1002C00090E0DF91CF911F910F91FF90EF900895F3
:1002D0006F927F928F929F92AF92BF92CF92DF9256
:1002E000EF92FF920F931F93CF93DF937C015B01FB
:1002F000EA01DC01ED91FC91008CF18DE02D099576
:10030000882309F46FC0D7011C96ED91FC911D97CD
:100310008181882309F469C06E010EE1BE016C1968
:100320007D096A0D7B1DD7011C96ED91FC911D97EF
:10033000A60181810E94C3204C01F7016484758469
:10034000D30111961C91812F0E94D71E8816990601
:1003500081F5C818D908C30101960E94B419F701A4
:10036000A485B5858C91282F30E02F70029FF00175
:10037000039FF00D1124EF57FC4F918D94FF05C0A2
:10038000982F907611F480688C93D7011C96ED918C
:10039000FC911D97818181111FC0808186FF05C05E
:1003A00010821D961C921E921C97CE018C199D09DD
:1003B0001EC0B5E01B9FF0011124EE5BFD4F808154
:1003C0009181880D991D9183808382819381881901
:1003D00099099383828304C0C114D10409F09ECF8C
:1003E000CE0105C08FEF9FEF02C080E090E0DF916B
:1003F000CF911F910F91FF90EF90DF90CF90BF9022
:10040000AF909F908F907F906F900895CF93DF93E0
:10041000EC010E949D16EC85FD85309739F08081B6
:1004200086FF06C081E09181911103C080E001C088
:1004300081E0DF91CF910895CF93DF93EC018C851C
:100440009D85009781F0FC012081222361F00196B7
:100450000E94A019EC85FD85908196FF02C0108254
:1004600002C0906290831D861C86DF91CF910C9410
:100470009D16EF92FF920F931F93CF93DF938C0102
:100480007B01EA01DC01ED91FC910488F589E02D06
:100490000995F701828190E0982F88272381822B8C
:1004A000982789279827248130E0322F22274581F9
:1004B000242B3227232732277C2F6D2F40917F0357
:1004C000509180034F5F5F4F4115FDE75F0710F0CC
:1004D00040E050E1D42FC52FE1E8F3E0A0E0A430E4
:1004E00059F0B18DBB2329F0E480F580EC16FD06B0
:1004F00049F3AF5F7E96F3CF5093800340937F0321
:100500001092010440E0C0E0D0E0AEE14430C1F020
:10051000A49FF0011124EF57FC4F518D511104C0DD
:1005200040930104EF010EC0573031F4209729F0B9
:10053000B28D5A8D5B1708F0FE014F5FEF01E6CFD9
:1005400040930104209719F480E090E040C042E01D
:10055000498F409132024C87409133024D87409140
:1005600034024E87409135024F8740E052E05B8B6A
:100570004A8B5D8B4C8B41E050E0598B488B1B8E36
:100580004A8F43E0488F1E8A40E14F8B40917F03A2
:10059000509180035427452754275D834C837F83E4
:1005A0006E83998388833B832A83898D8F7061F260
:1005B0000E949D16898D8F708330B9F78C8D9D8D2B
:1005C000D8011D969C938E931C9781E090E0DF915B
:1005D000CF911F910F91FF90EF9008958F929F926E
:1005E000AF92BF92CF92DF92EF92FF920F931F9341
:1005F000CF938C015B017A016A014C0187E0880E80
:10060000911C0E949D160115110509F452C0F801B4
:100610008081807609F04DC0F401C1E081918111A3
:1006200002C0C15004C0CF5FC530C1F7C4E0F801BB
:10063000EC0FF11D868181110DC080E092E00E94D7
:10064000B11DF801EC0FF11D86838823D1F2F8016A
:1006500014861386A7014C195D094A0D5B1DF8012C
:10066000638574859601EC0FF11D86810E94551EED
:10067000C81AD90AF80123853485820F931F9487FD
:1006800083871C141D042CF4C43009F4BACFCF5F47
:10069000D4CF0E94F11BDC01CB010A96A11DB11D34
:1006A000F80185879687A787B08BC7018C199D09AC
:1006B00002C080E090E0CF911F910F91FF90EF90EA
:1006C000DF90CF90BF90AF909F908F900895FC01E6
:1006D000848595850C94EE02CF93DF931F92CDB75E
:1006E000DEB7698341E050E0BE016F5F7F4FFC01E0
:1006F000848595850E94EE020F90DF91CF91089539
:100700002F923F924F925F926F927F928F929F9221
:10071000AF92BF92CF92DF92EF92FF920F931F930F
:10072000CF93DF93CDB7DEB765970FB6F894DEBFF2
:100730000FBECDBF7C016B013A01FB01DB018D9146
:10074000882331F08E32D9F380538A30C0F334C01D
:1007500020E030E080E090E05AE041914423F9F05D
:10076000843091054CF54E3269F42F3F310509F084
:100770001CF5D301A80FB91F12962C93019620E007
:1007800030E0EBCF529FB001539F700D1124242F06
:10079000440F330B20533109260F371FDECF2F3F75
:1007A000310509F04CF48430910534F4F301E80F7D
:1007B000F91F228381E021C0F701428153816481C6
:1007C000758180912F0690913006A0913106B091ED
:1007D0003206481759076A077B0709F4EBC10E94E4
:1007E000F11B8701085F1F4F6F7077277C5FC8017F
:1007F0000E948B14813019F080E090E0F2C18FE804
:1008000091E09A838983F70182819381A481B581E4
:100810008B839C83AD83BE8345E350E0BE016F5F55
:100820007F4FC8010E942019892B19F420E030E085
:10083000B8C10E94F11BF7017783668342E050E064
:10084000B7016A5F7F4FC8010E94421481E090E0C7
:100850009A83898342E050E0BE016F5F7F4FC801F9
:100860000E94421480E091E09A83898342E050E044
:10087000BE016F5F7F4FC8010E9442141A82198225
:1008800042E050E0BE016F5F7F4FC8010E944214FA
:1008900042E050E0BE016F5F7F4FC8010E944214EA
:1008A00042E050E0BE016F5F7F4FC8010E944214DA
:1008B0005601F5018081882311F1F6015F018191D4
:1008C000811115C045018C189D081814190494F461
:1008D0008D8641E050E0BE01635F7F4FC8010E94FA
:1008E0004214A401B601C8010E94421403C08E3212
:1008F00029F7E8CF6501FFEFCF1ADF0ADACF1D86AF
:1009000041E050E0BE01635F7F4FC8010E94421486
:10091000C12CDD24D394DA82C98242E050E0BE01CA
:100920006F5F7F4FC8010E944214DA82C98242E0A1
:1009300050E0BE016F5F7F4FC8010E944214C801A2
:100940000E945A14892B09F471CF83E0A82EB12C90
:10095000F2E06F0E711C0E94F11B1B012C01C801FB
:100960000E94101918161906ACF00E94F11BDC0148
:10097000CB0182199309A409B50989389341A105CE
:10098000B10508F0FDC062E370E080E090E00E94F5
:10099000B71BE5CFF7012280338044805580B80132
:1009A000CE0101960E946C098B819C81AD81BE8134
:1009B000281639064A065B0609F0E5C0C8010E9400
:1009C0005C09C59709F0DFC0C8010E9406190C97A1
:1009D0000CF4DCC04CE050E0BE016F5F7F4FC801FB
:1009E0000E94F2008B819C819827892798279A8BF7
:1009F000898BF7014681578129813A814217530734
:100A000011F497FD06C0C8010E94F8092CEF3FEFD2
:100A1000BFC08F709270892B31F0C8010E94F80915
:100A20002BEF3FEFB5C0CF80D884DC24CD24DC246D
:100A3000C114D10431F4C8010E94F8092AEF3FEF34
:100A4000A7C0812C912C8D819E819827892798277A
:100A50008816990640F541E050E0BE01635F7F4F84
:100A6000C8010E94F2008D85811113C08D8581110E
:100A7000F2CFC8010E94E813C8010E94E813C80120
:100A80000E94E813C8010E94E813FFEF8F1A9F0A23
:100A9000DACF8D859FEF980F9D87882339F3C801A2
:100AA0000E94E813F6CF812C912C41E050E0BE016A
:100AB0006D5E7F4FC8010E94F2008B89982F907C59
:100AC00061F4882371F08B899FEF980F9B8B8823AB
:100AD00041F0C8010E94E813F6CFC8010E94E81354
:100AE0001B8A8B898111E1CF42E050E0BE01615F3A
:100AF0007F4FC8010E94F20042E050E0BE01635FF8
:100B00007F4FC8010E94F200C8010E94E813C8018B
:100B10000E94E813C8010E94E813C8010E94E8136C
:100B200042E050E0BE016F5E7F4FC8010E94F200BC
:100B30008F8598898115914029F48D859E85811531
:100B40009140D9F1412C512C89899A89982789277C
:100B500098274816590638F4C8010E94E813FFEF99
:100B60004F1A5F0AF1CF2FEF821A920A8C149D045C
:100B700009F09BCFC8010E94F80926EF3FEF08C09B
:100B80002FEF3FEF05C02EEF3FEF02C02DEF3FEFFD
:100B900081E0A81AB10829F02F3FEFEF3E0709F4D2
:100BA000DACEC8012C8B3D8B0E94B1142C893D8973
:100BB000C90117C08EEF9FEF14C089899A898115EA
:100BC000944031F0C8010E94F80927EF3FEFE0CFD1
:100BD00044E050E0B301C8010E94F20021E030E09F
:100BE000D7CF65960FB6F894DEBF0FBECDBFDF91AD
:100BF000CF911F910F91FF90EF90DF90CF90BF901A
:100C0000AF909F908F907F906F905F904F903F90AC
:100C10002F900895CF92DF92EF92FF920F931F9340
:100C2000CF93DF93CDB7DEB7AA970FB6F894DEBFA8
:100C30000FBECDBF7C016A010FE811E01A83098362
:100C40001B821C821D821E82CE01099669A77AA78B
:100C50000E94D3141E8F0D8F1F8E18A219A21AA2E4
:100C60008091290690912A06A0912B06B0912C061E
:100C70008B839C83AD83BE8318861F82AE01435E47
:100C80005F4F69A57AA5CE0101960E94800381304D
:100C90009105B1F4D701ED91FC910684F785E02D23
:100CA0001CA30BA38F8D98A1A9A1BAA18DA39EA36C
:100CB000AFA3B8A7A601BE016D5D7F4FC70109951F
:100CC000AA960FB6F894DEBF0FBECDBFDF91CF91CD
:100CD0001F910F91FF90EF90DF90CF9008952F928A
:100CE0003F924F925F926F927F928F929F92AF92BC
:100CF000BF92DF92EF92FF920F931F93CF93DF93F8
:100D0000CDB7DEB7C254D1090FB6F894DEBF0FBE1F
:100D1000CDBF7C013B010E94F11B4B015C018701AF
:100D2000015C1F4FC8010E94101918161906A4F083
:100D30000E94F11BDC01CB0188199909AA09BB09A2
:100D4000813A9F40A105B105F0F462E370E080E0D4
:100D500090E00E94B71BE6CF42E250E0BE016F5F19
:100D60007F4FC8010E94F2008981823031F4C801AE
:100D70000E945C098334910541F0D12CC8010E9486
:100D8000F8098D2D72C18FEF70C16D817E818F81C9
:100D900098850E9426274B015C01F30160837183D3
:100DA0008283938346E050E0B701685F7F4FCE01B6
:100DB0004D960E945F28892B99F4F70180819181DB
:100DC000A281B38188169906AA06BB0648F08481E1
:100DD0009581A681B78188159905AA05BB0528F4D8
:100DE000C8010E94F80980E040C189899A89AB89CD
:100DF000BC89F70186879787A08BB18B8EECA82ED4
:100E0000B12CC8010E94E813F1E0AF1AB108C9F78C
:100E1000D12CC70182969CAF8BAFF701B696FEAF7F
:100E2000EDAF089621969FAF8EAF219747019AE1CB
:100E3000890E911C74972396FFAFEEAF239717018D
:100E4000F6E12F0E311C37012EE1620E711CC80134
:100E50000E940619181619060CF090CFC8010E94BE
:100E6000E8138333910509F4DAC0F4F48130910575
:100E7000C1F11CF4892B59F3ECC083309105D9F1F1
:100E8000069709F0E6C0C8010E94E8135C0144E03F
:100E900050E0B301C8010E94F200412C512CBB2448
:100EA000E4E0AE1AB10842C08A33910509F489C062
:100EB0003CF48533910569F0C69709F442C0C9C076
:100EC0008B33910509F493C08F3F910509F4BFCF8F
:100ED000C0C0C8010E94E813C8010E94E813D82EC0
:100EE000B6CFC8010E94E81344E050E023966EADEF
:100EF0007FAD23975AC0C8010E94E8135C0144E00B
:100F000050E0B101C8010E94F200412C512CBB24D9
:100F100084E0A81AB1084A145B040CF098CFC80109
:100F20000E94E8139FEF491A590AF5CF4A145B044F
:100F30000CF08DCFC8010E94E813FFEF4F1A5F0A33
:100F4000F5CFC8010E94E813B82E1FAA18AE19AE3B
:100F50001AAEB401CE018F960E94801349A95AA9F6
:100F60006BA97CA98FA998ADA9ADBAAD481759074F
:100F70006A077B07B9F0B801CE0189960E946C0917
:100F8000B401CE0183960E9480134DA15EA16FA192
:100F900078A58BA59CA5ADA5BEA5481759076A07DE
:100FA0007B0739F444E050E0B401C8010E94F2002C
:100FB0004ECFBB2009F44BCFC8010E94E813BA946E
:100FC000F8CFC8010E94E81344E050E06DAD7EAD5B
:100FD000C8010E94F200F70166A177A180A591A542
:100FE0000E94262766A377A380A791A730CFC801C8
:100FF0000E94E81344E050E021966EAD7FAD21974A
:10100000C8010E94F200F70162A573A584A595A509
:101010000E94262762A773A784A795A718CFC801A7
:101020000E94E81344E050E06BAD7CADC8010E9423
:10103000F200F70162A173A184A195A10E94262765
:1010400062A373A384A395A366A777A780AB91AB94
:10105000FECEC8010E94E813B82EBB2009F4F7CEDB
:10106000C8010E94E813BA94F8CFCE5BDF4F0FB6E9
:10107000F894DEBF0FBECDBFDF91CF911F910F91CE
:10108000FF90EF90DF90BF90AF909F908F907F90F8
:101090006F905F904F903F902F9008957F928F9226
:1010A0009F92AF92BF92CF92DF92EF92FF920F93F7
:1010B0001F93CF93DF93CDB7DEB7A6970FB6F89403
:1010C000DEBF0FBECDBF8C01762E942E852E20E282
:1010D000B22ECE0101967C01FC012B2D11922A9596
:1010E000E9F78FE891E09AA389A38FEF8BA38CA3F4
:1010F0008DA38EA368018FE3C80ED11C43E450E09A
:10110000BE016F5D7F4FC6010E942019019609F450
:10111000BFC081E089838A8386E0A82EAB821C82CF
:10112000F80164817581868197810E9426276D83ED
:101130007E838F83988789869A8680E890E09C8753
:101140008B874CE150E0B701C6010E944214F701C1
:101150002B2D11922A95E9F7480188E0880E911C01
:10116000F401D70101900D92AA94E1F740E150E01B
:10117000B701C6010E944214F7011192BA94E9F72F
:1011800096E0A92EB12C40E250E0B701C6010E94C2
:101190004214F1E0AF1AB108B1F783E6898392E80F
:1011A0009A8393E59B838C8385E38D8381E08E8393
:1011B0007F829DE3988797E099878A8786E0F4018C
:1011C000DE011B9601900D928A95E1F78CE0898BE8
:1011D0008A8B67E971E0CE0143960E947C28F80172
:1011E0004385BE01675E7F4FC8010E94DD00F801A4
:1011F0004485BE01655E7F4FC8010E94DD00F80195
:101200004585BE01635E7F4FC8010E94DD004EE14F
:1012100050E0B701C6010E944214F3E07F121EC0E5
:1012200082E3898384E08A83F80196859B8397858E
:101230009C8390899D8391899E8396E39F83888771
:10124000828D8987838D8A87848D8B87858D8C8716
:101250004CE050E0B701C6010E94421487E3898345
:1012600086E08A8391E09B8393E09C838D838FE06B
:101270008E838AE38F838BE388878FEF898749E0AA
:1012800050E0B701C6010E944214C6010E945A14E0
:10129000A6960FB6F894DEBF0FBECDBFDF91CF91FB
:1012A0001F910F91FF90EF90DF90CF90BF90AF9084
:1012B0009F908F907F900895DC011C96ED91FC919A
:1012C0001D97309731F08681978198278927982735
:1012D000089580E090E00895CF93DF93FC01EB0147
:1012E000AC85BD85109791F012969C91129713963C
:1012F0008C9113973C9111962C914FE851E05183BA
:101300004083328323839483858308C08FE891E0F0
:10131000918380831282138214821582CF01DF9120
:10132000CF910895EF92FF920F931F93CF93DF9386
:10133000E0913002F0913102C185D285209709F405
:1013400050C0E0903602E1FE31C0FA80F1102EC0AC
:101350008091E6049091E704978386838091DE0470
:101360009091DF04918380838091E0049091E10467
:10137000938382838091EA049091EB0498278927D4
:101380009827089719F00E94B11DF82EFA82FF20C5
:1013900069F08F2D0E94D71E8C012AE230E0409127
:1013A0002D0260E070E08F2D0E94091FE3FE19C03E
:1013B0008D818823B1F08C8180932F028AE2809303
:1013C0002C02688179816A5271098091C2049091DE
:1013D000C304DF91CF911F910F91FF90EF900C9478
:1013E0009D20DF91CF911F910F91FF90EF90089575
:1013F000CF93DF93EC010E949D1689890E94471CC0
:10140000198ADF91CF9108950F931F93CF93DF93A4
:101410001F92CDB7DEB78C010E949D16F80181891D
:10142000882361F041E050E0BE016F5F7F4F0E9472
:10143000C320019719F4898190E002C08FEF9FEFDC
:101440000F90DF91CF911F910F910895EF92FF922E
:101450001F93CF93DF93C0913702D091380284302D
:1014600009F4ECC12AEF34E03093C3042093C204A2
:101470003093BD042093BC04833059F4898D8F7060
:10148000833009F0DFC688899989892B09F0DAC68B
:101490007EC0823009F07FC0809135028F5F8093DB
:1014A0003502811113C0809134028F5F8093340222
:1014B00081110CC0809133028F5F809333028111C0
:1014C00005C0809132028F5F809332021092C10476
:1014D0001092C0041092BF041092BE04898D982F00
:1014E0009D7F953041F48A8D8F5F8A8F883709F010
:1014F000A9C6198EA7C6882309F4A4C628893989E4
:10150000232B09F440C09A8D2FEF290F2A8F9111B8
:1015100099C69B8D983031F02FEF280F223048F478
:10152000953039F4198E80E8809336020E94CE19E6
:1015300042C5953038F423E0092E01C0220F0A94E9
:10154000EAF701C020E32A8F9F5F9B8F8F70833063
:10155000A1F048F4813009F45AC3823009F072C610
:101560001092F30457C3863009F4C1C4883009F4DB
:10157000BEC4843009F066C6BAC484E080933602E3
:101580000E94CE194AC58F70833009F05BC688E08F
:101590008093360205C5853019F5E0913002F0914F
:1015A000310284819581892B09F44CC6109238024E
:1015B000109237028EEE94E09093C3048093C2049D
:1015C0009093BD048093BC041092BF041092BE049B
:1015D0001092C1041092C00488E0809336022CC19E
:1015E0008091D204853409F02DC6C091D404D0E096
:1015F000DC2FCC278091D504C80FD11D8091C00469
:101600009091C1048C179D0708F41CC6D093C104A7
:10161000C093C0048091D8048F7309F013C6109151
:10162000D90411110FC6E0906504F0906604E1142E
:10163000F10439F48091670490916804892B09F4CE
:1016400042C08091DB042091E2043091E3048131B7
:1016500051F52F3F4FEF340739F48091E404909116
:10166000E504019609F471C08091690490916A04BF
:10167000809590958E299F2928173907A1F480918C
:101680006B0490916C048095909540916704509103
:101690006804842B952B4091E4045091E50448178D
:1016A000590709F452C02E153F0509F0CBC520910A
:1016B000E4043091E5048091670490916804281750
:1016C000390709F0BFC50E94E015019609F0BAC5B7
:1016D0008091DB04863009F415C18131B1F181308C
:1016E00009F0B0C58091E604883009F0ABC51092CE
:1016F000E6048091E8049091E904873FCFEF9C07CE
:1017000010F0099601C008969093E9048093E804CC
:101710008091DE049091DF049093E3048093E204CF
:101720008091E0049091E1049093E5048093E404B7
:10173000F092DF04E092DE048091670490916804E7
:101740009093E1048093E00481C56C97D093C10429
:10175000C093C0048EEE94E09093C3048093C204BF
:101760008091EC049091ED04892B99F42091E80488
:101770003091E9044091E6045091E7046091DE0461
:101780007091DF04A091E004B091E104E3E5F3E09F
:101790000CC081E10E945415019609F053C5E6CFB3
:1017A00084819581009731F43B9683E0EF37F80709
:1017B000B8F324C028173907B9F7868197810097B5
:1017C00019F04817590781F780819181009729F412
:1017D000C281D381CD2B49F416C08F3FCFEF9C0738
:1017E00021F4C281D381219671F068177907E1F65F
:1017F00082819381A817B907B9F605C0F093310229
:10180000E09330021FC5F0933102E0933002109252
:1018100038021092370282E0809336028EEE94E016
:101820009093C3048093C2049093BD048093BC043E
:101830001092BF041092BE040E9492098091BE04CF
:101840009091BF04009709F4FDC49C01245E3F4FB2
:101850003093C1042093C0043093D4042093D50462
:10186000E0913002F091310220852093DA0421E1E9
:101870002093DB0408969827892798279093EB04F8
:101880008093EA041092ED041092EC048481958117
:101890009093E7048093E604868197819093E9040E
:1018A0008093E80480916504909166049093DF042E
:1018B0008093DE0480916704909168049093E10422
:1018C0008093E004808191819093E3048093E2040B
:1018D000828193819093E5048093E4048AEF94E0FD
:1018E0009093C3048093C20481E10E9454158095B3
:1018F0009095009711F48FEF9FEF9093ED048093F4
:10190000EC047DC486E00E945415019609F09AC447
:101910002091E8043091E9048091E6049091E70475
:101920006091DE047091DF04E091E004F091E10445
:10193000C1E8D3E0498D4423A9F0AC81BD812A17C9
:101940003B0781F4AE81BF818A179B0759F4A881B8
:10195000B9816A177B0731F4AA81BB81EA17FB07BB
:1019600009F46FC16E9643E0C93FD40719F780911F
:10197000F3048F738230E1F43093410220934002EC
:1019800080E0843099F0E82FF0E0EE0FFF1FE75081
:10199000FC4F408151818F5F2417350791F71092DA
:1019A000010480E0C0E0D0E09EE17CC080930104AF
:1019B0008091F30482FD46C484E18093F30488E2BD
:1019C00090E09093C1048093C00480E58093F2047A
:1019D0003091ED048091F1048093ED042091EC04AA
:1019E0008091F0048093EC042093F0049091EB0438
:1019F0008091EF048093EB049093EF048091EA04CC
:101A0000809301044091EE044093EA048093EE0435
:101A10003F5F3093F10431110DC02F5F2093F0042C
:101A2000211108C09F5F9093EF04911103C08F5F55
:101A30008093EE048091E6049091E7049093410234
:101A4000809340022091E8043091E9043093E70448
:101A50002093E6049093E9048093E8048091DE04E7
:101A60009091DF049093E3048093E2048091E0047A
:101A70009091E1049093E5048093E40480916504DF
:101A8000909166049093DF048093DE048091670454
:101A9000909168049093E1048093E00494C34730EC
:101AA00099F08F5F8430F1F0282F30E0929FF001A1
:101AB000939FF00D1124EF57FC4F418D4111EFCF53
:101AC00080930104EF0110C0209721F0528D4A8DC0
:101AD000451738F7929FE001939FD00D1124CF57FF
:101AE000DC4FDFCF80930104209709F4ABC3D09380
:101AF0003802C093370283E08A8F888F1E8A84E081
:101B00008F8B1B8E8091E8049091E9049D838C83D8
:101B10008091E6049091E7049F838E838091DE0498
:101B20009091DF04998388838091E0049091E1048F
:101B30009B838A8381E0898F809132028C87809198
:101B400033028D87809134028E87809135028F8792
:101B500081E090E0998B888B8091ED048B87809158
:101B6000EC048A878091EB0489878091EA04888756
:101B700081E090E00E9423218091F204982F907FD1
:101B8000913508F444C082958F7090E00597880FD6
:101B9000991F880F991F20913F02E12FF0E0E8176D
:101BA000F9078CF5EC53FB4F26A9211105C01093C2
:101BB000010410923F022BC0213011F41F5FEDCFC2
:101BC0002230E1F437A93430C9F410930104209392
:101BD0003F0280AD90E0982F882721AD822B909313
:101BE000410280934002813062E0960710F080E06D
:101BF00092E09B8B8A8B9D8B8C8B09C037A93323FA
:101C000011F0130FCACF1093010420933F0280E11B
:101C10008093F3048091F30482608093F30482E064
:101C20008093FA0494E09093FB048093FC04109258
:101C3000FD048CE290E09093C1048093C00480E6A0
:101C400070C2D0933802C09337021092360230919E
:101C5000F304132F147032FF03C0198E80E20AC2FE
:101C60002091F20422952F70220F220F209301045D
:101C70008091C0049091C1044497821B9109909374
:101C8000C1048093C0044F70423021F4232F2F737E
:101C90002231C9F0892B19F4832F8370A1F0909120
:101CA000EA048885981333C29091EB0489859813D0
:101CB0002EC29091EC048A85981329C29091ED046C
:101CC0008B85981324C234FF49C0688979896115CE
:101CD000710509F443C0CE010C960E94ED203091AD
:101CE000EE0480913B02381339C02091EF048091BB
:101CF0003C02281333C09091F00480913D02981368
:101D00002DC08091F10440913E02841327C03C878E
:101D10002D879E878F878B8D811119C09E89888D15
:101D20002A8D821B292F269526952695821B980F92
:101D30009E8B87FD81952F89322F36953695231BF3
:101D4000820F8F8B969596959695890F888F81E057
:101D500080933602888D8A8F198A188A298DE22FFE
:101D6000EF708E2F90E0FC013197E830F10508F01C
:101D700069C2EC5CFF4F0C9420278091360280FFF3
:101D800061C283E0898F80E480933602198A188AC1
:101D90008091C0049091C104009709F4FDC022E431
:101DA000209336020E942321F7C08091360280FFE3
:101DB0006DC08091F3048F73823109F067C0809108
:101DC000F204982F907F913508F444C082958F706B
:101DD00090E00597880F991F880F991F20913F0267
:101DE000E12FF0E0E817F9078CF5EC53FB4F26A93B
:101DF000211105C01093010410923F022BC0213025
:101E000011F41F5FEDCF2230E1F437A93430C9F46B
:101E10001093010420933F0280AD90E0982F882713
:101E200021AD822B9093410280934002813072E079
:101E3000970710F080E092E09B8B8A8B9D8B8C8BB8
:101E400009C037A9332311F0130FCACF109301042F
:101E500020933F0283E0898F8091EA0488878091F4
:101E6000EB0489878091EC048A878091ED048B874D
:101E700081E090E00E94232182E480933602198A57
:101E8000188A1092C1041092C00486C080E2809328
:101E900036020E94CE19198E8BCD8091F30480FFFB
:101EA00028C024FD26C088899989892B09F0CAC1D8
:101EB0008091C0049091C10401960E9423218091D9
:101EC0003602982F9061909336022091C004309191
:101ED000C104232B19F08261809336020E94CE192F
:101EE00081E090E0998B888B88E0898F1B8E81E15F
:101EF0000FC185FF1DC08091F80490E0982F8827BE
:101F00003091F904832B4091C2045091C304480FCF
:101F1000591F5093C3044093C2044091C004509190
:101F2000C104BA01681B790B7093C1046093C004AB
:101F30004091C0045091C1044115510551F024FD58
:101F400008C090913602926090933602CA010E94B6
:101F500023218091F40490E0982F88272091F504A4
:101F6000820F911D90934102809340022C893D89FC
:101F70002817390710F0892B21F430934102209360
:101F8000400280914002909141029B8B8A8B80910C
:101F90003602837009F456C11092BF041092BE0439
:101FA0000E94CE198091360285FF07C01092BF04AF
:101FB0001092BE04198E84E1ABC084FF0AC0109257
:101FC000BF041092BE0481E090E0998B888B84E07E
:101FD0008CCF2091BE043091BF0421153105E1F072
:101FE00080FF02C0198A188A88899989009781F42C
:101FF0008A899B898217930720F49093BF0480936A
:10200000BE048091BE049091BF04998B888B04C05C
:102010009093BF048093BE041B8E8091BC0490916A
:10202000BD049093C3048093C2048091BE04909138
:10203000BF04892B59F088899989009739F08896CF
:102040009093C1048093C00488E10BC08091360254
:1020500081FFF8C088E290E09093C1048093C004AF
:1020600080E18093F3045CC08091360280FFEAC077
:10207000198E80E1809336020E94CE19E3C08091D0
:10208000C0049091C104009711F00E942321909107
:10209000F3048091360290FF0BC080FF06C087E0FA
:1020A000898F1A8E198A188A19C086E0898F16C0FE
:1020B00080FF1EC085E0898F198A188AC3C080916D
:1020C000C0049091C104009711F00E9423218091D7
:1020D000F30480FF0DC087E0898F1A8E81E090E0C5
:1020E0000E94232180E1809336020E94CE190FC006
:1020F0008091C0049091C104892B49F4A3C08091C0
:10210000360280FF9FC087E0898F1A8E9BC080E1D6
:102110008093F30488E290E09093C1048093C0041C
:1021200080E58093F20488858093EE04898580930E
:10213000EF048A858093F0048B858093F1048C856D
:102140008093EA048D858093EB048E858093EC0464
:102150008F858093ED0486E08093DB048C819D81E4
:102160009093E7048093E6048E819F819093E90425
:102170008093E80480916504909166049093DF0455
:102180008093DE0480916704909168049093E10449
:102190008093E004888199819093E3048093E20422
:1021A0008A819B819093E5048093E404898D84FF68
:1021B00005C01092F5041092F40405C082E08093EB
:1021C000F4041092F50480E48093DA048091C00452
:1021D0009091C1049093D4048093D5041092F90493
:1021E0001092F8041092F7041092F60486E00E9410
:1021F0005415809590959093F7048093F60485E4A8
:102200008093D2041092D3041092D9041092D8046F
:102210008091390290913A02019690933A0280930C
:1022200039029093D6048093D7041092DD04109263
:10223000DC040E94E015809590959093DD048093D6
:10224000DC0404C01092C1041092C0041092360243
:10225000DF91CF911F91FF90EF9008950F931F93FF
:10226000CF93DF93DC0120917F03309180032F5FB8
:102270003F4F21158DE7380710F020E030E1522F55
:10228000432FE3E5F3E080E0843041F0C481D58161
:102290008F5F3B96C417D507B9F7E9CF309380031A
:1022A00020937F0390E08BE09430D1F0292F30E031
:1022B00041E0490F829FF001839FF00D1124ED5AF8
:1022C000FC4FEF01249604811581012B39F4909382
:1022D0000104309741F480E090E02EC0942FE4CFC9
:1022E00090930104F8CF80917F0390918003982709
:1022F000892798279983888377836683109729F4A1
:1023000010821182128213820BC08D919C911197C1
:102310009183808312968D919C91139793838283EE
:102320008BE0829FD001839FB00D1124AD5ABC4F2A
:1023300080E418968C93CF01DF91CF911F910F917C
:102340000895CF93DF93EC010E94401F2091C004B9
:102350003091C10490912E022A32310521F410925D
:102360002F029D7F03C01D821C82926090932E02DB
:10237000DF91CF910C94F115CF92DF92EF92FF9203
:102380000F931F93CF93DF936C017A018B01C0E011
:10239000D0E0CE15DF0589F0D8016D918D01D60111
:1023A000ED91FC910190F081E02DC6010995892BFA
:1023B00011F47E0102C02196ECCFC701DF91CF91CD
:1023C0001F910F91FF90EF90DF90CF900895FC0147
:1023D000538D448D252F30E0842F90E0821B930B8A
:1023E000541710F0CF96089501970895FC01918D30
:1023F000828D981761F0828DDF01A80FB11D5D9667
:102400008C91928D9F5F9F73928F90E008958FEFD4
:102410009FEF0895FC01918D828D981731F0828D88
:10242000E80FF11D858D90E008958FEF9FEF0895DF
:10243000FC01918D228D892F90E0805C9F4F821B43
:1024400091098F739927089587E395E00E941812E8
:1024500021E0892B09F420E0822F0895FC01848D6E
:10246000DF01A80FB11DA35ABF4F2C91848D90E0BE
:1024700001968F739927848FA689B7892C93A08999
:10248000B1898C9180648C93938D848D981306C050
:102490000288F389E02D80818F7D80830895EF92FB
:1024A000FF920F931F93CF93DF93EC0181E0888F0E
:1024B0009B8D8C8D981305C0E889F989808185FDF5
:1024C00024C0F62E0B8D10E00F5F1F4F0F731127E6
:1024D000E02E8C8DE8120CC00FB607FCFACFE8890D
:1024E000F989808185FFF5CFCE010E942E12F1CFB0
:1024F0008B8DFE01E80FF11DE35AFF4FF0820B8F29
:10250000EA89FB898081806207C0EE89FF89608348
:10251000E889F98980818064808381E090E0DF919F
:10252000CF911F910F91FF90EF900895CF93DF937C
:10253000EC01888D8823C9F0EA89FB89808185FDBB
:1025400005C0A889B9898C9186FD0FC00FB607FC1C
:10255000F5CF808185FFF2CFA889B9898C9185FF5D
:10256000EDCFCE010E942E12E7CFDF91CF910895DB
:1025700080E090E0892B29F00E94241281110C94B4
:10258000000008950E945A286115710579F0FB0139
:1025900001900020E9F73197AF01461B570BDC0192
:1025A000ED91FC910280F381E02D099480E090E0B0
:1025B00008954F925F926F927F92EF92FF920F93E6
:1025C0001F93CF93DF93CDB7DEB7A1970FB6F894E3
:1025D000DEBF0FBECDBF7C01FA01CB0119A22230B4
:1025E00008F42AE08E010F5D1F4F422E512C612C02
:1025F000712CBF01A30192010E94EF26F901CA01CB
:10260000015011096A3014F4605D01C0695CD801A1
:102610006C93232B242B252B61F7B801C7010E9453
:10262000C412A1960FB6F894DEBF0FBECDBFDF91E6
:10263000CF911F910F91FF90EF907F906F905F90DF
:102640004F9008958F929F92AF92BF92CF92DF9258
:10265000EF92FF920F931F93CF93DF937C01EB01D7
:102660006C0182E0C80ED11C4701E5E08E0E911C82
:1026700000E010E0F60141916F0150E060E070E091
:102680002AE0CE010E94D9125C01E881F981019013
:10269000F081E02D6EE2CE0109958A0D9B1D080F99
:1026A000191FC814D90431F7F701458150E060E0E3
:1026B00070E02AE0CE010E94D912800F911FDF91B5
:1026C000CF911F910F91FF90EF90DF90CF90BF902F
:1026D000AF909F908F9008950F931F93CF93DF93A8
:1026E000EC010E94C4128C016EE971E0CE010E94DF
:1026F000C412800F911FDF91CF911F910F91089508
:102700002FE831E0FC0131832083FB0140815181BE
:1027100062817381FC0142835383648375830895CE
:102720001F920F920FB60F9211242F933F934F9346
:102730005F936F937F938F939F93AF93BF93EF9329
:10274000FF9387E395E00E942E12FF91EF91BF91D6
:10275000AF919F918F917F916F915F914F913F9139
:102760002F910F900FBE0F901F9018951F920F92F0
:102770000FB60F9211242F938F939F93EF93FF9394
:10278000E0914705F09148058081E0914D05F09179
:102790004E0582FD12C09081809150058F5F8F732E
:1027A00020915105821751F0E0915005F0E0E95C6D
:1027B000FA4F958F8093500501C08081FF91EF9172
:1027C0009F918F912F910F900FBE0F901F90189592
:1027D000CF93DF931F92CDB7DEB7DC01ED91FC9173
:1027E000048CF58DE02D41E050E0BE016F5F7F4F1E
:1027F0000995181619061CF4898190E002C08FEF24
:102800009FEF0F90DF91CF910895CF93DF931F92A9
:10281000CDB7DEB76983DC01ED91FC910280F381D5
:10282000E02D41E050E0BE016F5F7F4F09950F90B2
:10283000DF91CF91089580E00895FB014150510947
:10284000460F571FE417F50778F4208130E0322F48
:1028500022276181260F311D820F931F8217930754
:1028600008F401963296EECFE417F50751F4208173
:1028700030E0322F2227820F931F8217930708F42C
:1028800001960895CF93DF93EC018A89882369F03C
:102890009A01AB016E857F850E94551E2E853F856E
:1028A000280F391F3F872E8702C080E090E0DF911C
:1028B000CF910895CF93DF93EC018C859D85892B73
:1028C00019F480E090E024C0EA89EE23D1F381E09E
:1028D0008B8B8E859F8525E0E29FF0011124EE5BB6
:1028E000FD4F938382838C859D85909331028093E5
:1028F000300285E00E94260A8091C0049091C104B4
:10290000892BF9F2CE010E960E94A11181E090E090
:10291000DF91CF9108950F931F93CF93DF93EC0135
:102920008B018C859D85892B41F460E070E080E00F
:1029300090E00E942E119D878C87EC85FD85309755
:1029400051F0102701271027158304832E96D28774
:10295000C18781E001C080E0DF91CF911F910F918D
:102960000895CF93DF93DC011C96ED91FC911D97A8
:102970003097B1F0EC0115821482128611861D8603
:102980001C8689890E94471C88890E94471C8A8965
:102990000E94471C2E9686E0FE0111928A95E9F767
:1029A000DF91CF910895FC011382128288EE93E0AB
:1029B000A0E0B0E084839583A683B7838FE091E0A5
:1029C00091838083158614863E9686E0DF011D92F2
:1029D0008A95E9F70895CF92DF92EF92FF920F93D5
:1029E0001F93CF93DF93CDB7DEB7AA970FB6F894B6
:1029F000DEBF0FBECDBF7C016A010FE811E01A8374
:102A000009831B821C821D821E82CE01099669A742
:102A10007AA70E94D3141E8F0D8F1F8E18A219A2A1
:102A20001AA28091290690912A06A0912B06B091B6
:102A30002C068DA39EA3AFA3B8A78B839C83AD83E5
:102A4000BE8318861F82AE01435E5F4F69A57AA5DB
:102A5000CE0101960E94800381309105B1F4D70127
:102A6000ED91FC910488F589E02D1CA30BA38F8DBB
:102A700098A1A9A1BAA18DA39EA3AFA3B8A7A601AF
:102A8000BE016D5D7F4FC7010995AA960FB6F894F8
:102A9000DEBF0FBECDBFDF91CF911F910F91FF9091
:102AA000EF90DF90CF900895EF92FF920F931F93D6
:102AB000CF93DF93C82FE090D504F12C84E1E81A7E
:102AC000F1082091D40430E0322F2227E20EF31EC9
:102AD00048E050E06EED74E0C7018C0F911D0E943C
:102AE0001D14C13131F0C091F204C695C695CC7366
:102AF00001C0C8E0D0E0AE0166EE74E00E941D1493
:102B00008C01CE15DF0508F04CC0A7014C1B5D0BF6
:102B1000BE016E5D7F4F80912F020E949C1EEC01D2
:102B2000219760E08AE00E942F1B8AE38EBD0DB4DE
:102B300007FEFDCFA80160E070E06C177D07C8F4C8
:102B40001EBC0DB407FEFDCF2EB530E0322F22277C
:102B50001EBC0DB407FEFDCF8EB5280F311D420FF0
:102B6000531F4217530710F44F5F5F4F6E5F7F4F45
:102B7000E4CF8A016C177D0781F41EBC0DB407FEFB
:102B8000FDCF8EB590E0982F88278A01080F191F76
:102B90000817190710F40F5F1F4F61E08AE00E94C9
:102BA0002F1B0115110519F0902F812F02C08FEFF7
:102BB0009FEFDF91CF911F910F91FF90EF900895BC
:102BC00044E150E062ED74E080E090E00E941D146A
:102BD000009721F098278927982708958FEF9FEF76
:102BE0000895DF92EF92FF920F931F93CF93DF939D
:102BF00090912E02892F827091FF11C020912C029A
:102C000030E044EC54E060E070E080912F020E94DC
:102C1000551E80912E028D7F80932E0219C0209127
:102C2000C0043091C1042115310519F0C9010E9479
:102C3000B11D80932F02882309F476C02091C0042F
:102C40003091C10444EC54E060E070E00E94551EF5
:102C5000E0912F0280914B03882309F45DC085E049
:102C6000E89FF0011124EE5BFD4FC081D1812197D7
:102C7000028113810C0F1D1FCE010E94421DD82E10
:102C8000882321F060E0CE010E942A1DBE0184E06D
:102C90000E94AC1CB80186E00E94AC1C0AE010E067
:102CA00040E86FE180E80E94671C40E86FE180EA3D
:102CB0000E94671C4AE06CE180EA0E94671C48E0C1
:102CC0006FE180E80E94671C84E6E82EF12C8CE11D
:102CD0000E94FD1C8A7069F4E114F10461F081E046
:102CE000E81AF1086AE070E080E090E00E94B71B0B
:102CF000EECFEF2849F448E06FE180EA0E94671CBC
:102D00000150110969F608C0012B31F0DD2021F0D6
:102D10006D2DCE010E942A1D80912F020E94471C1A
:102D200010922F0281E001C080E0DF91CF911F91CE
:102D30000F91FF90EF90DF900895CF92DF92EF9286
:102D4000FF920F931F93CF93DF9380914B038823C0
:102D500009F406C2D0912D02D11160C089E30E940E
:102D6000FD1C90914B03992309F456C0882309F464
:102D700053C060914C0370914D038B010A5F1F4F4C
:102D8000011528E0120710F00F5F174080E00E9445
:102D9000AC1C60E08AE30E94DB1C90E090934D0342
:102DA00080934C0360E08AE30E94DB1C20914C037B
:102DB00030914D03382B30934D0320934C0360E04A
:102DC0008AE30E94DB1CC82F60E08AE30E94DB1CC0
:102DD000F82E60E08AE30E94DB1CE82E40E46EE1FE
:102DE00080E80E94671CE7FE15C080914C0390911B
:102DF0004D038115984070F410934F0300934E03D8
:102E00008C2F90E09F290497909351038093500357
:102E1000DFEF02C00E94F01ED0932D02C0912D0260
:102E2000CC2309F420C181E080932E028C2F0E94D4
:102E3000D71E9093C1048093C004892B09F407C165
:102E400042E650E064EC74E08C2F0E94C320C091F5
:102E5000D004D091D104C830D10509F044C080918C
:102E60002D0280932F028091C0049091C1040E978F
:102E70009093C1048093C00420916504309166044E
:102E80008091DE049091DF048227932720916904CA
:102E900030916A0482239323892BC1F42091670423
:102EA000309168048091E0049091E1048227932797
:102EB00020916B0430916C0482239323892B31F48D
:102EC0006AEC74E08EED94E00E94342081E00E9470
:102ED000260A8091C0049091C104892B09F4B7C0DF
:102EE0000E94401FB2C0C83046E0D40709F0AFC00E
:102EF0008091C0049091C1041092C1041092C0044A
:102F00008A9708F49CC08091D8049091D9048115C7
:102F100051E0950729F08115924009F474C08FC0E3
:102F20002091EA043091EB0480916504909166044D
:102F30002817390709F083C02091EC043091ED0483
:102F400080916704909168042817390709F077C0C9
:102F50006AED74E080EE94E00E94342080E092E01C
:102F60009093D9048093D80486E0EAEDF4E0A4EECF
:102F7000B4E001900D928A95E1F786E0EBE5F4E08C
:102F8000AAEDB4E001900D928A95E1F786E0EBE5B9
:102F9000F4E0AAECB4E001900D928A95E1F786E0A6
:102FA000E4EEF4E0A4ECB4E001900D928A95E1F730
:102FB0008091E0049091E1049093EB048093EA0403
:102FC0008091E2049091E3049093ED048093EC04EB
:102FD00080916504909166049093E1048093E004ED
:102FE00080916704909168049093E3048093E204D5
:102FF000D093D104C093D0048AE290E09093C104AE
:103000008093C0041CC02091EA043091EB048091AD
:103010006504909166042817390789F42091EC041F
:103020003091ED0480916704909168042817390766
:1030300031F46AED74E080EE94E00E9434208091D7
:10304000C0049091C104892B11F00E94F115809168
:103050002D02882341F080912E0280FF04C00E943F
:10306000F01E10922D020E94F11B6B017C018091D9
:10307000610490916204A0916304B0916404A7017B
:103080009601281B390B4A0B5B0BDA01C9018095AD
:103090009095A095B0958827B7FD83959927AA2785
:1030A000BB27C82F01E813E01093380200933702C2
:1030B000CC2311F082E017C00115110519F1D801D8
:1030C0005C96ED91FC915D973097D1F08585968562
:1030D000A785B089A7019601281B390B4A0B5B0B0A
:1030E00057FD10C083E00E94260A8091C004909191
:1030F000C104892B39F00E94401F0E94F11502C0C3
:10310000F801E4CF025E1F4F33E0093F130761F679
:10311000CC2331F1D701C60186509F4FAF4FBF4F2F
:103120008093610490936204A0936304B093640459
:10313000C3E5D3E0D0933102C093300285E00E9412
:10314000260A8091C0049091C104892B21F08985C1
:103150009A850E94A1112B9643E0CF37D40751F7EF
:10316000DF91CF911F910F91FF90EF90DF90CF9063
:103170000895DF92EF92FF920F931F93CF93DF9307
:1031800000D000D0CDB7DEB77C014B835C83698370
:103190007A830E949D16F70181894B815C81698148
:1031A0007A81882329F10E94C3208C01F701D188FC
:1031B0008D2D0E94D71E0817190731F48D2D0E94FE
:1031C000471CF701118A12C085E0D89EF001112436
:1031D000EE5BFD4F80819181800F911F91838083F1
:1031E00082819381801B910B93838283C80102C0EB
:1031F00080E090E00F900F900F900F90DF91CF91B3
:103200001F910F91FF90EF90DF900895CF93DF9380
:10321000EC010E949D168989DF91CF910C94D71EF5
:10322000CF93DF93EC010E949D16898981110E9442
:10323000471C8889898B188ADF91CF910C94D71EFF
:10324000CF92DF92EF92FF920F931F93CF93DF9372
:1032500000D000D0CDB7DEB78C016B017A010E949F
:103260009D16F60182819381A481B581892B8A2BD9
:103270008B2B41F1E114F10429F1828190E0982F28
:1032800088272381822B9827892798279A838983E7
:10329000248130E0322F22274581242B3227232717
:1032A00032273C832B83D8011C96ED91FC911D970E
:1032B0007E2D6F2D309729F17783668391838083EC
:1032C00033832283D8011C968D919C911D97892B65
:1032D000A9F052968C91811111C086E096E00E946F
:1032E000B11DF801828B2AE230E03787268721E082
:1032F00090E0811101C020E0822F15C080E090E0B5
:1033000012C0CE0101960E942E11D8011D969C93E9
:103310008E931C97009791F39801225F3F4FFC0119
:1033200032872187CFCF0F900F900F900F90DF91B2
:10333000CF911F910F91FF90EF90DF90CF90089564
:103340000F931F93CF93DF93EC018C010B5F1F4F03
:1033500088810E94471C1992C017D107C9F7DF91D5
:10336000CF911F910F9108950F931F93CF93DF93E8
:10337000EC01DC018D918D010E94471CFE01CE0104
:103380000496D8012D918D012193E817F907C9F70B
:103390001C82DF91CF911F910F910895CF92DF9200
:1033A000EF92FF920F931F93CF93DF93A091370279
:1033B000B09138025C96CD91DC915D9750913602C8
:1033C000209749F556FF61C0E8E7F4E080E090E01F
:1033D000208121111AC061E1689F9001699F300D21
:1033E0001124E901C858DB4F8061888327583B4F7F
:1033F00080E1F90111928A95E9F7209709F445C017
:103400005D96DC93CE935C9706C0019671968430EE
:103410009105F1F63AC051FF07C08091C004909128
:10342000C104892B09F047C0888187FF0EC08F77C0
:10343000888380913602826080933602E091370261
:10344000F0913802818D8F7E818F80913602982F86
:103450009071D92E84FF72C0CE0106960E94A019E9
:103460008981882309F46DC0E0913702F091380218
:10347000848195819F838E83888180648883E09195
:103480003702F0913802158E148EE12CF12CB70121
:103490008091C2049091C3040E949D20F092C104C7
:1034A000E092C004DF91CF911F910F91FF90EF90B8
:1034B000DF90CF9008958881807609F0B5CF6E01B6
:1034C000FFEFCF1ADF0AF12CF6018081811122C0B3
:1034D0002091C0043091C1042115310519F0C901B2
:1034E0000E94B11DF60180838823A1F00091C004E1
:1034F0001091C1042091C2043091C304245C344073
:1035000040912D0260E070E00E94091FF4E0FF127C
:103510008BCF0CC0F3942FEFC21AD20A35E0F3120E
:10352000D3CF80912E028E7F80932E02E0913702BE
:10353000F0913802818D8061818F76CF87FF03C043
:103540008BCF18829CCF80FF04C0CE0106960E94CC
:10355000B419809136028C7009F443C0EE81EE23D9
:1035600009F43FC08F8181110FC0EB84FC84E1140A
:10357000F10409F48CCF25E0E29FF0011124EE5B09
:10358000FD4FF382E28207C08E2F0E94D71E7C017E
:10359000892B09F47CCF8091C2049091C304845C90
:1035A000944080932C02F701E80FF11DCF01EF2B1F
:1035B00019F00E94B11DD82ED0922F02DD2009F4FF
:1035C00066CF60912C0270E0870120E030E04E81F0
:1035D0008D2D0E94091F80912E02826080932E0201
:1035E00056CF888185FF51CF8E8181110BC0188203
:1035F000E0913702F0913802158E148E80E18093AD
:10360000360243CFE0913702F0913802818D80611C
:10361000818F3BCF3FB7F89480913305909134056B
:10362000A0913505B091360526B5A89B05C02F3F62
:1036300019F00196A11DB11D3FBFBA2FA92F982FD8
:103640008827820F911DA11DB11DBC01CD0142E053
:10365000660F771F881F991F4A95D1F7089590E04C
:10366000FC01EC54FF4F3491FC01E056FF4F2491D4
:10367000FC01E457FF4FE491EE2309F43BC03323F0
:1036800039F1333091F038F43130A9F0323001F5AE
:1036900084B58F7D12C0373091F03830A1F03430CE
:1036A000B9F4809180008F7D03C0809180008F7776
:1036B000809380000DC084B58F7784BD09C0809150
:1036C000B0008F7703C08091B0008F7D8093B000F1
:1036D000F0E0EE0FFF1FEE57FF4FA591B4918FB7AB
:1036E000F894EC91611103C020952E2301C02E2B7C
:1036F0002C938FBF0895CF93DF9390E0FC01E056A9
:10370000FF4F2491FC01E457FF4F8491882361F11E
:1037100090E0880F991FFC01E858FF4FC591D491A4
:10372000FC01EE57FF4FA591B491611109C09FB7FD
:10373000F8948881209582238883EC912E230BC0F6
:10374000623061F49FB7F8943881822F809583238B
:103750008883EC912E2B2C939FBF06C08FB7F894D3
:10376000E8812E2B28838FBFDF91CF9108958F9210
:103770009F92AF92BF92CF92DF92EF92FF926B0136
:103780007C010E940A1B4B015C01C114D104E104BD
:10379000F104F1F00E940A1BDC01CB0188199909A0
:1037A000AA09BB09883E9340A105B10570F321E049
:1037B000C21AD108E108F10888EE880E83E0981E4D
:1037C000A11CB11CC114D104E104F10419F7DDCF2F
:1037D000FF90EF90DF90CF90BF90AF909F908F9031
:1037E00008952FB7F89460912F057091300580915E
:1037F0003105909132052FBF08951F920F920FB699
:103800000F9211242F933F938F939F93AF93BF9366
:1038100080912F0590913005A0913105B09132052E
:1038200030912E0523E0230F2D3720F40196A11DA2
:10383000B11D05C026E8230F0296A11DB11D2093DE
:103840002E0580932F0590933005A0933105B093FA
:1038500032058091330590913405A0913505B091E2
:1038600036050196A11DB11D809333059093340553
:10387000A0933505B0933605BF91AF919F918F917D
:103880003F912F910F900FBE0F901F901895882396
:10389000E9F0A2E4B2E025E014969C911497981305
:1038A0000DC095E0899FF0011124EE5BFD4F8481EE
:1038B00014968C931382128214820895992331F006
:1038C000299FD0011124AE5BBD4FE6CF08950F9321
:1038D0001F93CF93DF931F92CDB7DEB7182F062F1C
:1038E00060E08AE049830E942F1B802F8F71812B1B
:1038F0008EBD49810DB407FEFDCF4EBD0DB407FE50
:10390000FDCF61E08AE00F90DF91CF911F910F9181
:103910000C942F1B1F93CF93DF93182F1076C12F7A
:10392000D0E02091000130E0C217D30789F043E0D6
:103930006FE180EA0E94671CAE0185E055954795CE
:103940008A95E1F76FE180E80E94671C10930001FF
:10395000DF91CF911F9108951F93CF93DF9300D0F4
:10396000CDB7DEB7182F69837A830E948A1C4981FC
:10397000612F80E40E94671C61E0610F7A81472F0C
:1039800080E40F900F90DF91CF911F910C94671CF2
:103990001F93CF93DF931F92CDB7DEB7182F6983A4
:1039A0000E948A1C4981612F80E40F90DF91CF91A2
:1039B0001F910C94671CCF93DF93C82FD62F60E024
:1039C0008AE00E942F1B8D2F8F71C82BCEBD0DB4A6
:1039D00007FEFDCF1EBC0DB407FEFDCFD7FD08C00E
:1039E00061E08AE00E942F1B8EB5DF91CF91089590
:1039F0001EBC0DB407FEFDCFF3CFCF93DF931F9214
:103A0000CDB7DEB7682F69830E948A1C698180E088
:103A10000F90DF91CF910C94DB1CCF93DF93EB01E0
:103A2000682F84ED0E94C81CBE0186ED0E94AC1C6C
:103A3000CFE0D0E08AEE0E94FD1C80FF08C06AE063
:103A400070E080E090E00E94B71B219799F7DF912A
:103A5000CF910895CF93C62FBC0182E00E94AC1C89
:103A600060E08AE00E942F1B8AE78EBD0DB407FE3E
:103A7000FDCFCEBD0DB407FEFDCF61E08AE0CF9152
:103A80000C942F1BBC0180E00E94AC1C60E08AE01B
:103A90000E942F1B8AE38EBD0DB407FEFDCF1EBC16
:103AA0000DB407FEFDCF61E08AE00E942F1B8EB5AA
:103AB0000895CF92DF92EF92FF920F931F93CF93CF
:103AC000DF936C018B014130510579F4CB010E94E9
:103AD000421D682FC601DF91CF911F910F91FF907A
:103AE000EF90DF90CF900C942A1DEA01C60FD71FEC
:103AF0007E0181E0E81AF10880E10E94AC1CB60169
:103B000084E10E94AC1C0115184038F4E11488E0EF
:103B1000F80618F07E0188E0F81AB70182E10E94E9
:103B2000AC1C40E16FE180EA0E94671C40E26FE15B
:103B300080E80E94671C6FE180E00E94DB1C85FF2B
:103B400007C061E070E080E090E00E94B71BF3CF17
:103B5000DF91CF911F910F91FF90EF90DF90CF9069
:103B60000895CF92DF92EF92FF920F931F93CF931E
:103B7000DF938C0160914202709143026150784E54
:103B8000C12C98E1D92EE2E4F2E080E0C0E0D0E080
:103B900045E09481992349F0499F900111242E5BBF
:103BA0003D4FD9012D913C9101C09B01E080F180F6
:103BB0002E193F090280F381E02D2E1B3F0B2017A9
:103BC000310739F4B5E08B9FE0011124CE5BDD4F66
:103BD00049C00217130748F42C153D0530F4489FDF
:103BE000E0011124CE5BDD4F6901911107C02097E0
:103BF000C9F5C2E4D2E085E0D82E1EC0499FF0018D
:103C00001124EE5BFD4F892FC4CFEA80FB80288111
:103C10003981E20EF31ED89EE0011124CE5BDD4F08
:103C200068817981E616F70639F04A815B81C70120
:103C30000E94591DF982E8828C818111E6CF209182
:103C400042023091430288819981281B390B8A8175
:103C50009B81281B390B2150384E2017310710F457
:103C600080E01AC091E0E7E4F2E022813381232B67
:103C700029F035969F5F9533C1F7F2CF4A815B817A
:103C800028813981240F351F3183208313830283D8
:103C90008C8184839C83892FDF91CF911F910F9119
:103CA000FF90EF90DF90CF900895CF92DF92EF9248
:103CB000FF920F931F93CF93DF937B018A016901DA
:103CC00025E0829FC0011124EC01CE5BDD4F6881AD
:103CD00079816E0D7F1D82E00E94AC1C0A80DB8121
:103CE000C02DCE19DF09CC16DD0608F4E60160E030
:103CF0008AE00E942F1B8AE78EBD0DB407FEFDCF20
:103D0000C8018C0F9D1F0817190741F0F801219178
:103D10008F012EBD0DB407FEFDCFF5CF61E08AE027
:103D20000E942F1BCE01DF91CF911F910F91FF9029
:103D3000EF90DF90CF900895EF92FF920F931F9333
:103D4000CF93DF938B017A018F3FD1F025E0829FE3
:103D5000E0011124CE5BDD4F02C0CEE4D3E08881C8
:103D60009981B801680F791F80E00E94AC1C8A819C
:103D70009B81801B910BE816F90690F4C70110C0D7
:103D800080914E0390914F03860F971F811528E075
:103D9000920718F3BC016F5F7740CEE4D3E0E4CF25
:103DA000DF91CF911F910F91FF90EF90089588239D
:103DB000A1F090914B03992381F08F3F29F48091DA
:103DC000500390915103089595E0899FF0011124CB
:103DD000EE5BFD4F82819381089580E090E008952D
:103DE00060914C0370914D036115710549F061506C
:103DF0007109611588E0780728F060E070E002C082
:103E00006FEF77E060FF02C0615071098CE00C94A5
:103E1000AC1C0F931F93DB01E42FA80190E0EF3F50
:103E200009F165E0E69FF0011124EE5BFD4F02C051
:103E3000EEE4F3E00190F081E02D2E0F3F1F65E0EE
:103E4000689FF001699FF00D1124EE5BFD4F8081AA
:103E50009181B9018A0F9B1F0E94591D1F910F91DB
:103E60000C94F01EE0914E03F0914F03E20FF31F0C
:103E7000E11568E0F607E0F29F012F5F3740DFCFE2
:103E80008091E2049091E3048F3F2FEF920759F461
:103E90002091E4043091E5042F3F3F4F21F486E068
:103EA000E3E3F1E05AC020916504309166042827CD
:103EB00039274091690450916A0424233523232B28
:103EC00091F46091E4047091E504209167043091CD
:103ED00068042627372740916B0450916C042423F3
:103EE0003523232B89F080916D0490916E0490937B
:103EF0002B0580932A0580916F0490917004909314
:103F00002D0580932C0508C090932B0580932A05DE
:103F100070932D0560932C0520912A0530912B0577
:103F200040912C0550912D0580E09BE001C08F5FF2
:103F3000883071F1989FF0011124EE5FFB4F608192
:103F400071812617370799F76281738146175707E2
:103F500071F780935A04349686E0A4ECB4E00190A3
:103F60000D928A95E1F786E0EBE5F4E0AAECB4E087
:103F700001900D928A95E1F788E090E09093D1044A
:103F80008093D0048091C0049091C1040E9667C0C4
:103F900080935A0446E050E06FEF70E084EC94E0C8
:103FA0000E94752886E0E4EEF4E0DF01282F1D92E0
:103FB0002A95E9F7EBE5F4E0AAECB4E0982F01903C
:103FC0000D929A95E1F7EBE5F4E0AAEDB4E0982FB5
:103FD00001900D929A95E1F720912A0530912B05D9
:103FE0003093EB042093EA0420912C0530912D05A9
:103FF0003093ED042093EC04209165043091660425
:104000003093E1042093E004209167043091680428
:104010003093E3042093E20420E031E03093D904AC
:104020002093D8043093D3042093D20428E030E0C6
:104030003093D5042093D4048093D60484E08093F5
:10404000D70488E096E09093D1048093D0048AEF5F
:1040500094E09093C3048093C2048AE290E090932A
:10406000C1048093C0040895EF92FF920F931F93B1
:10407000CF93DF939C01FB0110925A0490E08BE0F8
:10408000983031F1899F70011124E701CE5FDB4F39
:104090006881798161157105C9F04A815B8141159B
:1040A0005105A1F0D9010D911C9111970617170721
:1040B00069F412966D917C9113976417750731F42A
:1040C00090935A04D701AA5FBB4F2AC09F5FD8CFF5
:1040D00090E08BE0983091F0899FE0011124CE5F51
:1040E000DB4F48815981452B39F44A815B81452B4F
:1040F00019F490935A040AC09F5FECCF10922905DF
:104100001092280510925A04C2E0D4E0D9014D91D2
:104110005D916D917C91DE014D935D936D937D93E7
:1041200086E001900D928A95E1F71A86DF91CF9192
:104130001F910F91FF90EF9008959C01AB01709338
:10414000BF046093BE041616170654F48091BC0495
:104150009091BD042817390719F0B9010C946C2807
:104160000895CF93DF9367E375E00E942213EC017B
:104170006EE971E087E395E00E94C4128C0F9D1FE9
:10418000DF91CF9108950F931F93CF93DF93EB01AE
:1041900060E070E00E949C1E8C0160E08AE00E945A
:1041A0002F1B8AE38EBD0DB407FEFDCFCE01800F1D
:1041B000911FC817D90739F01EBC0DB407FEFDCFFB
:1041C0002EB52993F6CF61E08AE00E942F1BC8012B
:1041D000DF91CF911F910F910895FC012381260F4C
:1041E00020933E02A72FBB2792819A0F90933D0206
:1041F000318130933C02408140933B02E92FF0E053
:10420000EA17FB0748F481E0830F80933C02811199
:1042100003C04F5F40933B0230E0772726173707F4
:1042200088F49F5F90933D0291110CC080913C02F5
:104230008F5F80933C02811105C080913B028F5FAC
:1042400080933B020895CF93DF93C0913702D091C2
:104250003802BC01CE0108960E94ED20EBE3F2E0AB
:10426000808188878181898782818A8783818B8702
:10427000DF91CF910895CF93DF93CDB7DEB76897E5
:104280000FB6F894DEBF0FBECDBF789484B58260C0
:1042900084BD84B5816084BD85B5826085BD85B5EA
:1042A000816085BD80916E00816080936E00109268
:1042B00081008091810082608093810080918100E3
:1042C0008160809381008091800081608093800074
:1042D0008091B10084608093B1008091B0008160D2
:1042E0008093B00080917A00846080937A008091FE
:1042F0007A00826080937A0080917A008160809356
:104300007A0080917A00806880937A001092C100D0
:10431000E0914705F091480582E08083E0914305F4
:10432000F09144051082E0914505F09146058FEC2F
:10433000808310924F05E0914B05F0914C0586E08B
:104340008083E0914905F0914A05808180618083F6
:10435000E0914905F0914A05808188608083E09171
:104360004905F0914A05808180688083E091490584
:10437000F0914A0580818F7D808384ED95E0909354
:104380007304809372040E94F11BDC01CB01865000
:104390009F4FAF4FBF4F8093610490936204A093EF
:1043A0006304B093640410924F0310924E03109272
:1043B00051031092500389E091E0E2E4F2E0DF0162
:1043C0009C011D9221503040E1F781E098E09093EC
:1043D00043028093420261E08AE00E947B1B61E01D
:1043E0008AE00E942F1B61E08BE00E947B1B61E052
:1043F0008DE00E947B1B60E08CE00E947B1B60E0F4
:104400008BE00E942F1B60E08DE00E942F1B80E557
:104410008CBD8DB581608DBD4FEF60E08FEF0E9448
:10442000671C62E070E080E090E00E94B71B62E3EE
:1044300070E080E090E00E94B71B10924D03109254
:104440004C0300E110E06DE180E00E94DB1C811173
:104450000AC00150110939F06AE070E080E090E094
:104460000E94B71BF0CF60E070E088E00E94AC1CB7
:1044700060E070E08CE00E94AC1C6FEF77E08AE0B7
:104480000E94AC1C61EB88E30E94C81C6FE370E3E0
:1044900088E20E94AC1C69EF77EF80E30E94AC1CBD
:1044A0006DE070E080EC0E94AC1C42E362EC80E8BE
:1044B0000E94671C62E17CE086EC0E94AC1C62E119
:1044C00084EC0E94C81C6CED75E08AEC0E94AC1C68
:1044D00061E084EE0E94C81C61E085EE0E94C81C69
:1044E00062E082EE0E94C81C63E083EE0E94C81C5A
:1044F00064E080EE0E94C81C65E081EE0E94C81C4A
:1045000060E071E080E10E940D1D8FE10E948A1C35
:1045100040EC6BE180E80E94671C44E06FE180E8BA
:104520000E94671C66E774E084E10E940D1D82E72B
:104530000E94FD1C80934B038F3F11F410924B039C
:1045400081E080935B0480935C0482E080935D044F
:1045500083E080935E0484E080935F0485E0809331
:10456000600480E0E82FF0E0EE0FFF1FE750FC4F03
:10457000118210828F5F8430A9F780E09EE1989FBE
:10458000F0011124EF57FC4F118E8F5F8430B9F783
:1045900080E094E09093800380937F0380E09BE031
:1045A000989FF0011124ED5AFC4F158214828F5F01
:1045B0008430B1F78093010410925A049BE08091FB
:1045C0005A04883068F4989FF0011124EE5FFB4F85
:1045D00010821182128213828F5F80935A04EFCF70
:1045E0000091720410917304D80192961D921D924D
:1045F0001D921C929597F80116A217A210A611A65B
:104600009A961D921D921D921C929D9716AA17AA0A
:1046100010AE11AE389686E0DF011D928A95E9F75B
:10462000369684E1DF011D928A95E9F781E0F80171
:104630008087818782E0828783E0838784E0848724
:1046400085E0858716AE0E94AF262FEC37E040E06C
:1046500050E00E94BD26DC01CB010196A11DB11DD9
:10466000F80184839583A683B78380839183A28393
:10467000B3836801FFE3CF0ED11CC6010E94B114C1
:1046800064E470E0C6010E948B14882309F48FC192
:104690000E94F11B4B015C01212C312CF12C48EEC6
:1046A000442E43E0542E612C712C52E0E52ED801AB
:1046B000DE968C91833009F4EDC0811120C0F801A1
:1046C00084819581A681B7810196A11DB11D848346
:1046D0009583A683B7830E94F11B681979098A091B
:1046E0009B09A30192010E94EF26A90161E0C80184
:1046F0000E944E0881E0D801DE968C93B2C08430CF
:10470000F9F4F80184819581A681B7810196A11DF4
:10471000B11D84839583A683B7830E94F11B68191A
:1047200079098A099B09A30192010E94EF26A90138
:1047300063E0C8010E944E08D801DE96EC9291C059
:10474000813031F5BE016F5F7F4FC8010E946F0657
:10475000F82EB2E08B1385C089819A81AB81BC8130
:10476000F80184839583A683B7830E94F11B68199F
:1047700079098A099B09A30192010E94EF26A901E8
:1047800063E0C8010E944E08D801DE96FC926FC01B
:10479000823009F066C0BE016F5F7F4FC8010E9482
:1047A0006F06F82EB5E08B1355C023E0F80126AF55
:1047B00082A193A1A4A1B5A1892B8A2B8B2B41F4B3
:1047C00084E893E0A0E0B0E082A393A3A4A3B5A300
:1047D000F80186A197A1A0A5B1A5892B8A2B8B2BC7
:1047E00061F482A193A1A4A1B5A1B695A7959795CF
:1047F000879586A397A3A0A7B1A7D8019A964D91B4
:104800005D916D917C919D9796968D919D910D9066
:10481000BC91A02D452B462B472B59F4AC01BD0173
:10482000440F551F661F771FF80142A753A764A7BF
:1048300075A7F80186A797A7A0ABB1AB82A593A5F2
:10484000A4A5B5A582AB93ABA4ABB5AB22242394AE
:10485000312C0DC0F6E08F1304C0D801DE961C92F7
:1048600006C0BFEFFB1203C0F80116AEF12CF1E059
:104870002F16310409F41BCF0E94F11BDC01CB0180
:1048800088199909AA09BB0981369A4EA105B10573
:1048900008F40DCFC6010E94B114F80184819581FE
:1048A000A681B7810196A11DB11D84839583A6833E
:1048B000B7832A94232809F07AC0009172041091DA
:1048C0007304B8016E5E7F4FCE0143960E94801341
:1048D000B8016A5E7F4FCE010D960E948013B80129
:1048E000625E7F4FCE0107960E948013B801625F1F
:1048F0007F4FCE0101960E9480138D8190E0982F0A
:1049000088272E81822B9827892798272B8130E0B2
:10491000322F22274C81242B322723273227309312
:1049200066042093650490936804809367048989E2
:1049300090E0982F88272A89822B98278927982703
:104940002F8530E0322F22274889242B3227232736
:10495000322730936E0420936D04909370048093FB
:104960006F048F8990E0982F8827288D822B9827B5
:10497000892798272D8930E0322F22274E89242B32
:1049800032272327322730936A04209369049093B7
:104990006C0480936B0489859A85AB85BC85809374
:1049A000290690932A06A0932B06B0932C0661EA61
:1049B00071E087E395E00E94C41230916504209174
:1049C000660490916704809168040FE811E01A83EF
:1049D00009833B832C839D838E83CE0101960E94A5
:1049E000B1206BEA71E087E395E00E94C412309138
:1049F000690420916A0490916B0480916C041A837D
:104A000009833B832C839D838E83CE0101960E9474
:104A1000B12068EB71E087E395E00E94C412309109
:104A20006D0420916E0490916F04809170041A833C
:104A300009833B832C839D838E83CE0101960E9444
:104A4000B12064EC71E087E395E00E94C4121A8300
:104A500009838091290690912A06A0912B06B09196
:104A60002C068B839C83AD83BE83CE0101960E946E
:104A7000B120109274041092750410927604109272
:104A80007704680180ECB82E98EAA92E26E0922ED1
:104A90000E94F11B0091740410917504209176041A
:104AA00030917704DC01CB01801B910BA20BB30B7F
:104AB000181619061A061B060CF069C00E94F11B95
:104AC000DC01CB0188579C4EAF4FBF4F80937404DD
:104AD00090937504A0937604B093770462ED71E02F
:104AE00087E395E00E946C13DA82C982BB82AC82B4
:104AF0001D829E8248E853E1BE016F5F7F4F83E3D2
:104B000096E00E943902892BE1F161EE71E087E3C2
:104B100095E00E946C1362EF71E083E396E00E94DF
:104B20006C1383E396E00E943901892B19F40E94EB
:104B3000F11BF7CF83E396E00E9439018C01181630
:104B40001906A4F4C8010E942D277C01A801BC010C
:104B500083E396E00E946801AC01B70187E395E02A
:104B60000E94BC11C7010E94C227E4CF63E072E03B
:104B700087E395E00E946C1383E396E00E941C0299
:104B800006C065E172E087E395E00E946C130E9425
:104B9000B8127ECFCF92DF92EF92FF92CF93DF9346
:104BA000E1E4F6E0CFE8D1E0D183C0831282138242
:104BB00014821582E7E3F5E01382128288EEC82E94
:104BC00083E0D82EE12CF12CC482D582E682F782D4
:104BD0008DE391E09183808385EC90E095878487D5
:104BE00084EC90E09787868780EC90E0918B808BB7
:104BF00081EC90E0938B828B82EC90E0958B848BA0
:104C000086EC90E0978B868B118E128E138E148E0D
:104C1000E7E4F6E0D183C083128213821482158206
:104C2000EDE4F6E0D183C0831282138214821582F0
:104C3000E3E5F6E0D183C0831282138214821582E9
:104C4000E7E2F6E0D183C0831282138214821582D8
:104C500083E196E00E94D314E9E5F6E0D183C083B6
:104C60001282138214821582EDE2F6E0D183C083B2
:104C70001282138214821582EFE5F6E0D183C0839D
:104C80001282138214821582E5E6F6E0D183C08396
:104C90001282138214821582E3E3F6E013821282F9
:104CA000C482D582E682F7828DE691E0918380838B
:104CB00015861486DF91CF91FF90EF90DF90CF9013
:104CC00008958F929F92AF92BF92CF92DF92EF9210
:104CD000FF92CF93DF93EC01688179818A819B8178
:104CE000611571058105910521F464E279ED8BE58B
:104CF00097E02DE133EF41E050E00E94BD264901ED
:104D00005A019B01AC01A7EAB1E40E94DC266B01C9
:104D10007C01ACEEB4EFA50194010E94EA26DC010F
:104D2000CB018C0D9D1DAE1DBF1DB7FF03C00197AC
:104D3000A109B04888839983AA83BB83BC01CD01B4
:104D40009F77DF91CF91FF90EF90DF90CF90BF9052
:104D5000AF909F908F9008950E946126089581E002
:104D600091E00E9461260895609301017093020111
:104D700080930301909304010895052E97FB1EF480
:104D800000940E94D42657FD07D00E94EF2607FC0E
:104D900003D04EF40C94D42650954095309521952F
:104DA0003F4F4F4F5F4F0895909580957095619557
:104DB0007F4F8F4F9F4F08950E941127A59F900D01
:104DC000B49F900DA49F800D911D11240895B7FFED
:104DD0000C94DC260E94DC26821B930B0895A1E232
:104DE0001A2EAA1BBB1BFD010DC0AA1FBB1FEE1F65
:104DF000FF1FA217B307E407F50720F0A21BB30BB0
:104E0000E40BF50B661F771F881F991F1A9469F72B
:104E100060957095809590959B01AC01BD01CF0187
:104E20000895A29FB001B39FC001A39F700D811D83
:104E30001124911DB29F700D811D1124911D0895A3
:104E4000EE0FFF1F0590F491E02D09946927962736
:104E500069277827872778270895CF93DF938230B3
:104E6000910510F482E090E0E0916D06F0916E06FD
:104E700020E030E0C0E0D0E0309711F14081518176
:104E800048175907C0F04817590761F48281938188
:104E9000209719F09B838A832BC090936E06809392
:104EA0006D0626C02115310519F04217530718F475
:104EB0009A01BE01DF01EF010280F381E02DDCCF1A
:104EC0002115310509F1281B390B2430310590F4E7
:104ED00012968D919C9113976115710521F0FB013C
:104EE0009383828304C090936E0680936D06FD01C8
:104EF000329644C0FD01E20FF31F8193919322503B
:104F000031092D933C933AC020916B0630916C0689
:104F1000232B41F4209107013091080130936C0656
:104F200020936B0620910501309106012115310572
:104F300041F42DB73EB74091090150910A01241B5D
:104F4000350BE0916B06F0916C06E217F307A0F4C5
:104F50002E1B3F0B2817390778F0AC014E5F5F4FCF
:104F60002417350748F04E0F5F1F50936C0640938F
:104F70006B068193919302C0E0E0F0E0CF01DF91F6
:104F8000CF9108950F931F93CF93DF93009709F468
:104F90008CC0FC0132971382128200916D06109131
:104FA0006E060115110581F420813181820F931F56
:104FB00020916B0630916C062817390779F5F0932C
:104FC0006C06E0936B0671C0D80140E050E0AE176C
:104FD000BF0750F412962D913C911397AD01211506
:104FE000310509F1D901F3CF9D01DA013383228321
:104FF00060817181860F971F8217930769F4EC0116
:1050000028813981260F371F2E5F3F4F3183208340
:105010008A819B8193838283452B29F4F0936E06CA
:10502000E0936D0642C01396FC93EE931297ED0148
:10503000499159919E01240F351FE217F30771F42E
:1050400080819181840F951F029611969C938E9377
:105050008281938113969C938E931297E0E0F0E007
:10506000D80112968D919C911397009719F0F80131
:105070008C01F6CF8D919C9198012E5F3F4F820F4E
:10508000931F20916B0630916C062817390769F43D
:10509000309729F410926E0610926D0602C01382AA
:1050A000128210936C0600936B06DF91CF911F91D3
:1050B0000F91089581E090E0F8940C948328FB010F
:1050C000DC0104C08D910190801921F441505040C1
:1050D000C8F7881B990B0895FB01DC0102C0019001
:1050E0000D9241505040D8F70895DC0101C06D93F6
:1050F00041505040E0F70895FB01DC0101900D9212
:0A5100000020E1F70895F894FFCFB6
:10510A00FF0100000000006F06800000000000059B
:10511A00144214DA00F8090619E813040A8B141B5E
:10512A0014B1142019EB145A141019B918F2006C9E
:10513A00095C09FFFFFFFFFFFF000000004F12BCE0
:10514A0011E71196121812F6110A1200000000C295
:10515A0012BC11DA00D900C212C212C21200000037
:10516A0000C212BC11DA00D900000000006C03670B
:10517A0003DA00F90039018F000E0139020A0668C4
:10518A00011C02BD000602AB00CF00000000002295
:10519A001300000000C212454E4332384A000D0A7D
:1051AA00006C6F63616C49503A20007375626E65DA
:1051BA00744D61736B3A2000676174657761794950
:1051CA00503A2000646E7353657276657249503A9C
:1051DA002000436C69656E7420636F6E6E6563743C
:1051EA0000436C69656E7420636F6E6E65637465E7
:1051FA006400444154412066726F6D20436C6965B6
:10520A006E7400436C69656E7420646973636F6EB3
:10521A006E65637400436C69656E7420636F6E6EAD
:0C522A00656374206661696C65640000B7
:107E0000112484B714BE81FFF0D085E080938100F7
:107E100082E08093C00088E18093C10086E0809377
:107E2000C20080E18093C4008EE0C9D0259A86E02C
:107E300020E33CEF91E0309385002093840096BBD3
:107E4000B09BFECF1D9AA8958150A9F7CC24DD24C4
:107E500088248394B5E0AB2EA1E19A2EF3E0BF2EE7
:107E6000A2D0813461F49FD0082FAFD0023811F036
:107E7000013811F484E001C083E08DD089C08234E0
:107E800011F484E103C0853419F485E0A6D080C0E4
:107E9000853579F488D0E82EFF2485D0082F10E0AE
:107EA000102F00270E291F29000F111F8ED06801E7
:107EB0006FC0863521F484E090D080E0DECF843638
:107EC00009F040C070D06FD0082F6DD080E0C81688
:107ED00080E7D80618F4F601B7BEE895C0E0D1E017
:107EE00062D089930C17E1F7F0E0CF16F0E7DF06D8
:107EF00018F0F601B7BEE89568D007B600FCFDCFD4
:107F0000A601A0E0B1E02C9130E011968C91119780
:107F100090E0982F8827822B932B1296FA010C0160
:107F200087BEE89511244E5F5F4FF1E0A038BF0790
:107F300051F7F601A7BEE89507B600FCFDCF97BE46
:107F4000E89526C08437B1F42ED02DD0F82E2BD052
:107F50003CD0F601EF2C8F010F5F1F4F84911BD097
:107F6000EA94F801C1F70894C11CD11CFA94CF0C13
:107F7000D11C0EC0853739F428D08EE10CD085E9AC
:107F80000AD08FE07ACF813511F488E018D01DD067
:107F900080E101D065CF982F8091C00085FFFCCF94
:107FA0009093C60008958091C00087FFFCCF809118
:107FB000C00084FD01C0A8958091C6000895E0E648
:107FC000F0E098E1908380830895EDDF803219F02E
:107FD00088E0F5DFFFCF84E1DECF1F93182FE3DFCA
:107FE0001150E9F7F2DF1F91089580E0E8DFEE27F6
:047FF000FF270994CA
:027FFE00040479
:0400000300007E007B
:00000001FF
