:100000000C9465000C948D000C948D000C948D0064
:100010000C948D000C948D000C948D000C948D002C
:100020000C948D000C948D000C948D000C948D001C
:100030000C948D000C948D000C948D000C948D000C
:100040000C94DF170C948D000C94DF160C94B916E9
:100050000C948D000C948D000C948D000C948D00EC
:100060000C948D000C948D007B12921214130514C5
:10007000271442144E14F913000000002400270036
:100080002A0000000000250028002B0004040404BE
:100090000404040402020202020203030303030332
:1000A000010204081020408001020408102001020F
:1000B00004081020000000080002010000030407EB
:1000C0000000000000000000BA1E11241FBECFEF88
:1000D000D8E0DEBFCDBF11E0A0E0B1E0E6EFFEE387
:1000E00002C005900D92AE3DB107D9F726E0AEED06
:1000F000B1E001C01D92A132B207E1F710E0C5E600
:10010000D0E004C02197FE010E945E1FC436D107D3
:10011000C9F70E94211D0C94791F0C940000DC018A
:100120001C96ED91FC911D97309731F08681978157
:10013000982789279827089580E090E00895CF9325
:10014000DF93FC01EB01AC85BD85109791F0129611
:100150009C91129713968C9113973C9111962C9128
:1001600049E651E05183408332832383948385831E
:1001700008C089E691E09183808312821382148201
:100180001582CF01DF91CF910895CF93DF931F9216
:10019000CDB7DEB7DC01ED91FC91048CF58DE02D3F
:1001A00041E050E0BE016F5F7F4F099518161906B8
:1001B0001CF4898190E002C08FEF9FEF0F90DF91D8
:1001C000CF910895CF93DF931F92CDB7DEB76983A8
:1001D000DC01ED91FC910280F381E02D41E050E0E3
:1001E000BE016F5F7F4F09950F90DF91CF9108950A
:1001F00080E00895FB0141505109460F571FE41755
:10020000F50778F4208130E0322F22276181260F14
:10021000311D820F931F8217930708F401963296BF
:10022000EECFE417F50751F4208130E0322F22277A
:10023000820F931F8217930708F40196089508957B
:1002400080E090E00895DC01ED91FC91048CF58D47
:10025000E02D09940F931F93CF93DF93DC0120913E
:100260000004309101042F5F3F4F21158DE73807BF
:1002700010F020E030E1522F432FE4EDF3E080E076
:10028000843041F0C481D5818F5F3B96C417D50778
:10029000B9F7E9CF309301042093000490E08BE09C
:1002A0009430D1F0292F30E041E0490F829FF001D6
:1002B000839FF00D1124EC52FC4FEF012496048132
:1002C0001581012B39F490938204309741F480E03A
:1002D00090E02EC0942FE4CF90938204F8CF8091C9
:1002E000000490910104982789279827998388838F
:1002F00077836683109729F4108211821282138209
:100300000BC08D919C9111979183808312968D9152
:100310009C911397938382838BE0829FD001839F6C
:10032000B00D1124AC52BC4F80E418968C93CF01D1
:10033000DF91CF911F910F9108950F931F93CF934A
:10034000DF93EC018B018C859D85892B41F460E066
:1003500070E080E090E00E942A019D878C87EC8508
:10036000FD85309751F0102701271027158304834E
:100370002E96D287C18781E001C080E0DF91CF91C6
:100380001F910F910895CF93DF93EC018A89882301
:1003900069F09A01AB016E857F850E94950B2E85D1
:1003A0003F85280F391F3F872E8702C080E090E0ED
:1003B000DF91CF910895CF93DF93DC011C96ED91EF
:1003C000FC911D973097B1F0EC01158214821286D2
:1003D00011861D861C8689890E94291888890E9499
:1003E00029188A890E9429182E9686E0FE0111920A
:1003F0008A95E9F7DF91CF910895CF92DF92EF923E
:10040000FF920F931F93CF93DF93C09124028C2F01
:100410008270C1FF0FC02091220230E043E352E01E
:1004200060E070E0809125020E94950BCD7FC09323
:10043000240219C020912F0230913002211531057C
:1004400019F0C9010E94B61980932502882309F486
:1004500075C020912F023091300243E352E060E0FA
:1004600070E00E94950BC09025028091CC038823F8
:1004700009F45DC085E0C89EF0011124ED53FD4FE5
:10048000C081D1812197028113810C0F1D1FCE01E4
:100490000E944719D82E882321F060E0CE010E94E7
:1004A0002F19BE0184E00E94B118B80186E00E94B5
:1004B000B1180AE010E040E86FE180E80E946C1893
:1004C00040E86FE180EA0E946C184AE06CE180EA43
:1004D0000E946C1848E06FE180E80E946C1884E686
:1004E000E82EF12C8CE10E9402198A7069F4E11463
:1004F000F10461F081E0E81AF1086AE070E080E060
:1005000090E00E949917EECFEF2849F448E06FE1A0
:1005100080EA0E946C180150110969F608C0012B8D
:1005200031F0DD2021F06D2DCE010E942F198C2D90
:100530000E9429181092250281E001C080E0DF911D
:10054000CF911F910F91FF90EF90DF90CF90089582
:10055000CF93DF93EC010E94490C20912F02309140
:100560003002909124022A32310521F410922502A2
:100570009D7F03C01D821C82926090932402DF91B4
:10058000CF910C94FD01CF93DF93EC018C859D8579
:10059000892B19F480E090E024C0EA89EE23D1F39E
:1005A00081E08B8B8E859F8525E0E29FF0011124F1
:1005B000ED53FD4F938382838C859D8590932B0211
:1005C00080932A0285E00E94BA0D80912F029091BB
:1005D0003002892BF9F2CE010E960E94A80281E02A
:1005E00090E0DF91CF910895CF92DF92EF92FF924A
:1005F0000F931F93CF93DF938091CC03882309F44B
:1006000004C2D0912302D11160C089E30E94021973
:100610009091CC03992309F456C0882309F453C060
:100620006091CD037091CE038B010A5F1F4F0115BE
:1006300028E0120710F00F5F174080E00E94B11809
:1006400060E08AE30E94E01890E09093CE038093EC
:10065000CD0360E08AE30E94E0182091CD03309141
:10066000CE03382B3093CE032093CD0360E08AE392
:100670000E94E018C82F60E08AE30E94E018F82E7C
:1006800060E08AE30E94E018E82E40E46EE180E832
:100690000E946C18E7FE15C08091CD039091CE03A7
:1006A0008115984070F41093D0030093CF038C2FE2
:1006B00090E09F2904979093D2038093D103DFEFBA
:1006C00002C00E94300CD0932302C0912302CC239D
:1006D00009F41EC181E0809324028C2F0E94170C24
:1006E0009093300280932F02892B09F409C142E6CE
:1006F00050E060E070E08C2F0E94DC0B63E372E05E
:100700000E94491800913F021091400208301105E3
:1007100009F042C0C093250280912F0290913002CF
:100720000E979093300280932F022091BF02309158
:10073000C00280914D0290914E0282279327209112
:10074000B7023091B80282239323892BC1F4209100
:10075000C1023091C20280914F02909150028227D3
:1007600093272091B9023091BA0282239323892BD7
:1007700031F469E372E08DE492E00E943D0D81E086
:100780000E94BA0D80912F0290913002892B09F4BA
:10079000B7C00E94490CB2C0083046E0140709F007
:1007A000AFC080912F0290913002109230021092CF
:1007B0002F028A9708F49CC08091470290914802CA
:1007C000811551E0950729F08115924009F474C014
:1007D0008FC02091590230915A028091BF029091AE
:1007E000C0022817390709F083C020915B023091BD
:1007F0005C028091C1029091C2022817390709F06A
:1008000077C069E472E08FE492E00E943D0D80E0E1
:1008100092E0909348028093470286E0E9E4F2E098
:10082000A3E5B2E001900D928A95E1F786E0ECED48
:10083000F4E0A9E4B2E001900D928A95E1F786E038
:10084000ECEDF4E0A9E3B2E001900D928A95E1F7B6
:1008500086E0E3E5F2E0A3E3B2E001900D928A9531
:10086000E1F780914F029091500290935A02809349
:100870005902809151029091520290935C028093B0
:100880005B028091BF029091C002909350028093CE
:100890004F028091C1029091C202909352028093C4
:1008A00051021093400200933F028AE290E090933D
:1008B000300280932F021CC02091590230915A02BD
:1008C0008091BF029091C0022817390789F42091C6
:1008D0005B0230915C028091C1029091C2022817A4
:1008E000390731F469E472E08FE492E00E943D0D33
:1008F00080912F0290913002892B11F00E94FD010E
:100900008091240280FF04C00E94300C10922302C8
:100910000E94D3176B017C018091E2049091E30463
:10092000A091E404B091E504A7019601281B390BBE
:100930004A0B5B0BDA01C90180959095A095B095A3
:100940008827B7FD83959927AA27BB27C82F02E0E0
:1009500014E010932E0200932D02CC2311F082E0BC
:1009600017C00115110519F1D8015C96ED91FC91A4
:100970005D973097D1F085859685A785B089A701C9
:100980009601281B390B4A0B5B0B57FD10C083E007
:100990000E94BA0D80912F0290913002892B39F07C
:1009A0000E94490C0E94FD0102C0F801E4CF025EE2
:1009B0001F4F34E00A37130761F6CC2331F1D7011A
:1009C000C60186509F4FAF4FBF4F8093E204909374
:1009D000E304A093E404B093E504C4EDD3E0D09322
:1009E0002B02C0932A0285E00E94BA0D80912F024B
:1009F00090913002892B21F089859A850E94A80266
:100A00002B9644E0C030D40751F7DF91CF911F916E
:100A10000F91FF90EF90DF90CF900895CF93DF93E9
:100A2000EC010E94F40289890E942918198ADF9139
:100A3000CF9108950F931F93CF93DF931F92CDB75C
:100A4000DEB78C010E94F402F8018189882391F0BD
:100A500041E050E060E070E00E94DC0B8C01BE01E0
:100A60006F5F7F4F0E9449180130110519F4898189
:100A700090E002C08FEF9FEF0F90DF91CF911F9119
:100A80000F910895CF92DF92EF92FF920F931F93F1
:100A9000CF93DF9300D0CDB7DEB77C016B014983E4
:100AA0005A830E94F402F701818949815A8188237F
:100AB00051F160E070E00E94DC0B8C01B6010E94F5
:100AC0004918F701D1888D2D0E94170C08171907B6
:100AD00031F48D2D0E942918F701118A12C085E08A
:100AE000D89EF0011124ED53FD4F80819181800F3C
:100AF000911F9183808382819381801B910B9383CB
:100B00008283C80102C080E090E00F900F90DF91D7
:100B1000CF911F910F91FF90EF90DF90CF900895AC
:100B2000CF93DF93EC010E94F4028989DF91CF918A
:100B30000C94170CCF93DF93EC010E94F402898987
:100B400081110E9429188889898B188ADF91CF9199
:100B50000C94170CCF92DF92EF92FF920F931F939A
:100B6000CF93DF9300D000D0CDB7DEB78C016B01FF
:100B70007A010E94F402F60182819381A481B581F9
:100B8000892B8A2B8B2B41F1E114F10429F182810D
:100B900090E0982F88272381822B982789279827F0
:100BA0009A838983248130E0322F22274581242BA8
:100BB0003227232732273C832B83D8011C96ED91C3
:100BC000FC911D977E2D6F2D309729F177836683D9
:100BD0009183808333832283D8011C968D919C91CD
:100BE0001D97892BA9F052968C91811111C086E036
:100BF00096E00E94B619F801828B2AE230E037872E
:100C0000268721E090E0811101C020E0822F15C0ED
:100C100080E090E012C0CE0101960E942A01D80126
:100C20001D969C938E931C97009791F39801225FD9
:100C30003F4FFC0132872187CFCF0F900F900F904D
:100C40000F90DF91CF911F910F91FF90EF90DF9068
:100C5000CF900895FF920F931F93CF93DF93E0916E
:100C60002A02F0912B02C185D285209709F451C048
:100C700080912C0281FF31C0FA80F1102EC080914A
:100C80005502909156029783868380914D029091F0
:100C90004E029183808380914F0290915002938302
:100CA00082838091590290915A0298278927982728
:100CB000089719F00E94B619F82EFA82FF2069F001
:100CC0008F2D0E94170C8C012AE230E04091230204
:100CD00060E070E08F2D0E945A1A80912C0283FFF1
:100CE00018C08D818823A9F08C81809325028AE227
:100CF00080932202688179816A5271098091310260
:100D000090913202DF91CF911F910F91FF900C943F
:100D1000A60DDF91CF911F910F91FF900895FC01D7
:100D20001382128288EE93E0A0E0B0E08483958382
:100D3000A683B78385E091E091838083158614862E
:100D40003E9686E0DF011D928A95E9F708954F925D
:100D50005F926F927F928F929F92AF92BF92CF924B
:100D6000DF92EF92FF920F931F93CF93DF93CDB754
:100D7000DEB7E5970FB6F894DEBF0FBECDBF7C019E
:100D80008B016A0199E6A92E91E0B92EBA82A98257
:100D90001B821C821D821E82CE0109960E948F0634
:100DA000BAA6A9A61BA61CA61DA61EA680918605EE
:100DB00090918705A0918805B09189058F8F98A3A0
:100DC000A9A3BAA38B839C83AD83BE8318861F829D
:100DD000F801D8018D91882331F08E32D9F38053F8
:100DE0008A30C0F34EC080E090E020E030E05AE06E
:100DF0004191442311F1243031050CF042C04E32B0
:100E000081F48F3F910509F0E4F5ABE2B0E0AC0F5F
:100E1000BD1FA20FB31F8C932F5F3F4F80E090E068
:100E2000E7CF589FB001599F700D1124842F440FB4
:100E3000990BC097860F971FDBCF8F3F910509F065
:100E400004F524303105ECF4FE01E20FF31F83A713
:100E5000D701ED91FC910488F589E02D89E691E0B8
:100E60009E8F8D8F8BA59CA5ADA5BEA58F8F98A3BA
:100E7000A9A3BAA3A601BE01635E7F4FC70109956E
:100E800036C24B815C816D817E8180918C05909111
:100E90008D05A0918E05B0918F05481759076A07F7
:100EA0007B0709F422C20E94D3176F7077277C5FFB
:100EB000CE0109960E949D01813009F013C289E696
:100EC00091E09E8F8D8F8B819C81AD81BE818F8FB4
:100ED00098A3A9A3BAA345E350E0BE01635E7F4F88
:100EE000CE0109960E94AA05892B19F400E010E0B2
:100EF000D7C10E94D31778876F8342E050E0BE01CC
:100F0000695F7F4FCE0109960E94C30181E090E0A6
:100F10009E8F8D8F42E050E0BE01635E7F4FCE0119
:100F200009960E94C30180E091E09E8F8D8F42E080
:100F300050E0BE01635E7F4FCE0109960E94C3015F
:100F40001E8E1D8E42E050E0BE01635E7F4FCE01DB
:100F500009960E94C30142E050E0BE01635E7F4FEC
:100F6000CE0109960E94C30142E050E0BE01635EDB
:100F70007F4FCE0109960E94C3015801D5018C9183
:100F8000882319F1F8015F018191811117C0450192
:100F9000801A910A18141904A4F48FA641E050E0B5
:100FA000BE01615D7F4FCE0109960E94C301A4017D
:100FB000B801CE0109960E94C30103C08E3219F711
:100FC000E6CF85010F5F1F4FD9CF1FA641E050E04C
:100FD000BE01615D7F4FCE0109960E94C30100E012
:100FE00011E01E8F0D8F42E050E0BE01635E7F4F27
:100FF000CE0109960E94C3011E8F0D8F42E050E082
:10100000BE01635E7F4FCE0109960E94C301CE01EF
:1010100009960E94C302892B09F468CF83E0A82EA9
:10102000B12C0E94D3172B013C01CE0109960E94DE
:101030009A0518161906ACF00E94D317DC01CB01F3
:1010400084199509A609B70989389341A105B10505
:1010500008F015C162E370E080E090E00E9499170B
:10106000E4CF4B805C806D807E80BE01675F7F4FE8
:10107000CE014D960E949F008F8D98A1A9A1BAA183
:10108000481659066A067B0609F0FCC0CE0109968F
:101090000E948F00C59709F0F5C0CE0109960E9405
:1010A00090050C970CF4F1C04CE050E0BE01635E7B
:1010B0007F4FCE0109960E9423018F8D98A198271A
:1010C000892798279CAB8BAB4F8158852D8D3E8D02
:1010D0004217530711F497FD07C0CE0109960E94ED
:1010E0000E050CEF1FEFD3C08F709270892B39F073
:1010F000CE0109960E940E050BEF1FEFC8C00BA191
:101100001CA11027012710270115110539F4CE0164
:1011100009960E940E050AEF1FEFB9C0812C912C91
:1011200089A19AA19827892798278816990670F58A
:1011300041E050E0BE01615D7F4FCE0109960E9403
:1011400023018FA5811117C08FA58111F1CFCE0189
:1011500009960E94C500CE0109960E94C500CE01E5
:1011600009960E94C500CE0109960E94C500FFEFB6
:101170008F1A9F0AD5CF8FA59FEF980F9FA788231F
:1011800019F3CE0109960E94C500F5CF812C912C50
:1011900041E050E0BE016B5C7F4FCE0109960E949A
:1011A00023018DA9982F907C69F4882381F08DA963
:1011B0009FEF980F9DAB882351F0CE0109960E94B6
:1011C000C500F5CFCE0109960E94C5001DAA8DA9C4
:1011D0008111DECF42E050E0BE016F5C7F4FCE0157
:1011E00009960E94230142E050E0BE01615D7F4FFD
:1011F000CE0109960E942301CE0109960E94C500E6
:10120000CE0109960E94C500CE0109960E94C50034
:10121000CE0109960E94C50042E050E0BE016D5C1F
:101220007F4FCE0109960E94230189A99AA98115B1
:10123000914029F48FA598A981159140D9F1612C8D
:10124000712C8BA99CA9982789279827681679065D
:1012500040F4CE0109960E94C500BFEF6B1A7B0ACD
:10126000F0CFEFEF8E1A9E0A8016910609F090CF0C
:10127000CE0109960E940E0506EF1FEF08C00FEF82
:101280001FEF05C00EEF1FEF02C00DEF1FEFF1E0E3
:10129000AF1AB10829F00F3F2FEF120709F4C1CEA2
:1012A000CE0109960E94DB010130110509F4D0CD71
:1012B000C8011DC08BA99CA98115944039F0CE01AD
:1012C00009960E940E0507EF1FEFE1CF44E050E0C2
:1012D000BE01655D7F4FCE0109960E94230101E0AA
:1012E00010E0D5CF80E090E002C08EEF9FEFE59652
:1012F0000FB6F894DEBF0FBECDBFDF91CF911F9127
:101300000F91FF90EF90DF90CF90BF90AF909F90A4
:101310008F907F906F905F904F900895EF92FF9223
:101320000F931F93CF93DF93C82FE0904402F12CCB
:1013300084E1E81AF1082091430230E0322F22279D
:10134000E20EF31E48E050E06DE472E0C7018C0F3E
:10135000911D0E94FA00C13131F0C0916102C69521
:10136000C695CC7301C0C8E0D0E0AE0165E572E07F
:101370000E94FA008C01CE15DF0508F04CC0A701D1
:101380004C1B5D0BBE016E5D7F4F809125020E945C
:10139000DC0BEC01219760E08AE00E9411178AE3E0
:1013A0008EBD0DB407FEFDCFA80160E070E06C17A4
:1013B0007D07C8F41EBC0DB407FEFDCF2EB530E08E
:1013C000322F22271EBC0DB407FEFDCF8EB5280F8D
:1013D000311D420F531F4217530710F44F5F5F4FE9
:1013E0006E5F7F4FE4CF8A016C177D0781F41EBCCE
:1013F0000DB407FEFDCF8EB590E0982F88278A01A7
:10140000080F191F0817190710F40F5F1F4F61E02D
:101410008AE00E9411170115110519F0902F812FF4
:1014200002C08FEF9FEFDF91CF911F910F91FF903F
:10143000EF90089544E150E061E472E080E090E0D4
:101440000E94FA00009721F098278927982708958D
:101450008FEF9FEF0895BF92CF92DF92EF92FF92AE
:101460000F931F93CF93DF93A0912D02B0912E0283
:101470005C96CD91DC915D9750912C02209749F5B7
:1014800056FF6FC0EEEDF1E080E090E02081211189
:101490001AC061E1689F9001699F300D1124E90134
:1014A000C252DE4F8061888321523E4F80E1F901B4
:1014B00011928A95E9F7209709F453C05D96DC9361
:1014C000CE935C9706C00196719684309105F1F633
:1014D00048C051FF07C080912F0290913002892BA4
:1014E00009F056C0888187FF0EC08F77888380916E
:1014F0002C02826080932C02E0912D02F0912E024A
:10150000818D8F7E818F80912C02E82FE071BE2E1D
:1015100084FF81C07E01F6E0EF0EF11C6E018BE0CE
:10152000C80ED11CF70180810E942918F701119281
:101530007F01EC15FD05B1F78981882309F46EC0A0
:10154000E0912D02F0912E02848195819F838E83FC
:10155000888180648883E0912D02F0912E02158E9F
:10156000148EE12CF12CB70180913102909132025E
:101570000E94A60DF0923002E0922F02DF91CF91EF
:101580001F910F91FF90EF90DF90CF90BF90089543
:101590008881807609F0A6CF6E01FFEFCF1ADF0AAF
:1015A000F12CF6018081811122C020912F0230910F
:1015B00030022115310519F0C9010E94B619F60152
:1015C00080838823A1F000912F0210913002209196
:1015D000310230913202235332404091230260E0C5
:1015E00070E00E945A1AF4E0FF127CCF0CC0F39412
:1015F0008FEFC81AD80A95E0F912D3CF8091240250
:101600008E7F80932402E0912D02F0912E02818D35
:101610008061818F67CF87FF03C07CCF18829BCF0B
:1016200080FF0FC08E810E942918DE011796FE01EF
:101630003696CE010A962D912193E817F907D9F72E
:101640001A8680912C028C7009F441C0EE81EE2341
:10165000F1F18F8181110FC0EB84FC84E114F1045E
:1016600009F481CF85E0E89FF0011124ED53FD4F8F
:10167000F382E28207C08E2F0E94170C7C01892B17
:1016800009F471CF6091310270913202635372405C
:10169000609322026B01DD24C7018C0D9D1D009714
:1016A00019F00E94B619B82EB0922502BB2009F499
:1016B0005ACF870120E030E04E81B6018B2D0E9489
:1016C0005A1A809124028260809324024CCF888130
:1016D00085FF47CF8E8181110BC01882E0912D02CA
:1016E000F0912E02158E148E80E180932C0239CF5A
:1016F000E0912D02F0912E02818D8061818F31CF9A
:101700006115710579F0FB0101900020E9F731972F
:10171000AF01461B570BDC01ED91FC910280F38178
:10172000E02D099480E090E00895CF92DF92EF924F
:10173000FF920F931F93CF93DF937B018A0169017F
:1017400025E0829FC0011124EC01CD53DD4F68815B
:1017500079816E0D7F1D82E00E94B1180A80DB81C5
:10176000C02DCE19DF09CC16DD0608F4E60160E0D5
:101770008AE00E9411178AE78EBD0DB407FEFDCFE7
:10178000C8018C0F9D1F0817190741F0F80121911E
:101790008F012EBD0DB407FEFDCFF5CF61E08AE0CD
:1017A0000E941117CE01DF91CF911F910F91FF90F1
:1017B000EF90DF90CF900895EF92FF920F931F93D9
:1017C000CF93DF938B017A018F3FD1F025E0829F89
:1017D000E0011124CD53DD4F02C0CFECD3E088816E
:1017E0009981B801680F791F80E00E94B1188A8141
:1017F0009B81801B910BE816F90690F4C70110C07D
:101800008091CF039091D003860F971F811528E018
:10181000920718F3BC016F5F7740CFECD3E0E4CFC1
:10182000DF91CF911F910F91FF90EF900895882342
:10183000A1F09091CC03992381F08F3F29F48091FE
:10184000D1039091D203089595E0899FF00111246E
:10185000ED53FD4F82819381089580E090E00895DB
:101860006091CD037091CE036115710549F061500F
:101870007109611588E0780728F060E070E002C027
:101880006FEF77E060FF02C0615071098CE00C944B
:10189000B11880915102909152028F3F2FEF920721
:1018A00059F420915302309154022F3F3F4F21F4BD
:1018B00086E0E9E2F1E05AC02091BF023091C00217
:1018C000282739274091B7025091B80224233523A5
:1018D000232B91F460915302709154022091C10224
:1018E0003091C202262737274091B9025091BA029F
:1018F00024233523232B89F08091BB029091BC02D5
:101900009093A7028093A6028091BD029091BE029F
:101910009093A9028093A80208C09093A702809395
:10192000A6027093A9026093A8022091A6023091AA
:10193000A7024091A8025091A90280E09BE001C05B
:101940008F5F883071F1989FF0011124ED57FB4FA4
:10195000608171812617370799F762817381461775
:10196000570771F78093DB04349686E0A3E3B2E077
:1019700001900D928A95E1F786E0ECEDF4E0A9E3A1
:10198000B2E001900D928A95E1F788E090E09093A3
:10199000400280933F0280912F02909130020E9678
:1019A00067C08093DB0446E050E06FEF70E083E3B4
:1019B00092E00E94721F86E0E3E5F2E0DF01282F4B
:1019C0001D922A95E9F7ECEDF4E0A9E3B2E0982F37
:1019D00001900D929A95E1F7ECEDF4E0A9E4B2E004
:1019E000982F01900D929A95E1F72091A6023091DF
:1019F000A70230935A02209359022091A8023091F5
:101A0000A90230935C0220935B022091BF023091C7
:101A1000C0023093500220934F022091C1023091B6
:101A2000C202309352022093510220E031E0309301
:101A3000480220934702309342022093410228E05B
:101A400030E030934402209343028093450284E0C7
:101A50008093460288E096E09093400280933F0294
:101A600089E692E090933202809331028AE290E01C
:101A70009093300280932F020895EF92FF920F937C
:101A80001F93CF93DF939C01FB011092DB0490E046
:101A90008BE0983031F1899F70011124E701CD5717
:101AA000DB4F6881798161157105C9F04A815B81DD
:101AB00041155105A1F0D9010D911C9111970617FF
:101AC000170769F412966D917C9113976417750747
:101AD00031F49093DB04D701A957BB4F2AC09F5F15
:101AE000D8CF90E08BE0983091F0899FE0011124ED
:101AF000CD57DB4F48815981452B39F44A815B81B1
:101B0000452B19F49093DB040AC09F5FECCF109231
:101B1000A5021092A4021092DB04C3E8D4E0D9011C
:101B20004D915D916D917C91DE014D935D936D932F
:101B30007D9386E001900D928A95E1F71A86DF91F8
:101B4000CF911F910F91FF90EF9008959C01AB01F1
:101B50007093A3026093A2021616170654F48091A4
:101B6000A0029091A1022817390719F0B9010C942D
:101B7000691F0895BF92CF92DF92EF92FF920F9369
:101B80001F93CF93DF93C0912D02D0912E0284300A
:101B900009F4E9C129E632E03093320220933102A0
:101BA0003093A1022093A002833059F4898D8F7065
:101BB000833009F00EC788899989892B09F009C7F4
:101BC0007EC0823009F07FC080919F028F5F80933A
:101BD0009F02811113C080919E028F5F80939E02AD
:101BE00081110CC080919D028F5F80939D028111B5
:101BF00005C080919C028F5F80939C0210923002FE
:101C000010922F021092A3021092A202898D982F97
:101C10009D7F953041F48A8D8F5F8A8F883709F0D8
:101C2000D8C6198ED6C6882309F4D3C6288939891F
:101C3000232B09F440C09A8D2FEF290F2A8F911181
:101C4000C8C69B8D983031F02FEF280F223048F412
:101C5000953039F4198E80E880932C020E942B0A6B
:101C60006CC5953038F423E0092E01C0220F0A9488
:101C7000EAF701C020E32A8F9F5F9B8F8F7083302C
:101C8000A1F048F4813009F459C3823009F0A1C6AB
:101C90001092620256C3863009F45EC5883009F49A
:101CA0005BC5843009F095C657C584E080932C024B
:101CB0000E942B0A77C58F70833009F08AC688E0AE
:101CC00080932C022FC5853019F5E0912A02F091FE
:101CD0002B0284819581892B09F47BC610922E02F8
:101CE00010922D028DE592E09093320280933102A2
:101CF0009093A1028093A0021092A3021092A202DC
:101D00001092300210922F0288E080932C0229C199
:101D100080914102853409F05CC6E0904302F12CC9
:101D2000FE2CEE2480914402E80EF11C80912F02DB
:101D3000909130028E159F0508F44BC6F092300248
:101D4000E0922F02809147028F7309F042C6D09033
:101D50004802D1103EC6C091BF02D091C002209768
:101D600039F48091C1029091C202892B09F442C0DA
:101D700080914A022091510230915202813151F5F5
:101D80002F3F1FEF310739F4809153029091540295
:101D9000019609F471C08091B7029091B8028095C4
:101DA00090958C2B9D2B28173907A1F48091B902AF
:101DB0009091BA02809590954091C1025091C202D3
:101DC000842B952B40915302509154024817590788
:101DD00009F452C02C173D0709F0FBC520915302AE
:101DE000309154028091C1029091C20228173907A4
:101DF00009F0EFC50E941A0A019609F0EAC5809120
:101E00004A02863009F413C18131B1F1813009F001
:101E1000E0C580915502883009F0DBC5109255026B
:101E20008091570290915802873FBFEF9B0710F0B7
:101E3000099601C0089690935802809357028091AA
:101E40004D0290914E0290935202809351028091E4
:101E50004F02909150029093540280935302D0937A
:101E60004E02C0934D028091C1029091C2029093A4
:101E7000500280934F02B1C5CCE1EC1AF108F09208
:101E80003002E0922F028DE592E09093320280932F
:101E9000310280915B0290915C02892B99F4209130
:101EA000570230915802409155025091560260916C
:101EB0004D0270914E02A0914F02B0915002E4ED9C
:101EC000F3E00CC081E10E948E09019609F081C502
:101ED000E6CF84819581009731F43B9684E0E03031
:101EE000F807B8F324C028173907B9F78681978116
:101EF000009719F04817590781F780819181009761
:101F000029F4C281D381CD2B49F416C08F3F1FEF36
:101F1000910721F4C281D381219671F06817790766
:101F2000E1F682819381A817B907B9F605C0F0934D
:101F30002B02E0932A024DC5F0932B02E0932A0274
:101F400010922E0210922D0282E080932C028DE5D9
:101F500092E09093A1028093A0021092A3021092AB
:101F6000A2020E942A068091A2029091A3020097E9
:101F700009F42FC59C01245E3F4F3093300220931B
:101F80002F023093430220934402E0912A02F09101
:101F90002B0220852093490221E120934A020896D2
:101FA00098278927982790935A0280935902109274
:101FB0005C0210925B02848195819093560280931B
:101FC00055028681978190935802809357028091A1
:101FD000BF029091C00290934E0280934D02809177
:101FE000C1029091C2029093500280934F0280816F
:101FF00091819093520280935102828193819093B8
:1020000054028093530289E692E0909332028093C7
:10201000310281E10E948E0980959095009711F41C
:102020008FEF9FEF90935C0280935B02AFC486E0DA
:102030000E948E09019609F0CCC44091570250913C
:102040005802809155029091560260914D02709114
:102050004E02E0914F02F091500202E014E0E801DC
:10206000298D2223A9F0AC81BD814A175B0781F439
:10207000AE81BF818A179B0759F4A881B9816A177D
:102080007B0731F4AA81BB81EA17FB0709F470C111
:10209000025E1F4FD4E00A371D0709F780916202E4
:1020A0008F738230E1F450939B0240939A0280E058
:1020B000843099F0E82FF0E0EE0FFF1FE658FB4F59
:1020C000208131818F5F4217530791F7109282046C
:1020D00080E0C0E0D0E09EE17CC0809382048091EB
:1020E000620282FD76C484E18093620288E290E01D
:1020F0009093300280932F0280E5809361023091AB
:102100005C028091600280935C0220915B0280916E
:102110005F0280935B0220935F0290915A0280914C
:102120005E0280935A0290935E02809159028093DE
:10213000820440915D024093590280935D023F5FAB
:102140003093600231110DC02F5F20935F02211187
:1021500008C09F5F90935E02911103C08F5F8093D0
:102160005D02809155029091560290939B0280935C
:102170009A022091570230915802309356022093D0
:102180005502909358028093570280914D0290918E
:102190004E02909352028093510280914F0290918F
:1021A000500290935402809353028091BF02909109
:1021B000C00290934E0280934D028091C102909193
:1021C000C2029093500280934F02C4C3473099F0EB
:1021D0008F5F8430F1F0282F30E0929FF001939FC1
:1021E000F00D1124EE5FFB4F418D4111EFCF809335
:1021F0008204EF0110C0209721F0528D4A8D4517BF
:1022000038F7929FE001939FD00D1124CE5FDB4FF2
:10221000DFCF80938204209709F4DBC3D0932E0292
:10222000C0932D0283E08A8F888F1E8A84E08F8B73
:102230001B8E80915702909158029D838C838091D0
:102240005502909156029F838E8380914D0290910A
:102250004E029983888380914F02909150029B8314
:102260008A8381E0898F80919C028C8780919D0276
:102270008D8780919E028E8780919F028F8781E05B
:1022800090E0998B888B80915C028B8780915B02B8
:102290008A8780915A02898780915902888781E0D4
:1022A00090E00E94041D80916102982F907F9135EB
:1022B00008F444C082958F7090E00597880F991FAD
:1022C000880F991F20919902ED2DF0E0E817F9078A
:1022D0008CF5ED5CFD4F26A9211105C0D09282043A
:1022E000109299022BC0213011F4D394EDCF2230FB
:1022F000E1F437A93430C9F4D092820420939902D2
:1023000080AD90E0982F882721AD822B90939B027F
:1023100080939A028130E2E09E0710F080E092E024
:102320009B8B8A8B9D8B8C8B09C037A9332311F033
:10233000D30ECACFD09282042093990280E1809379
:1023400062028091620282608093620282E08093E6
:10235000690294E090936A0280936B0210926C027F
:102360008CE290E09093300280932F0280E6A0C22E
:10237000E80110932E0200932D0210922C029091EE
:102380006202F92FF470BF2E92FF03C0198E80E213
:1023900037C28091610282958F70880F880F809379
:1023A00082046701C81AD108760144E1E41AF108F1
:1023B000F0923002E0922F022F70223021F4892F08
:1023C0008F73823111F1E114F10419F4892F8370B4
:1023D000E1F020915902D80118968C911897281392
:1023E0005DC220915A0219968C911997281356C2F2
:1023F00020915B021A968C911A9728134FC2209154
:102400005C021B968C91281349C294FF63C0F801AB
:10241000608971896115710509F45CC0C8010C9669
:102420000E94CE1C30915D0280912602381352C06A
:1024300020915E028091270228134CC090915F0288
:1024400080912802981346C0809160024091290231
:10245000841340C0D8011C963C931C971D962C9366
:102460001D971E969C931E971F968C931F975B96A5
:102470008C915B97811126C056969C9156975896E1
:102480008C9158975A962C915A97821B292F2695F2
:1024900026952695821B980F56969C93569787FDF6
:1024A000819557962C915797322F36953695231B49
:1024B000820F57968C935797969596959695890F78
:1024C00058968C9381E080932C02F801808D828F46
:1024D000118A108AD80159962C91E22FEF708E2F15
:1024E00090E0FC013197E830F10508F072C2EC5C35
:1024F000FF4F0C945E1F80912C0280FF6AC283E024
:10250000F801818F80E480932C02118A108AE114F3
:10251000F10409F403C182E480932C02C7010E94F4
:10252000041DFCC080912C0280FF76C08091620265
:102530008F73823109F070C080916102982F907F73
:10254000913508F449C082958F7090E00597880F07
:10255000991F880F991F20919902EB2DF0E0E81741
:10256000F907B4F5ED5CFD4F26A9211105C0B09225
:1025700082041092990230C0213011F4B394EDCF4F
:10258000223009F537A93430F1F4B0928204209357
:10259000990280AD90E0982F882721AD822B9093EF
:1025A0009B0280939A028130F2E09F0710F080E056
:1025B00092E0D80153969C938E93529755969C9394
:1025C0008E93549709C037A9332311F0B30EC5CFAA
:1025D000B09282042093990283E0F801818F809168
:1025E0005902808780915A02818780915B0282879D
:1025F00080915C02838781E090E00E94041D82E468
:1026000080932C02D80151961C921E9250971092E2
:10261000300210922F0282C080E280932C020E942E
:102620002B0AE801198E5BCD8091620280FF27C0E2
:1026300024FD25C0F80180899189892B09F0C9C141
:10264000C60143970E94041D80912C02982F90612F
:1026500090932C02EF2819F0826180932C020E9443
:102660002B0A81E090E0D80151969C938E9350976D
:1026700088E059968C9359975B961C926DC085FFA4
:1026800015C08091670290E0982F882730916802EA
:10269000832BAC0147595D4F509332024093310276
:1026A000E81AF90AF0923002E0922F0240912F02CC
:1026B000509130024115510551F024FD08C0909110
:1026C0002C02926090932C02CA010E94041D8091FA
:1026D000630290E0982F882720916402820F911D59
:1026E00090939B0280939A02F801248935892817D8
:1026F000390710F0892B21F430939B0220939A0222
:1027000080919A0290919B02D80153969C938E934C
:10271000529780912C02837009F45BC11092A3023E
:102720001092A2020E942B0A80912C0285FF07C002
:102730001092A3021092A202198E84E1B0C084FF0D
:102740000DC01092A3021092A20281E090E0998B3A
:10275000888B84E0898F1B8E81E1A1C02091A20229
:102760003091A30221153105E1F080FF02C0198AE2
:10277000188A88899989009781F48A899B898217A8
:10278000930720F49093A3028093A2028091A20267
:102790009091A302998B888B04C09093A30280939D
:1027A000A2021B8E8091A0029091A102909332020E
:1027B000809331028091A2029091A302892B59F05B
:1027C00088899989009739F0889690933002809390
:1027D0002F0288E10BC080912C0281FFFAC088E2B1
:1027E00090E09093300280932F0280E18093620208
:1027F0005EC080912C0280FFECC0E801198E80E160
:1028000080932C020E942B0AE4C0E114F10419F019
:10281000C7010E94041D9091620280912C0290FFDA
:102820000EC080FF07C087E0F801818F128E118AE9
:10283000108A1BC086E0D80159968C9316C080FF81
:102840001EC085E0E801898F198A188AC2C0E11488
:10285000F10419F0C7010E94041D8091620280FFFB
:102860000EC087E0F801818F128E81E090E00E9417
:10287000041D80E180932C020E942B0A0FC0EF28D8
:1028800069F4A7C080912C0280FFA3C087E0D80123
:1028900059968C9359975A961C929BC080E18093CD
:1028A000620288E290E09093300280932F0280E5EC
:1028B00080936102888580935D02898580935E02A2
:1028C0008A8580935F028B85809360028C858093DC
:1028D00059028D8580935A028E8580935B028F8585
:1028E00080935C0286E080934A028C819D81909364
:1028F0005602809355028E819F8190935802809357
:1029000057028091BF029091C00290934E02809333
:102910004D028091C1029091C20290935002809327
:102920004F028881998190935202809351028A814B
:102930009B819093540280935302898D84FF05C03C
:10294000109264021092630205C082E080936302D9
:102950001092640280E48093490280912F0290914A
:1029600030029093430280934402109268021092C6
:102970006702109266021092650286E00E948E093C
:1029800080959095909366028093650285E480938C
:102990004102109242021092480210924702809126
:1029A00097029091980201969093980280939702D3
:1029B000909345028093460210924C0210924B0273
:1029C0000E941A0A8095909590934C0280934B0236
:1029D00004C01092300210922F0210922C02DF914C
:1029E000CF911F910F91FF90EF90DF90CF90BF900C
:1029F0000895CF92DF92EF92FF920F931F93CF93A0
:102A0000DF936C017A018B01C0E0D0E0CE15DF05C9
:102A100089F0D8016D918D01D601ED91FC91019065
:102A2000F081E02DC6010995892B11F47E0102C0C9
:102A30002196ECCFC701DF91CF911F910F91FF90AD
:102A4000EF90DF90CF900895FC01538D448D252F9A
:102A500030E0842F90E0821B930B541710F0CF9638
:102A6000089501970895FC01918D828D981761F06A
:102A7000828DDF01A80FB11D5D968C91928D9F5FB5
:102A80009F73928F90E008958FEF9FEF0895FC0160
:102A9000918D828D981731F0828DE80FF11D858D13
:102AA00090E008958FEF9FEF0895FC01918D228DA6
:102AB000892F90E0805C9F4F821B91098F7399272B
:102AC000089587EE94E00E94551521E0892B09F4C2
:102AD00020E0822F0895FC01848DDF01A80FB11D35
:102AE000A35ABF4F2C91848D90E001968F73992744
:102AF000848FA689B7892C93A089B1898C91806431
:102B00008C93938D848D981306C00288F389E02DF1
:102B100080818F7D80830895EF92FF920F931F93A2
:102B2000CF93DF93EC0181E0888F9B8D8C8D981380
:102B300005C0E889F989808185FD24C0F62E0B8DBA
:102B400010E00F5F1F4F0F731127E02E8C8DE812DE
:102B50000CC00FB607FCFACFE889F989808185FFA0
:102B6000F5CFCE010E946B15F1CF8B8DFE01E80FE2
:102B7000F11DE35AFF4FF0820B8FEA89FB898081B8
:102B8000806207C0EE89FF896083E889F9898081C6
:102B90008064808381E090E0DF91CF911F910F915D
:102BA000FF90EF900895CF93DF93EC01888D8823F9
:102BB000C9F0EA89FB89808185FD05C0A889B989AA
:102BC0008C9186FD0FC00FB607FCF5CF808185FF85
:102BD000F2CFA889B9898C9185FFEDCFCE010E94F3
:102BE0006B15E7CFDF91CF91089580E090E0892BBE
:102BF00029F00E94611581110C94000008953FB7DF
:102C0000F8948091AF029091B002A091B102B0917E
:102C1000B20226B5A89B05C02F3F19F00196A11D51
:102C2000B11D3FBFBA2FA92F982F8827820F911D62
:102C3000A11DB11DBC01CD0142E0660F771F881FA9
:102C4000991F4A95D1F708950E94641F4F925F9291
:102C50006F927F92EF92FF920F931F93CF93DF9328
:102C6000CDB7DEB7A1970FB6F894DEBF0FBECDBFCC
:102C70007C01FA01CB0119A2223008F42AE08E016E
:102C80000F5D1F4F422E512C612C712CBF01A301EF
:102C900092010E943C1FF901CA01015011096A30DA
:102CA00014F4605D01C0695CD8016C93232B242B64
:102CB000252B61F7B801C7010E94800BA1960FB6C2
:102CC000F894DEBF0FBECDBFDF91CF911F910F9162
:102CD000FF90EF907F906F905F904F9008958F924C
:102CE0009F92AF92BF92CF92DF92EF92FF920F939B
:102CF0001F93CF93DF937C01EB016C0182E0C80E40
:102D0000D11C4701E5E08E0E911C00E010E0F601B9
:102D100041916F0150E060E070E02AE0CE010E9436
:102D200026165C01E881F9810190F081E02D6EE2C8
:102D3000CE0109958A0D9B1D080F191FC814D904CF
:102D400031F7F701458150E060E070E02AE0CE0104
:102D50000E942616800F911FDF91CF911F910F9136
:102D6000FF90EF90DF90CF90BF90AF909F908F90AB
:102D700008951F920F920FB60F9211242F933F9335
:102D80004F935F936F937F938F939F93AF93BF9373
:102D9000EF93FF9387EE94E00E946B15FF91EF9104
:102DA000BF91AF919F918F917F916F915F914F9163
:102DB0003F912F910F900FBE0F901F9018951F926B
:102DC0000F920FB60F9211242F938F939F93EF932F
:102DD000FF93E091F704F091F8048081E091FD0405
:102DE000F091FE0482FD12C09081809100058F5FFA
:102DF0008F7320910105821751F0E0910005F0E0FA
:102E0000E951FB4F958F8093000501C08081FF91B0
:102E1000EF919F918F912F910F900FBE0F901F9068
:102E2000189590E0FC01EC54FF4F3491FC01E05602
:102E3000FF4F2491FC01E457FF4FE491EE2309F486
:102E40003BC0332339F1333091F038F43130A9F0FD
:102E5000323001F584B58F7D12C0373091F03830B3
:102E6000A1F03430B9F4809180008F7D03C080914F
:102E700080008F77809380000DC084B58F7784BDEC
:102E800009C08091B0008F7703C08091B0008F7D22
:102E90008093B000F0E0EE0FFF1FEE57FF4FA591BB
:102EA000B4918FB7F894EC91611103C020952E2353
:102EB00001C02E2B2C938FBF0895CF93DF9390E00A
:102EC000FC01E056FF4F2491FC01E457FF4F849131
:102ED000882361F190E0880F991FFC01E858FF4FAB
:102EE000C591D491FC01EE57FF4FA591B4916111AA
:102EF00009C09FB7F8948881209582238883EC913C
:102F00002E230BC0623061F49FB7F8943881822F72
:102F1000809583238883EC912E2B2C939FBF06C032
:102F20008FB7F894E8812E2B28838FBFDF91CF9144
:102F300008958F929F92AF92BF92CF92DF92EF92BD
:102F4000FF926B017C010E94FF154B015C01C114D3
:102F5000D104E104F104F1F00E94FF15DC01CB0182
:102F600088199909AA09BB09883E9340A105B105B2
:102F700070F321E0C21AD108E108F10888EE880E4A
:102F800083E0981EA11CB11CC114D104E104F1041A
:102F900019F7DDCFFF90EF90DF90CF90BF90AF900B
:102FA0009F908F9008952FB7F8946091AB02709125
:102FB000AC028091AD029091AE022FBF08951F9296
:102FC0000F920FB60F9211242F933F938F939F93DD
:102FD000AF93BF938091AB029091AC02A091AD02F0
:102FE000B091AE023091AA0223E0230F2D3720F4D6
:102FF0000196A11DB11D05C026E8230F0296A11D53
:10300000B11D2093AA028093AB029093AC02A093CF
:10301000AD02B093AE028091AF029091B002A09148
:10302000B102B091B2020196A11DB11D8093AF0211
:103030009093B002A093B102B093B202BF91AF914E
:103040009F918F913F912F910F900FBE0F901F90E6
:1030500018958823E9F0A3ECB2E025E014969C9142
:10306000149798130DC095E0899FF0011124ED533A
:10307000FD4F848114968C931382128214820895DA
:10308000992331F0299FD0011124AD53BD4FE6CFD4
:1030900008950F931F93CF93DF938C01EB0160E0B2
:1030A0008AE00E9411178AE38EBD0DB407FEFDCFA2
:1030B0000C0F1D1FC017D10739F01EBC0DB407FE41
:1030C000FDCF8EB58993F6CF61E08AE0DF91CF9195
:1030D0001F910F910C9411170F931F93CF93DF93B0
:1030E0001F92CDB7DEB7182F062F60E08AE0498324
:1030F0000E941117802F8F71812B8EBD49810DB4D5
:1031000007FEFDCF4EBD0DB407FEFDCF61E08AE0A6
:103110000F90DF91CF911F910F910C9411171F9376
:10312000CF93DF93182F1076C12FD0E020910001AC
:1031300030E0C217D30789F043E06FE180EA0E94D4
:103140006C18AE0185E0559547958A95E1F76FE1DA
:1031500080E80E946C1810930001DF91CF911F91BD
:1031600008951F93CF93DF9300D0CDB7DEB7182F0C
:1031700069837A830E948F184981612F80E40E94BD
:103180006C1861E0610F7A81472F80E40F900F90F7
:10319000DF91CF911F910C946C181F93CF93DF9305
:1031A0001F92CDB7DEB7182F69830E948F1849810F
:1031B000612F80E40F90DF91CF911F910C946C18D8
:1031C000CF93DF93C82FD62F60E08AE00E941117BB
:1031D0008D2F8F71C82BCEBD0DB407FEFDCF1EBC49
:1031E0000DB407FEFDCFD7FD08C061E08AE00E9464
:1031F00011178EB5DF91CF9108951EBC0DB407FE57
:10320000FDCFF3CFCF93DF931F92CDB7DEB7682FFB
:1032100069830E948F18698180E00F90DF91CF91C0
:103220000C94E018CF93DF93EB01682F84ED0E949C
:10323000CD18BE0186ED0E94B118CFE0D0E08AEE35
:103240000E94021980FF08C06AE070E080E090E010
:103250000E949917219799F7DF91CF910895CF9305
:10326000C62FBC0182E00E94B11860E08AE00E9493
:1032700011178AE78EBD0DB407FEFDCFCEBD0DB48C
:1032800007FEFDCF61E08AE0CF910C941117BC01DD
:1032900080E00E94B11860E08AE00E9411178AE382
:1032A0008EBD0DB407FEFDCF1EBC0DB407FEFDCFD5
:1032B00061E08AE00E9411178EB50895CF92DF92E7
:1032C000EF92FF920F931F93CF93DF936C018B01CB
:1032D0004130510579F4CB010E944719682FC6018E
:1032E000DF91CF911F910F91FF90EF90DF90CF90E2
:1032F0000C942F19EA01C60FD71F7E0181E0E81A4E
:10330000F10880E10E94B118B60184E10E94B11871
:103310000115184038F4E11488E0F80618F07E0131
:1033200088E0F81AB70182E10E94B11840E16FE12C
:1033300080EA0E946C1840E26FE180E80E946C18FD
:103340006FE180E00E94E01885FF07C061E070E057
:1033500080E090E00E949917F3CFDF91CF911F9109
:103360000F91FF90EF90DF90CF900895CF92DF9272
:10337000EF92FF920F931F93CF93DF938C01609195
:10338000C3027091C4026150784EC12C98E1D92ECD
:10339000E3ECF2E080E0C0E0D0E045E094819923E6
:1033A00049F0499F900111242D533D4FD9012D9192
:1033B0003C9101C09B01E080F1802E193F09028001
:1033C000F381E02D2E1B3F0B2017310739F4B5E0B8
:1033D0008B9FE0011124CD53DD4F49C00217130725
:1033E00048F42C153D0530F4489FE0011124CD53DD
:1033F000DD4F6901911107C02097C9F5C3ECD2E0F8
:1034000085E0D82E1EC0499FF0011124ED53FD4FD9
:10341000892FC4CFEA80FB8028813981E20EF31E18
:10342000D89EE0011124CD53DD4F68817981E616E5
:10343000F70639F04A815B81C7010E945E19F98263
:10344000E8828C818111E6CF2091C3023091C402C1
:1034500088819981281B390B8A819B81281B390B14
:103460002150384E2017310710F480E01AC091E047
:10347000E8ECF2E022813381232B29F035969F5F1F
:103480009533C1F7F2CF4A815B8128813981240FBE
:10349000351F31832083138302838C8184839C8333
:1034A000892FDF91CF911F910F91FF90EF90DF90C7
:1034B000CF9008950F931F93DB01E42FA80190E0B4
:1034C000EF3F09F165E0E69FF0011124ED53FD4F58
:1034D00002C0EFECF3E00190F081E02D2E0F3F1FD2
:1034E00065E0689FF001699FF00D1124ED53FD4FD9
:1034F00080819181B9018A0F9B1F0E945E191F91E3
:103500000F910C94300CE091CF03F091D003E20FB7
:10351000F31FE11568E0F607E0F29F012F5F3740E7
:10352000DFCFEF92FF920F931F93CF93DF93CDB72F
:10353000DEB7C254D1090FB6F894DEBF0FBECDBFBF
:103540008C01FB0182819381A481B58123968CAF8C
:103550009DAFAEAFBFAF239721E023962FAF239748
:1035600023964CAD5DAD6EAD7FAD23974BAB5CABA1
:103570006DAB7EAB89AF9AAFABAFBCAF8DA79EA74B
:10358000AFA7B8AB28AB4DA55EA56FA578A94FA393
:1035900058A769A77AA72EAB4BA95CA96DA97EA9EC
:1035A00049A35AA36BA37CA38B8F9C8FAD8FBE8F37
:1035B0002AA74FA158A569A57AA54D8B5E8B6F8B65
:1035C000788F2CA349A15AA16BA17CA14F87588B5E
:1035D000698B7A8B89879A87AB87BC870E94D317C0
:1035E000DC01CB0186509F4FAF4FBF4F8093E20469
:1035F0009093E304A093E404B093E5041092D00305
:103600001092CF031092D2031092D10389E091E07F
:10361000E3ECF2E0DF019C011D9221503040E1F724
:1036200081E098E09093C4028093C30261E08AE055
:103630000E945D1761E08AE00E94111761E08BE053
:103640000E945D1761E08DE00E945D1760E08CE0F4
:103650000E945D1760E08BE00E94111760E08DE032
:103660000E94111780E58CBD8DB581608DBD4FEF37
:1036700060E08FEF0E946C1862E070E080E090E004
:103680000E94991762E370E080E090E00E94991731
:103690001092CE031092CD03B0E1EB2EF12C6DE130
:1036A00080E00E94E01881110BC031E0E31AF108BC
:1036B00039F06AE070E080E090E00E949917EFCF67
:1036C00060E070E088E00E94B11860E070E08CE09B
:1036D0000E94B1186FEF77E08AE00E94B11861EBA9
:1036E00088E30E94CD186FE370E388E20E94B1186E
:1036F00069EF77EF80E30E94B1186DE070E080EC35
:103700000E94B11842E362EC80E80E946C1862E10A
:103710007CE086EC0E94B11862E184EC0E94CD1836
:103720006CED75E08AEC0E94B118F801608184EEBE
:103730000E94CD18D80111966C9185EE0E94CD188B
:10374000F801628182EE0E94CD18D80113966C9127
:1037500083EE0E94CD18F801648180EE0E94CD189E
:10376000D80115966C9181EE0E94CD1860E071E051
:1037700080E10E9412198FE10E948F1840EC6BE1EA
:1037800080E80E946C1844E06FE180E80E946C18A9
:1037900066E774E084E10E94121982E70E94021930
:1037A0008F3F09F0BCC01092CC03D8018C9180935C
:1037B000DC0411968C9111978093DD0412968C9104
:1037C00012978093DE0413968C9113978093DF04F5
:1037D00014968C9114978093E00415968C918093A5
:1037E000E10480E0E82FF0E0EE0FFF1FE658FB4F0A
:1037F000118210828F5F8430A9F780E09EE1989F4C
:10380000F0011124EE5FFB4F118E8F5F8430B9F70A
:1038100080E094E0909301048093000480E09BE0BA
:10382000989FF0011124EC52FC4F158214828F5F97
:103830008430B1F7809382041092DB049BE0809186
:10384000DB04883068F4989FF0011124ED57FB4F9A
:1038500010821182128213828F5F8093DB04EFCF7C
:103860007D894E896F8951E05A8B8F859889A98906
:10387000BA898B839C83AD83BE838B8590E0982F20
:1038800088272C85822B982789279827298530E03F
:10389000322F2227EA852E2B3227232732273093F7
:1038A000C0022093BF029093C2028093C102842F72
:1038B00090E0972B9427892798279093BC028093B8
:1038C000BB02862F90E091609093BE028093BD0270
:1038D0008FEF9FEF9093B8028093B7028FEF90E045
:1038E0009093BA028093B9025E838B819C81AD81F3
:1038F000BE818093860590938705A0938805B09339
:103900008905CE5BDF4F0FB6F894DEBF0FBECDBF8B
:10391000DF91CF911F910F91FF90EF9008958093C9
:10392000CC0343CFCF93DF93BC0187EE94E00E949A
:10393000800BEC016EE871E087EE94E00E94800B52
:103940008C0F9D1FDF91CF910895CF92DF92EF9260
:10395000FF92CF93DF936B017C01E091E704F0913C
:10396000E8040190F081E02D6DE287EE94E0099586
:10397000EC0144275527BA014C195D096E097F09EE
:103980002AE087EE94E00E9426168C0F9D1FDF919F
:10399000CF91FF90EF90DF90CF900895FC012381AD
:1039A000260F20932902A72FBB2792819A0F90936D
:1039B0002802318130932702408140932602E92F6B
:1039C000F0E0EA17FB0748F481E0830F80932702B9
:1039D000811103C04F5F4093260230E077272617FE
:1039E000370788F49F5F9093280291110CC0809153
:1039F00027028F5F80932702811105C080912602E4
:103A00008F5F80932602089520912D0230912E021F
:103A1000BC01C90108960E94CE1CE0912D02F091D4
:103A20002E02A6E2B2E08C91808711968C911197BC
:103A3000818712968C911297828713968C91838737
:103A40000895CF93DF93CDB7DEB72C970FB6F894D8
:103A5000DEBF0FBECDBF789484B5826084BD84B5CF
:103A6000816084BD85B5826085BD85B5816085BD79
:103A700080916E00816080936E0010928100809131
:103A800081008260809381008091810081608093B9
:103A90008100809180008160809380008091B100DE
:103AA00084608093B1008091B00081608093B00009
:103AB00080917A00846080937A0080917A0082609D
:103AC00080937A0080917A00816080937A0080915F
:103AD0007A00806880937A001092C100E091F70428
:103AE000F091F80482E08083E091F304F091F40413
:103AF0001082E091F504F091F6048FEC808310922F
:103B0000FF04E091FB04F091FC0486E08083E091E7
:103B1000F904F091FA04908190619083E091F904A6
:103B2000F091FA04908198609083E091F904F0910B
:103B3000FA04908190689083E091F904F091FA047E
:103B400090819F7D9083EFE2F1E0DE011796982F40
:103B500001900D929A95E1F729E631E03A832983A5
:103B600090EC9B8398EA9C831D828E83BE016F5FDD
:103B70007F4FCE0107960E94911A0E94D317DC0155
:103B8000CB0188579C4EAF4FBF4F8093B3029093A9
:103B9000B402A093B502B093B60289E6E82E81E0A4
:103BA000F82E90ECD92E28EAC22EBB24B3940E94A2
:103BB000D3170091B3021091B4022091B502309155
:103BC000B602DC01CB01801B910BA20BB30B1816C4
:103BD00019061A061B060CF08FC0FA82E982DB82F6
:103BE000CC821D82BE8248E853E1BE016F5F7F4FE9
:103BF00080E995E00E94AA058C0160E871E087EEFB
:103C000094E00E94800B0115110519F489E791E0F9
:103C100002C081E791E00E94921C012B99F40E945E
:103C2000D3170091B3021091B4022091B5023091E4
:103C3000B602DC01CB01801B910BA20BB30BB7FFCB
:103C400047C0CBCF68EA71E080E995E00E94800B25
:103C50008C0161EC71E087EE94E00E94800BA8017A
:103C6000110F660B770B77FF4AC0CB01BA010E9498
:103C7000A51C6EE871E087EE94E00E94800B80E95D
:103C800095E00E94C3028C0161E971E087EE94E047
:103C90000E94800B012BC9F589E791E00E94921CDC
:103CA00080E995E00E949A05892B91F50E94D3172F
:103CB0000091B3021091B4022091B5023091B60286
:103CC000DC01CB01801B910BA20BB30BB7FDE8CF3E
:103CD00080E995E00E94DB010E94D317DC01CB0153
:103CE00088579C4EAF4FBF4F8093B3029093B4025E
:103CF000A093B502B093B6020E94F51558CF2AE002
:103D000087EE94E00E942616B4CF81E791E0C6CFFB
:103D100061ED71E087EE94E00E94800B00E010E01E
:103D200080E995E00E94C500682F87EE94E00E942C
:103D30008C150F5F1F4F80E995E00E9490051816C3
:103D4000190674F36DE971E087EE94E00E94800B30
:103D5000A801110F660B770B2AE087EE94E00E9412
:103D6000261681EA91E00E94921C80E995E00E946B
:103D70000E05AECFCF93DF93E4EAF5E0C9E6D1E0DC
:103D8000D183C0831282138214821582E7EEF4E09D
:103D90001382128288EE93E0A0E0B0E084839583E2
:103DA000A683B78389E391E09183808385EC90E0DB
:103DB0009587848784EC90E09787868780EC90E0F5
:103DC000918B808B81EC90E0938B828B82EC90E0E6
:103DD000958B848B86EC90E0978B868B118E128E60
:103DE000138E148EEAEAF5E0D183C0831282138227
:103DF00014821582E0EBF5E0D183C0831282138236
:103E000014821582E9E0F6E0D183C0831282138226
:103E100014821582E4E8F5E0D183C0831282138214
:103E20001482158285EF95E00E948F06EFE0F6E0A0
:103E3000D183C0831282138214821582EAE8F5E0EE
:103E4000D183C0831282138214821582E5E1F6E0E9
:103E5000D183C0831282138214821582EBE1F6E0D3
:103E6000D183C083128213821482158280E995E087
:103E7000DF91CF910C948F06A1E21A2EAA1BBB1BD7
:103E8000FD010DC0AA1FBB1FEE1FFF1FA217B30726
:103E9000E407F50720F0A21BB30BE40BF50B661F3C
:103EA000771F881F991F1A9469F760957095809500
:103EB00090959B01AC01BD01CF010895EE0FFF1F4E
:103EC0000590F491E02D099481E090E0F8940C9431
:103ED000791FFB01DC0102C001900D92415050405E
:103EE000D8F70895DC0101C06D9341505040E0F7D0
:063EF0000895F894FFCFD5
:103EF600FF00000000E200C30120010E059005C589
:103F0600001A059D01F800DB01AA05A706C3029A5F
:103F160005420523019F008F00FFFFFFFFFFFF0003
:103F26000102030405000000008C15F9142415D3C2
:103F360015551533154715000000002416F91420F1
:103F4600011F01241624162416000000002416F969
:103F56001420011F01000000006F1600000000245D
:103F66001673756363657373006661696C656400D7
:103F7600626567696E5061636B65743A20000D0A6D
:103F860000656E645061636B65743A2000272C20CF
:103F9600002062797465730068656C6C6F20776FBA
:103FA600726C642066726F6D2061726475696E6FE3
:103FB600006279746573207772697474656E3A204D
:0E3FC6000072656365697665643A2027000025
:00000001FF
