:100000000C9465000C948D000C948D000C948D0064
:100010000C948D000C948D000C948D000C948D002C
:100020000C948D000C948D000C948D000C948D001C
:100030000C948D000C948D000C948D000C948D000C
:100040000C94A5170C948D000C941B160C948D0D1C
:100050000C948D000C948D000C948D000C948D00EC
:100060000C948D000C948D00B012C8124013321401
:10007000521472147A142714000000002400270080
:100080002A0000000000250028002B0004040404BE
:100090000404040402020202020203030303030332
:1000A000010204081020408001020408102001020F
:1000B00004081020000000080002010000030407EB
:1000C00000000000000000007C1C11241FBECFEFC8
:1000D000D8E0DEBFCDBF12E0A0E0B1E0E0EBF0E49D
:1000E00002C005900D92A431B107D9F726E0A4E132
:1000F000B2E001C01D92A735B207E1F710E0C5E6F6
:10010000D0E004C02197FE010E940E1FC436D10723
:10011000C9F70E94FE1C0C9456200C940000DC01D0
:100120001C96ED91FC911D97309731F08681978157
:10013000982789279827089580E090E00895CF9325
:10014000DF93FC01EB01AC85BD85109791F0129611
:100150009C91129713968C9113973C9111962C9128
:1001600049E651E05183408332832383948385831E
:1001700008C089E691E09183808312821382148201
:100180001582CF01DF91CF910895CF93DF931F9216
:10019000CDB7DEB7DC01ED91FC91048CF58DE02D3F
:1001A00041E050E0BE016F5F7F4F099518161906B8
:1001B0001CF4898190E002C08FEF9FEF0F90DF91D8
:1001C000CF910895CF93DF931F92CDB7DEB76983A8
:1001D000DC01ED91FC910280F381E02D41E050E0E3
:1001E000BE016F5F7F4F09950F90DF91CF9108950A
:1001F00080E00895FB0141505109460F571FE41755
:10020000F50778F4208130E0322F22276181260F14
:10021000311D820F931F8217930708F401963296BF
:10022000EECFE417F50751F4208130E0322F22277A
:10023000820F931F8217930708F40196089508957B
:1002400080E090E00895DC01ED91FC91048CF58D47
:10025000E02D0994CF93DF93EC018A89882369F01C
:100260009A01AB016E857F850E94201A2E853F85FD
:10027000280F391F3F872E8702C080E090E0DF9172
:10028000CF910895CF93DF93EC018C859D85892BC9
:1002900019F480E090E024C0EA89EE23D1F381E0F4
:1002A0008B8B8E859F8525E0E29FF0011124EC5910
:1002B000FD4F938382838C859D859093C7058093A2
:1002C000C60585E00E94190E8091DC059091DD0540
:1002D000892BF9F2CE010E960E94941581E090E0F0
:1002E000DF91CF9108950F931F93CF93DF93EC018C
:1002F0008B018C859D85892B41F460E070E080E066
:1003000090E00E9421159D878C87EC85FD853097B4
:1003100051F0102701271027158304832E96D287CA
:10032000C18781E001C080E0DF91CF911F910F91E3
:100330000895CF93DF93DC011C96ED91FC911D97FE
:100340003097B1F0EC0115821482128611861D8659
:100350001C8689890E94EF1788890E94EF178A8975
:100360000E94EF172E9686E0FE0111928A95E9F71A
:10037000DF91CF910895FC011382128288EE93E001
:10038000A0E0B0E084839583A683B7838BE091E0FF
:1003900091838083158614863E9686E0DF011D9248
:1003A0008A95E9F70895EF92FF920F931F93CF93E9
:1003B000DF93C82FE090F105F12C84E1E81AF108F1
:1003C0002091F00530E0322F2227E20EF31E48E0A4
:1003D00050E06AEF75E0C7018C0F911D0E94FA0092
:1003E000C13131F0C0910E06C695C695CC7301C0DF
:1003F000C8E0D0E0AE0162E076E00E94FA008C0135
:10040000CE15DF0508F04CC0A7014C1B5D0BBE01EB
:100410006E5D7F4F8091C5050E94671AEC012197A0
:1004200060E08AE00E94D7168AE38EBD0DB407FE15
:10043000FDCFA80160E070E06C177D07C8F41EBC1A
:100440000DB407FEFDCF2EB530E0322F22271EBCA3
:100450000DB407FEFDCF8EB5280F311D420F531F7F
:100460004217530710F44F5F5F4F6E5F7F4FE4CF2B
:100470008A016C177D0781F41EBC0DB407FEFDCF09
:100480008EB590E0982F88278A01080F191F08174A
:10049000190710F40F5F1F4F61E08AE00E94D71622
:1004A0000115110519F0902F812F02C08FEF9FEFDA
:1004B000DF91CF911F910F91FF90EF90089544E14C
:1004C00050E06EEE75E080E090E00E94FA00009748
:1004D00021F098278927982708958FEF9FEF089597
:1004E000DF92EF92FF920F931F93CF93DF93909140
:1004F000C405892F827091FF11C02091C20530E0A0
:1005000040EE55E060E070E08091C5050E94201A41
:100510008091C4058D7F8093C40519C02091DC05AE
:100520003091DD052115310519F0C9010E947C19B2
:100530008093C505882309F476C02091DC053091AD
:10054000DD0540EE55E060E070E00E94201AE09189
:10055000C50580916D03882309F45DC085E0E89F9F
:10056000F0011124EC59FD4FC081D1812197028106
:1005700013810C0F1D1FCE010E940D19D82E882348
:1005800021F060E0CE010E94F518BE0184E00E94D7
:100590007718B80186E00E9477180AE010E040E87A
:1005A0006FE180E80E94321840E86FE180EA0E9423
:1005B00032184AE06CE180EA0E94321848E06FE1AC
:1005C00080E80E94321884E6E82EF12C8CE10E942B
:1005D000C8188A7069F4E114F10461F081E0E81A46
:1005E000F1086AE070E080E090E00E945F17EECFD3
:1005F000EF2849F448E06FE180EA0E943218015088
:10060000110969F608C0012B31F0DD2021F06D2DB4
:10061000CE010E94F5188091C5050E94EF17109237
:10062000C50581E001C080E0DF91CF911F910F915E
:10063000FF90EF90DF900895CF92DF92EF92FF92BC
:100640000F931F93CF93DF9380916D03882309F459
:100650000AC2D091C305D11160C089E30E94C818B5
:1006600090916D03992309F456C0882309F453C06F
:1006700060916E0370916F038B010A5F1F4F01152C
:1006800028E0120710F00F5F174080E00E947718F3
:1006900060E08AE30E94A61890E090936F03809335
:1006A0006E0360E08AE30E94A61820916E033091E9
:1006B0006F03382B30936F0320936E0360E08AE35F
:1006C0000E94A618C82F60E08AE30E94A618F82EA0
:1006D00060E08AE30E94A618E82E40E46EE180E81C
:1006E0000E943218E7FE15C080916E0390916F034F
:1006F0008115984070F410937103009370038C2F50
:1007000090E09F2904979093730380937203DFEF27
:1007100002C00E94BB1AD093C305C091C305CC236D
:1007200009F424C181E08093C4058C2F0E94A21A91
:100730009093DD058093DC05892B09F40BC142E61B
:1007400050E060E070E08C2F0E94671A60EE75E068
:100750000E940F18C091EC05D091ED05C830D1056D
:1007600009F044C08091C3058093C5058091DC05E4
:100770009091DD050E979093DD058093DC05209127
:100780006002309161028091FA059091FB05822709
:100790009327209158023091590282239323892B69
:1007A000C1F420916202309163028091FC05909126
:1007B000FD058227932720915A0230915B02822304
:1007C0009323892B31F466EE75E08AEF95E00E9461
:1007D000FF1B81E00E94190E8091DC059091DD05E0
:1007E000892B09F4B7C00E940B1BB2C0C83046E089
:1007F000D40709F0AFC08091DC059091DD0510921F
:10080000DD051092DC058A9708F49CC08091F40500
:100810009091F505811551E0950729F081159240D9
:1008200009F474C08FC020910606309107068091AC
:100830006002909161022817390709F083C0209166
:100840000806309109068091620290916302281790
:10085000390709F077C066EF75E08CEF95E00E94EC
:10086000FF1B80E092E09093F5058093F40586E00D
:10087000E6EFF5E0A0E0B6E001900D928A95E1F791
:1008800086E0EDE7F4E0A6EFB5E001900D928A95E1
:10089000E1F786E0EDE7F4E0A6EEB5E001900D9219
:1008A0008A95E1F786E0E0E0F6E0A0EEB5E00190A1
:1008B0000D928A95E1F78091FC059091FD0590934A
:1008C0000706809306068091FE059091FF059093A0
:1008D00009068093080680916002909161029093CE
:1008E000FD058093FC0580916202909163029093D4
:1008F000FF058093FE05D093ED05C093EC058AE2D9
:1009000090E09093DD058093DC051CC020910606E5
:100910003091070680916002909161022817390793
:1009200089F4209108063091090680916202909125
:1009300063022817390731F466EF75E08CEF95E014
:100940000E94FF1B8091DC059091DD05892B11F041
:100950000E9470028091C305882341F08091C405F4
:1009600080FF04C00E94BB1A1092C3050E94991711
:100970006B017C018091830490918404A091850493
:10098000B0918604A7019601281B390B4A0B5B0B1B
:10099000DA01C90180959095A095B0958827B7FD9B
:1009A00083959927AA27BB27C82F03EA13E0109342
:1009B000CA050093C905CC2311F082E017C00115C8
:1009C000110519F1D8015C96ED91FC915D97309776
:1009D000D1F085859685A785B089A7019601281B4A
:1009E000390B4A0B5B0B57FD10C083E00E94190EB8
:1009F0008091DC059091DD05892B39F00E940B1B5D
:100A00000E94700202C0F801E4CF025E1F4F34E082
:100A10000B31130761F6CC2331F1D701C6018650A3
:100A20009F4FAF4FBF4F8093830490938404A09354
:100A30008504B0938604C5E7D3E0D093C705C0937F
:100A4000C60585E00E94190E8091DC059091DD05B8
:100A5000892B21F089859A850E9494152B9643E075
:100A6000C13AD40751F7DF91CF911F910F91FF90B9
:100A7000EF90DF90CF900895CF93DF93EC010E9429
:100A80001C0389890E94EF17198ADF91CF9108957D
:100A90000F931F93CF93DF931F92CDB7DEB78C01D7
:100AA0000E941C03F8018189882391F041E050E005
:100AB00060E070E00E94671A8C01BE016F5F7F4F9B
:100AC0000E940F180130110519F4898190E002C0CD
:100AD0008FEF9FEF0F90DF91CF911F910F910895AE
:100AE000CF92DF92EF92FF920F931F93CF93DF93FA
:100AF00000D0CDB7DEB77C016B0149835A830E94D9
:100B00001C03F701818949815A81882351F160E0F2
:100B100070E00E94671A8C01B6010E940F18F7015D
:100B2000D1888D2D0E94A21A0817190731F48D2D36
:100B30000E94EF17F701118A12C085E0D89EF001DC
:100B40001124EC59FD4F80819181800F911F918379
:100B5000808382819381801B910B93838283C80160
:100B600002C080E090E00F900F90DF91CF911F9135
:100B70000F91FF90EF90DF90CF900895CF93DF9388
:100B8000EC010E941C038989DF91CF910C94A21A79
:100B9000CF93DF93EC010E941C03898981110E948D
:100BA000EF178889898B188ADF91CF910C94A21A4C
:100BB000CF92DF92EF92FF920F931F93CF93DF9329
:100BC00000D000D0CDB7DEB78C016B017A010E9456
:100BD0001C03F60182819381A481B581892B8A2B24
:100BE0008B2B41F1E114F10429F1828190E0982FDF
:100BF00088272381822B9827892798279A8389839E
:100C0000248130E0322F22274581242B32272327CD
:100C100032273C832B83D8011C96ED91FC911D97C4
:100C20007E2D6F2D309729F17783668391838083A2
:100C300033832283D8011C968D919C911D97892B1B
:100C4000A9F052968C91811111C086E096E00E9425
:100C50007C19F801828B2AE230E03787268721E071
:100C600090E0811101C020E0822F15C080E090E06B
:100C700012C0CE0101960E942115D8011D969C93A9
:100C80008E931C97009791F39801225F3F4FFC01D0
:100C900032872187CFCF0F900F900F900F90DF9169
:100CA000CF911F910F91FF90EF90DF90CF9008951B
:100CB0004F925F926F927F928F929F92AF92BF926C
:100CC000CF92DF92EF92FF920F931F93CF93DF9318
:100CD000CDB7DEB7E5970FB6F894DEBF0FBECDBF38
:100CE0007C018B016A0199E6A92E91E0B92EBA82A6
:100CF000A9821B821C821D821E82CE0109960E943F
:100D0000BB01BAA6A9A61BA61CA61DA61EA680915D
:100D1000270590912805A0912905B0912A058F8F6C
:100D200098A3A9A3BAA38B839C83AD83BE831886A3
:100D30001F82F801D8018D91882331F08E32D9F3CA
:100D400080538A30C0F34EC080E090E020E030E075
:100D50005AE04191442311F1243031050CF042C096
:100D60004E3281F48F3F910509F0E4F5ABE2B0E03B
:100D7000AC0FBD1FA20FB31F8C932F5F3F4F80E0BE
:100D800090E0E7CF589FB001599F700D1124842F38
:100D9000440F990BC097860F971FDBCF8F3F9105AC
:100DA00009F004F524303105ECF4FE01E20FF31FE5
:100DB00083A7D701ED91FC910488F589E02D89E6A0
:100DC00091E09E8F8D8F8BA59CA5ADA5BEA58F8F25
:100DD00098A3A9A3BAA3A601BE01635E7F4FC70172
:100DE000099536C24B815C816D817E8180912D0594
:100DF00090912E05A0912F05B09130054817590705
:100E00006A077B0709F422C20E9499176F7077273F
:100E10007C5FCE0109960E947301813009F013C2F4
:100E200089E691E09E8F8D8F8B819C81AD81BE8103
:100E30008F8F98A3A9A3BAA345E350E0BE01635ED8
:100E40007F4FCE0109960E94D805892B19F400E046
:100E500010E0D7C10E94991778876F8342E050E075
:100E6000BE01695F7F4FCE0109960E942A0181E091
:100E700090E09E8F8D8F42E050E0BE01635E7F4F19
:100E8000CE0109960E942A0180E091E09E8F8D8F0D
:100E900042E050E0BE01635E7F4FCE0109960E94A2
:100EA0002A011E8E1D8E42E050E0BE01635E7F4F20
:100EB000CE0109960E942A0142E050E0BE01635E25
:100EC0007F4FCE0109960E942A0142E050E0BE0108
:100ED000635E7F4FCE0109960E942A015801D50119
:100EE0008C91882319F1F8015F018191811117C05C
:100EF0004501801A910A18141904A4F48FA641E040
:100F000050E0BE01615D7F4FCE0109960E942A012B
:100F1000A401B801CE0109960E942A0103C08E32B5
:100F200019F7E6CF85010F5F1F4FD9CF1FA641E00C
:100F300050E0BE01615D7F4FCE0109960E942A01FB
:100F400000E011E01E8F0D8F42E050E0BE01635EB5
:100F50007F4FCE0109960E942A011E8F0D8F42E01D
:100F600050E0BE01635E7F4FCE0109960E942A01C8
:100F7000CE0109960E944201892B09F468CF83E0D3
:100F8000A82EB12C0E9499172B013C01CE01099685
:100F90000E94C80518161906ACF00E949917DC01CA
:100FA000CB0184199509A609B70989389341A10590
:100FB000B10508F015C162E370E080E090E00E94A6
:100FC0005F17E4CF4B805C806D807E80BE01675FE1
:100FD0007F4FCE014D960E949F008F8D98A1A9A1B1
:100FE000BAA1481659066A067B0609F0FCC0CE0174
:100FF00009960E948F00C59709F0F5C0CE010996A9
:101000000E94BE050C970CF4F1C04CE050E0BE010C
:10101000635E7F4FCE0109960E9423018F8D98A1B8
:101020009827892798279CAB8BAB4F8158852D8DAE
:101030003E8D4217530711F497FD07C0CE01099664
:101040000E943C050CEF1FEFD3C08F709270892B6C
:1010500039F0CE0109960E943C050BEF1FEFC8C086
:101060000BA11CA11027012710270115110539F428
:10107000CE0109960E943C050AEF1FEFB9C0812CF2
:10108000912C89A19AA198278927982788169906D3
:1010900070F541E050E0BE01615D7F4FCE010996E1
:1010A0000E9423018FA5811117C08FA58111F1CF57
:1010B000CE0109960E94C500CE0109960E94C50086
:1010C000CE0109960E94C500CE0109960E94C50076
:1010D000FFEF8F1A9F0AD5CF8FA59FEF980F9FA77D
:1010E000882319F3CE0109960E94C500F5CF812C03
:1010F000912C41E050E0BE016B5C7F4FCE01099620
:101100000E9423018DA9982F907C69F4882381F097
:101110008DA99FEF980F9DAB882351F0CE010996C2
:101120000E94C500F5CFCE0109960E94C5001DAAF8
:101130008DA98111DECF42E050E0BE016F5C7F4F90
:10114000CE0109960E94230142E050E0BE01615D9C
:101150007F4FCE0109960E942301CE0109960E947D
:10116000C500CE0109960E94C500CE0109960E94D5
:10117000C500CE0109960E94C50042E050E0BE01C4
:101180006D5C7F4FCE0109960E94230189A99AA91F
:101190008115914029F48FA598A981159140D9F125
:1011A000612C712C8BA99CA99827892798276816F0
:1011B000790640F4CE0109960E94C500BFEF6B1A74
:1011C0007B0AF0CFEFEF8E1A9E0A8016910609F087
:1011D00090CFCE0109960E943C0506EF1FEF08C094
:1011E0000FEF1FEF05C00EEF1FEF02C00DEF1FEF57
:1011F000F1E0AF1AB10829F00F3F2FEF120709F401
:10120000C1CECE0109960E9499010130110509F461
:10121000D0CDC8011DC08BA99CA98115944039F07F
:10122000CE0109960E943C0507EF1FEFE1CF44E095
:1012300050E0BE01655D7F4FCE0109960E942301FB
:1012400001E010E0D5CF80E090E002C08EEF9FEF8C
:10125000E5960FB6F894DEBF0FBECDBFDF91CF91FC
:101260001F910F91FF90EF90DF90CF90BF90AF90C4
:101270009F908F907F906F905F904F900895CF9246
:10128000DF92EF92FF920F931F93CF93DF93A09182
:10129000C905B091CA055C96CD91DC915D975091DE
:1012A000C805209749F556FF6FC0E4E1F2E080E001
:1012B00090E0208121111AC061E1689F9001699F2F
:1012C000300D1124E901CC5EDD4F806188832B5EF7
:1012D0003D4F80E1F90111928A95E9F7209709F4D1
:1012E00053C05D96DC93CE935C9706C001967196D1
:1012F00084309105F1F648C051FF07C08091DC05AC
:101300009091DD05892B09F055C0888187FF0EC0BB
:101310008F7788838091C80582608093C805E091AB
:10132000C905F091CA05818D8F7E818F8091C80596
:10133000982F9071D92E84FF80C07E01E6E0EE0EDA
:10134000F11C6E01FBE0CF0ED11CF70180810E94E1
:10135000EF17F70111927F01EC15FD05B1F78981B7
:10136000882309F46DC0E091C905F091CA05848114
:1013700095819F838E83888180648883E091C905ED
:10138000F091CA05158E148EE12CF12CB7018091D5
:10139000DE059091DF050E94681CF092DD05E09269
:1013A000DC05DF91CF911F910F91FF90EF90DF90BF
:1013B000CF9008958881807609F0A7CF6E01FFEF66
:1013C000CF1ADF0AF12CF6018081811122C0209111
:1013D000DC053091DD052115310519F0C9010E94A8
:1013E0007C19F60180838823A1F00091DC0510911F
:1013F000DD052091DE053091DF05205E354040910E
:10140000C30560E070E00E94D41AF4E0FF127DCFC3
:101410000CC0F3942FEFC21AD20A35E0F312D3CFE7
:101420008091C4058E7F8093C405E091C905F09139
:10143000CA05818D8061818F68CF87FF03C07DCF12
:1014400018829CCF80FF0FC08E810E94EF17DE01B3
:101450001796FE013696CE010A962D912193E81734
:10146000F907D9F71A868091C8058C7009F443C032
:10147000EE81EE2309F43FC08F8181110FC0EB8410
:10148000FC84E114F10409F481CF25E0E29FF0012E
:101490001124EC59FD4FF382E28207C08E2F0E9487
:1014A000A21A7C01892B09F471CF8091DE059091FD
:1014B000DF05805E95408093C205F701E80FF11DBE
:1014C000CF01EF2B19F00E947C19D82ED092C505C0
:1014D000DD2009F45BCF6091C20570E0870120E058
:1014E00030E04E818D2D0E94D41A8091C405826017
:1014F0008093C4054BCF888185FF46CF8E818111B3
:101500000BC01882E091C905F091CA05158E148EA2
:1015100080E18093C80538CFE091C905F091CA05F4
:10152000818D8061818F30CFCF92DF92EF92FF92D9
:101530000F931F93CF93DF936C017A018B01C0E06F
:10154000D0E0CE15DF0589F0D8016D918D01D6016F
:10155000ED91FC910190F081E02DC6010995892B58
:1015600011F47E0102C02196ECCFC701DF91CF912B
:101570001F910F91FF90EF90DF90CF90089588E832
:1015800094E00E94E01521E0892B09F420E0822FED
:101590000895EF92FF920F931F93CF93DF93CDB7F0
:1015A000DEB7C254D1090FB6F894DEBF0FBECDBF6F
:1015B0008C01FB0182819381A481B58123968CAF3C
:1015C0009DAFAEAFBFAF239721E023962FAF2397F8
:1015D00023964CAD5DAD6EAD7FAD23974BAB5CAB51
:1015E0006DAB7EAB89AF9AAFABAFBCAF8DA79EA7FB
:1015F000AFA7B8AB28AB4DA55EA56FA578A94FA343
:1016000058A769A77AA72EAB4BA95CA96DA97EA99B
:1016100049A35AA36BA37CA38B8F9C8FAD8FBE8FE6
:101620002AA74FA158A569A57AA54D8B5E8B6F8B14
:10163000788F2CA349A15AA16BA17CA14F87588B0D
:10164000698B7A8B89879A87AB87BC870E949917A9
:10165000DC01CB0186509F4FAF4FBF4F8093830477
:1016600090938404A0938504B09386041092710330
:1016700010927003109273031092720389E091E04C
:10168000E4E6F2E0DF019C011D9221503040E1F7D9
:1016900081E098E0909365028093640261E08AE0C3
:1016A0000E94231761E08AE00E94D71661E08BE078
:1016B0000E94231761E08DE00E94231760E08CE018
:1016C0000E94231760E08BE00E94D71660E08DE057
:1016D0000E94D71680E58CBD8DB581608DBD4FEF22
:1016E00060E08FEF0E94321862E070E080E090E0EE
:1016F0000E945F1762E370E080E090E00E945F1755
:1017000010926F0310926E03B0E1EB2EF12C6DE19D
:1017100080E00E94A61881110BC031E0E31AF108A5
:1017200039F06AE070E080E090E00E945F17EFCF50
:1017300060E070E088E00E94771860E070E08CE084
:101740000E9477186FEF77E08AE00E94771861EBCC
:1017500088E30E9493186FE370E388E20E94771891
:1017600069EF77EF80E30E9477186DE070E080EC1E
:101770000E94771842E362EC80E80E94321862E12E
:101780007CE086EC0E94771862E184EC0E9493185A
:101790006CED75E08AEC0E947718F801608184EEA8
:1017A0000E949318D80111966C9185EE0E949318AF
:1017B000F801628182EE0E949318D80113966C9111
:1017C00083EE0E949318F801648180EE0E949318C2
:1017D000D80115966C9181EE0E94931860E071E03B
:1017E00080E10E94D8188FE10E94551840EC6BE10F
:1017F00080E80E94321844E06FE180E80E943218CD
:1018000066E774E084E10E94D81882E70E94C81855
:101810008F3F09F0BCC010926D03D8018C9180936A
:101820007D0411968C91119780937E0412968C9171
:10183000129780937F0413968C9113978093800462
:1018400014968C9114978093810415968C918093B3
:10185000820480E0E82FF0E0EE0FFF1FE55EFB4F13
:10186000118210828F5F8430A9F780E09EE1989FFB
:10187000F0011124ED55FC4F118E8F5F8430B9F7C4
:1018800080E094E09093A2038093A10380E09BE02A
:10189000989FF0011124EB58FC4F158214828F5F42
:1018A0008430B1F78093230410927C049BE08091F4
:1018B0007C04883068F4989FF0011124EC5DFB4FA4
:1018C00010821182128213828F5F80937C04EFCF8B
:1018D0007D894E896F8951E05A8B8F859889A989B6
:1018E000BA898B839C83AD83BE838B8590E0982FD0
:1018F00088272C85822B982789279827298530E0EF
:10190000322F2227EA852E2B3227232732273093A6
:101910006102209360029093630280936202842F9D
:1019200090E0972B94278927982790935D028093C6
:101930005C02862F90E0916090935F0280935E023C
:101940008FEF9FEF90935902809358028FEF90E0B2
:1019500090935B0280935A025E838B819C81AD8160
:10196000BE818093270590932805A0932905B09305
:101970002A05CE5BDF4F0FB6F894DEBF0FBECDBF9A
:10198000DF91CF911F910F91FF90EF900895809379
:101990006D0343CF0E9441206115710579F0FB0171
:1019A00001900020E9F73197AF01461B570BDC018E
:1019B000ED91FC910280F381E02D099480E090E0AC
:1019C0000895BC0188E894E00C94CC0C4F925F928F
:1019D0006F927F92EF92FF920F931F93CF93DF93BB
:1019E000CDB7DEB7A1970FB6F894DEBF0FBECDBF5F
:1019F0007C01FA01CB0119A2223008F42AE08E0101
:101A00000F5D1F4F422E512C612C712CBF01A30181
:101A100092010E94EC1EF901CA01015011096A30BD
:101A200014F4605D01C0695CD8016C93232B242BF6
:101A3000252B61F7B801C7010E94CC0CA1960FB607
:101A4000F894DEBF0FBECDBFDF91CF911F910F91F4
:101A5000FF90EF907F906F905F904F9008958F92DE
:101A60009F92AF92BF92CF92DF92EF92FF920F932D
:101A70001F93CF93DF937C01EB016C0182E0C80ED2
:101A8000D11C4701E5E08E0E911C00E010E0F6014C
:101A900041916F0150E060E070E02AE0CE010E94C9
:101AA000E60C5C01E881F9810190F081E02D6EE2A5
:101AB000CE0109958A0D9B1D080F191FC814D90462
:101AC00031F7F701458150E060E070E02AE0CE0197
:101AD0000E94E60C800F911FDF91CF911F910F9113
:101AE000FF90EF90DF90CF90BF90AF909F908F903E
:101AF00008950F931F93CF93DF93EC010E94CC0CBA
:101B00008C0167E771E0CE010E94CC0C800F911F21
:101B1000DF91CF911F910F9108951F920F920FB6F1
:101B20000F9211242F933F934F935F936F937F9363
:101B30008F939F93AF93BF93EF93FF9388E894E0C5
:101B40000E944D16FF91EF91BF91AF919F918F91A0
:101B50007F916F915F914F913F912F910F900FBEA9
:101B60000F901F901895EF92FF920F931F93CF93B2
:101B7000DF93E091C605F091C705C185D285209716
:101B800009F450C0E090C805E1FE31C0FA80F110C0
:101B90002EC08091020690910306978386838091E0
:101BA000FA059091FB05918380838091FC059091CB
:101BB000FD059383828380910606909107069827FE
:101BC00089279827089719F00E947C19F82EFA8225
:101BD000FF2069F08F2D0E94A21A8C012AE230E0CA
:101BE0004091C30560E070E08F2D0E94D41AE3FE9F
:101BF00019C08D818823B1F08C818093C5058AE25C
:101C00008093C205688179816A5271098091DE05ED
:101C10009091DF05DF91CF911F910F91FF90EF9091
:101C20000C94681CDF91CF911F910F91FF90EF9062
:101C30000895EF92FF921F93CF93DF93C091C90550
:101C4000D091CA05843009F4ECC126E136E0309326
:101C5000DF052093DE053093D9052093D805833026
:101C600059F4898D8F70833009F0DFC6888999898E
:101C7000892B09F0DAC67EC0823009F07FC08091DE
:101C8000D7058F5F8093D705811113C08091D6054A
:101C90008F5F8093D60581110CC08091D5058F5F31
:101CA0008093D505811105C08091D4058F5F809305
:101CB000D4051092DD051092DC051092DB05109220
:101CC000DA05898D982F9D7F953041F48A8D8F5F3D
:101CD0008A8F883709F0A9C6198EA7C6882309F408
:101CE000A4C628893989232B09F440C09A8D2FEF87
:101CF000290F2A8F911199C69B8D983031F02FEFC3
:101D0000280F223048F4953039F4198E80E88093FA
:101D1000C8050E943F0942C5953038F423E0092EDA
:101D200001C0220F0A94EAF701C020E32A8F9F5FC7
:101D30009B8F8F708330A1F048F4813009F45AC32F
:101D4000823009F072C610920F0657C3863009F42C
:101D5000C1C4883009F4BEC4843009F066C6BAC470
:101D600084E08093C8050E943F094AC58F70833084
:101D700009F05BC688E08093C80505C5853019F574
:101D8000E091C605F091C70584819581892B09F4FE
:101D90004CC61092CA051092C9058AE096E090934D
:101DA000DF058093DE059093D9058093D8051092C6
:101DB000DB051092DA051092DD051092DC0588E053
:101DC0008093C8052CC18091EE05853409F02DC69D
:101DD000C091F005D0E0DC2FCC278091F105C80F31
:101DE000D11D8091DC059091DD058C179D0708F4CD
:101DF0001CC6D093DD05C093DC058091F4058F737C
:101E000009F013C61091F50511110FC6E09060029C
:101E1000F0906102E114F10439F480916202909132
:101E20006302892B09F442C08091F7052091FE05D9
:101E30003091FF05813151F52F3F4FEF340739F4D1
:101E40008091000690910106019609F471C080917D
:101E5000580290915902809590958E299F292817B4
:101E60003907A1F480915A0290915B028095909578
:101E70004091620250916302842B952B40910006A1
:101E8000509101064817590709F452C02E153F0515
:101E900009F0CBC5209100063091010680916202C5
:101EA000909163022817390709F0BFC50E945F02AD
:101EB000019609F0BAC58091F705863009F415C17D
:101EC0008131B1F1813009F0B0C5809102068830CE
:101ED00009F0ABC5109202068091040690910506A8
:101EE000873FCFEF9C0710F0099601C008969093AA
:101EF0000506809304068091FA059091FB05909366
:101F0000FF058093FE058091FC059091FD0590935F
:101F1000010680930006F092FB05E092FA0580919D
:101F20006202909163029093FD058093FC0581C548
:101F30006C97D093DD05C093DC058AE096E0909322
:101F4000DF058093DE058091080690910906892BB4
:101F500099F42091040630910506409102065091B3
:101F600003066091FA057091FB05A091FC05B09104
:101F7000FD05E5E7F3E00CC081E10E94D301019685
:101F800009F053C5E6CF84819581009731F43B96E3
:101F900083E0E13AF807B8F324C028173907B9F706
:101FA00086819781009719F04817590781F780813A
:101FB0009181009729F4C281D381CD2B49F416C0B9
:101FC0008F3FCFEF9C0721F4C281D381219671F01E
:101FD00068177907E1F682819381A817B907B9F6E6
:101FE00005C0F093C705E093C6051FC5F093C7056C
:101FF000E093C6051092CA051092C90582E080934D
:10200000C8058AE096E09093DF058093DE05909303
:10201000D9058093D8051092DB051092DA050E944D
:10202000B30D8091DA059091DB05009709F4FDC4AA
:102030009C01245E3F4F3093DD052093DC053093F7
:10204000F0052093F105E091C605F091C7052085C4
:102050002093F60521E12093F70508969827892714
:10206000982790930706809306061092090610920F
:1020700008068481958190930306809302068681E9
:102080009781909305068093040680916002909159
:1020900061029093FB058093FA0580916202909112
:1020A00063029093FD058093FC058081918190935C
:1020B000FF058093FE0582819381909301068093B2
:1020C000000686E196E09093DF058093DE0581E1CE
:1020D0000E94D30180959095009711F48FEF9FEFA8
:1020E00090930906809308067DC486E00E94D30180
:1020F000019609F09AC4209104063091050680915A
:102100000206909103066091FA057091FB05E0913B
:10211000FC05F091FD05C3EAD3E0498D4423A9F005
:10212000AC81BD812A173B0781F4AE81BF818A173C
:102130009B0759F4A881B9816A177B0731F4AA81FA
:10214000BB81EA17FB0709F46FC16E9644E0CB31FF
:10215000D40719F780910F068F738230E1F4309322
:10216000D3052093D20580E0843099F0E82FF0E089
:10217000EE0FFF1FE55EFB4F408151818F5F2417FB
:10218000350791F71092230480E0C0E0D0E09EE193
:102190007CC08093230480910F0682FD46C484E1B5
:1021A00080930F0688E290E09093DD058093DC0534
:1021B00080E580930E063091090680910D0680938C
:1021C00009062091080680910C068093080620934A
:1021D0000C069091070680910B068093070690935A
:1021E0000B06809106068093230440910A064093D3
:1021F000060680930A063F5F30930D0631110DC02D
:102200002F5F20930C06211108C09F5F90930B064F
:10221000911103C08F5F80930A068091020690910E
:1022200003069093D3058093D20520910406309144
:1022300005063093030620930206909305068093CB
:1022400004068091FA059091FB059093FF05809319
:10225000FE058091FC059091FD0590930106809309
:10226000000680916002909161029093FB0580933B
:10227000FA0580916202909163029093FD0580932C
:10228000FC0594C3473099F08F5F8430F1F0282F1C
:1022900030E0929FF001939FF00D1124ED55FC4F1B
:1022A000418D4111EFCF80932304EF0110C020979F
:1022B00021F0528D4A8D451738F7929FE001939F88
:1022C000D00D1124CD55DC4FDFCF80932304209710
:1022D00009F4ABC3D093CA05C093C90583E08A8FC4
:1022E000888F1E8A84E08F8B1B8E809104069091CC
:1022F00005069D838C8380910206909103069F833F
:102300008E838091FA059091FB0599838883809153
:10231000FC059091FD059B838A8381E0898F8091E4
:10232000D4058C878091D5058D878091D6058E87C1
:102330008091D7058F8781E090E0998B888B809181
:1023400009068B87809108068A878091070689870E
:1023500080910606888781E090E00E94D41E8091DB
:102360000E06982F907F913508F444C082958F70A7
:1023700090E00597880F991F880F991F2091D1052C
:10238000E12FF0E0E817F9078CF5E052FA4F26A9A3
:10239000211105C0109323041092D1052BC02130C8
:1023A00011F41F5FEDCF2230E1F437A93430C9F4C6
:1023B000109323042093D10580AD90E0982F8827B7
:1023C00021AD822B9093D3058093D205813062E0BA
:1023D000960710F080E092E09B8B8A8B9D8B8C8B14
:1023E00009C037A9332311F0130FCACF1093230468
:1023F0002093D10580E180930F0680910F068260C3
:1024000080930F0682E08093160694E0909317065F
:1024100080931806109219068CE290E09093DD05E7
:102420008093DC0580E670C2D093CA05C093C905CD
:102430001092C80530910F06132F147032FF03C09D
:10244000198E80E20AC220910E0622952F70220F6B
:10245000220F209323048091DC059091DD054497A1
:10246000821B91099093DD058093DC054F7042300B
:1024700021F4232F2F732231C9F0892B19F4832FD4
:102480008370A1F0909106068885981333C29091CD
:102490000706898598132EC2909108068A8598139D
:1024A00029C2909109068B85981324C234FF49C034
:1024B000688979896115710509F443C0CE010C96CC
:1024C0000E949E1E30910A068091CD05381339C0B6
:1024D00020910B068091CE05281333C090910C06F5
:1024E0008091CF0598132DC080910D064091D005A5
:1024F000841327C03C872D879E878F878B8D811102
:1025000019C09E89888D2A8D821B292F2695269594
:102510002695821B980F9E8B87FD81952F89322FE0
:1025200036953695231B820F8F8B969596959695AB
:10253000890F888F81E08093C805888D8A8F198ADA
:10254000188A298DE22FEF708E2F90E0FC013197D1
:10255000E830F10508F069C2EC5CFF4F0C940E1FE7
:102560008091C80580FF61C283E0898F80E48093F9
:10257000C805198A188A8091DC059091DD050097BD
:1025800009F4FDC022E42093C8050E94D41EF7C0C0
:102590008091C80580FF6DC080910F068F738231D6
:1025A00009F067C080910E06982F907F913508F44E
:1025B00044C082958F7090E00597880F991F880F0F
:1025C000991F2091D105E12FF0E0E817F9078CF56C
:1025D000E052FA4F26A9211105C01093230410924E
:1025E000D1052BC0213011F41F5FEDCF2230E1F473
:1025F00037A93430C9F4109323042093D10580AD5A
:1026000090E0982F882721AD822B9093D30580935B
:10261000D205813072E0970710F080E092E09B8B4A
:102620008A8B9D8B8C8B09C037A9332311F0130F34
:10263000CACF109323042093D10583E0898F809122
:1026400006068887809107068987809108068A8711
:10265000809109068B8781E090E00E94D41E82E47D
:102660008093C805198A188A1092DD051092DC053E
:1026700086C080E28093C8050E943F09198E8BCDE9
:1026800080910F0680FF28C024FD26C08889998983
:10269000892B09F0CAC18091DC059091DD05019676
:1026A0000E94D41E8091C805982F90619093C80510
:1026B0002091DC053091DD05232B19F08261809398
:1026C000C8050E943F0981E090E0998B888B88E0E3
:1026D000898F1B8E81E10FC185FF1DC0809114067B
:1026E00090E0982F882730911506832B4091DE05C6
:1026F0005091DF05480F591F5093DF054093DE05C9
:102700004091DC055091DD05BA01681B790B70938F
:10271000DD056093DC054091DC055091DD05411538
:10272000510551F024FD08C09091C8059260909326
:10273000C805CA010E94D41E8091100690E0982F0F
:10274000882720911106820F911D9093D3058093C5
:10275000D2052C893D892817390710F0892B21F4DF
:102760003093D3052093D2058091D2059091D30563
:102770009B8B8A8B8091C805837009F456C1109297
:10278000DB051092DA050E943F098091C80585FF9C
:1027900007C01092DB051092DA05198E84E1ABC0F8
:1027A00084FF0AC01092DB051092DA0581E090E008
:1027B000998B888B84E08CCF2091DA053091DB05F2
:1027C00021153105E1F080FF02C0198A188A888935
:1027D0009989009781F48A899B898217930720F44D
:1027E0009093DB058093DA058091DA059091DB0503
:1027F000998B888B04C09093DB058093DA051B8E40
:102800008091D8059091D9059093DF058093DE05DE
:102810008091DA059091DB05892B59F08889998997
:10282000009739F088969093DD058093DC0588E168
:102830000BC08091C80581FFF8C088E290E09093BA
:10284000DD058093DC0580E180930F065CC08091FC
:10285000C80580FFEAC0198E80E18093C8050E94F8
:102860003F09E3C08091DC059091DD05009711F0F0
:102870000E94D41E90910F068091C80590FF0BC056
:1028800080FF06C087E0898F1A8E198A188A19C0BE
:1028900086E0898F16C080FF1EC085E0898F198A67
:1028A000188AC3C08091DC059091DD05009711F076
:1028B0000E94D41E80910F0680FF0DC087E0898F93
:1028C0001A8E81E090E00E94D41E80E18093C805BA
:1028D0000E943F090FC08091DC059091DD05892B96
:1028E00049F4A3C08091C80580FF9FC087E0898F0D
:1028F0001A8E9BC080E180930F0688E290E090934F
:10290000DD058093DC0580E580930E068885809345
:102910000A06898580930B068A8580930C068B8531
:1029200080930D068C85809306068D85809307061F
:102930008E85809308068F858093090686E08093B4
:10294000F7058C819D8190930306809302068E810A
:102950009F81909305068093040680916002909178
:1029600061029093FB058093FA0580916202909139
:1029700063029093FD058093FC0588819981909373
:10298000FF058093FE058A819B81909301068093C9
:102990000006898D84FF05C0109211061092100662
:1029A00005C082E0809310061092110680E48093A7
:1029B000F6058091DC059091DD059093F0058093FC
:1029C000F10510921506109214061092130610923B
:1029D000120686E00E94D30180959095909313068D
:1029E0008093120685E48093EE051092EF05109215
:1029F000F5051092F4058091CB059091CC050196D8
:102A00009093CC058093CB059093F2058093F305CA
:102A10001092F9051092F8050E945F02809590953A
:102A20009093F9058093F80504C01092DD0510928B
:102A3000DC051092C805DF91CF911F91FF90EF90B8
:102A400008950F931F93CF93DF93DC012091A1038F
:102A50003091A2032F5F3F4F21158DE7380710F00B
:102A600020E030E1522F432FE5E7F3E080E08430AF
:102A700041F0C481D5818F5F3B96C417D507B9F764
:102A8000E9CF3093A2032093A10390E08BE0943030
:102A9000D1F0292F30E041E0490F829FF001839F60
:102AA000F00D1124EB58FC4FEF01249604811581A1
:102AB000012B39F490932304309741F480E090E0A7
:102AC0002EC0942FE4CF90932304F8CF8091A103DC
:102AD0009091A203982789279827998388837783E1
:102AE0006683109729F410821182128213820BC020
:102AF0008D919C9111979183808312968D919C91D9
:102B00001397938382838BE0829FD001839FB00DC4
:102B10001124AB58BC4F80E418968C93CF01DF9101
:102B2000CF911F910F910895CF93DF93EC010E94F5
:102B30000B1B2091DC053091DD059091C4052A32F4
:102B4000310521F41092C5059D7F03C01D821C82B2
:102B500092609093C405DF91CF910C947002FC01B8
:102B6000538D448D252F30E0842F90E0821B930BF2
:102B7000541710F0CF96089501970895FC01918D98
:102B8000828D981761F0828DDF01A80FB11D5D96CF
:102B90008C91928D9F5F9F73928F90E008958FEF3D
:102BA0009FEF0895FC01918D828D981731F0828DF1
:102BB000E80FF11D858D90E008958FEF9FEF089548
:102BC000FC01918D228D892F90E0805C9F4F821BAC
:102BD00091098F739927089580E090E0892B29F05F
:102BE0000E94BF0A81110C94000008953FB7F89429
:102BF00080914F0690915006A0915106B0915206D7
:102C000026B5A89B05C02F3F19F00196A11DB11D47
:102C10003FBFBA2FA92F982F8827820F911DA11D82
:102C2000B11DBC01CD0142E0660F771F881F991FBF
:102C30004A95D1F708951F920F920FB60F92112463
:102C40002F938F939F93EF93FF93E0919804F091CC
:102C500099048081E0919E04F0919F0482FD12C04E
:102C600090818091A1048F5F8F732091A2048217BD
:102C700051F0E091A104F0E0E857FB4F958F80936D
:102C8000A10401C08081FF91EF919F918F912F91BD
:102C90000F900FBE0F901F901895FC01848DDF01DF
:102CA000A80FB11DA35ABF4F2C91848D90E00196BF
:102CB0008F739927848FA689B7892C93A089B189AE
:102CC0008C9180648C93938D848D981306C00288B8
:102CD000F389E02D80818F7D80830895EF92FF92AC
:102CE0000F931F93CF93DF93EC0181E0888F9B8D2F
:102CF0008C8D981305C0E889F989808185FD24C0F1
:102D0000F62E0B8D10E00F5F1F4F0F731127E02E73
:102D10008C8DE8120CC00FB607FCFACFE889F98950
:102D2000808185FFF5CFCE010E944D16F1CF8B8DAE
:102D3000FE01E80FF11DE35AFF4FF0820B8FEA8985
:102D4000FB898081806207C0EE89FF896083E88902
:102D5000F98980818064808381E090E0DF91CF9168
:102D60001F910F91FF90EF900895CF93DF93EC01A7
:102D7000888D8823C9F0EA89FB89808185FD05C09B
:102D8000A889B9898C9186FD0FC00FB607FCF5CFD5
:102D9000808185FFF2CFA889B9898C9185FFEDCF1D
:102DA000CE010E944D16E7CFDF91CF91089590E0BC
:102DB000FC01EC54FF4F3491FC01E056FF4F24918D
:102DC000FC01E457FF4FE491EE2309F43BC03323A9
:102DD00039F1333091F038F43130A9F0323001F567
:102DE00084B58F7D12C0373091F03830A1F0343087
:102DF000B9F4809180008F7D03C0809180008F772F
:102E0000809380000DC084B58F7784BD09C0809108
:102E1000B0008F7703C08091B0008F7D8093B000A9
:102E2000F0E0EE0FFF1FEE57FF4FA591B4918FB763
:102E3000F894EC91611103C020952E2301C02E2B34
:102E40002C938FBF0895CF93DF9390E0FC01E05661
:102E5000FF4F2491FC01E457FF4F8491882361F1D7
:102E600090E0880F991FFC01E858FF4FC591D4915D
:102E7000FC01EE57FF4FA591B491611109C09FB7B6
:102E8000F8948881209582238883EC912E230BC0AF
:102E9000623061F49FB7F8943881822F8095832344
:102EA0008883EC912E2B2C939FBF06C08FB7F8948C
:102EB000E8812E2B28838FBFDF91CF9108958F92C9
:102EC0009F92AF92BF92CF92DF92EF92FF926B01EF
:102ED0007C010E94F6154B015C01C114D104E10490
:102EE000F104F1F00E94F615DC01CB018819990973
:102EF000AA09BB09883E9340A105B10570F321E002
:102F0000C21AD108E108F10888EE880E83E0981E05
:102F1000A11CB11CC114D104E104F10419F7DDCFE7
:102F2000FF90EF90DF90CF90BF90AF909F908F90E9
:102F300008952FB7F89460914B0670914C068091DC
:102F40004D0690914E062FBF08951F920F920FB617
:102F50000F9211242F933F938F939F93AF93BF931F
:102F600080914B0690914C06A0914D06B0914E0673
:102F700030914A0623E0230F2D3720F40196A11D3E
:102F8000B11D05C026E8230F0296A11DB11D209397
:102F90004A0680934B0690934C06A0934D06B0933F
:102FA0004E0680914F0690915006A0915106B09127
:102FB00052060196A11DB11D80934F0690935006B5
:102FC000A0935106B0935206BF91AF919F918F91FC
:102FD0003F912F910F900FBE0F901F90189588234F
:102FE000E9F0A4E6B2E025E014969C9114979813BA
:102FF0000DC095E0899FF0011124EC59FD4F8481AB
:1030000014968C931382128214820895992331F0BE
:10301000299FD0011124AC59BD4FE6CF08950F93DD
:103020001F93CF93DF938C01EB0160E08AE00E9455
:10303000D7168AE38EBD0DB407FEFDCF0C0F1D1F02
:10304000C017D10739F01EBC0DB407FEFDCF8EB5F9
:103050008993F6CF61E08AE0DF91CF911F910F91C4
:103060000C94D7160F931F93CF93DF931F92CDB776
:10307000DEB7182F062F60E08AE049830E94D7163A
:10308000802F8F71812B8EBD49810DB407FEFDCF3E
:103090004EBD0DB407FEFDCF61E08AE00F90DF91D9
:1030A000CF911F910F910C94D7161F93CF93DF935D
:1030B000182F1076C12FD0E02091000130E0C21708
:1030C000D30789F043E06FE180EA0E943218AE0135
:1030D00085E0559547958A95E1F76FE180E80E9474
:1030E000321810930001DF91CF911F9108951F9323
:1030F000CF93DF9300D0CDB7DEB7182F69837A83E3
:103100000E9455184981612F80E40E94321861E0C5
:10311000610F7A81472F80E40F900F90DF91CF915C
:103120001F910C9432181F93CF93DF931F92CDB74A
:10313000DEB7182F69830E9455184981612F80E4FA
:103140000F90DF91CF911F910C943218CF93DF93A2
:10315000C82FD62F60E08AE00E94D7168D2F8F717E
:10316000C82BCEBD0DB407FEFDCF1EBC0DB407FEAF
:10317000FDCFD7FD08C061E08AE00E94D7168EB56A
:10318000DF91CF9108951EBC0DB407FEFDCFF3CFA4
:10319000CF93DF931F92CDB7DEB7682F69830E946C
:1031A0005518698180E00F90DF91CF910C94A6189B
:1031B000CF93DF93EB01682F84ED0E949318BE013B
:1031C00086ED0E947718CFE0D0E08AEE0E94C81802
:1031D00080FF08C06AE070E080E090E00E945F1726
:1031E000219799F7DF91CF910895CF93C62FBC0116
:1031F00082E00E94771860E08AE00E94D7168AE792
:103200008EBD0DB407FEFDCFCEBD0DB407FEFDCFC4
:1032100061E08AE0CF910C94D716BC0180E00E9457
:10322000771860E08AE00E94D7168AE38EBD0DB45D
:1032300007FEFDCF1EBC0DB407FEFDCF61E08AE0A6
:103240000E94D7168EB50895CF92DF92EF92FF922B
:103250000F931F93CF93DF936C018B014130510586
:1032600079F4CB010E940D19682FC601DF91CF912F
:103270001F910F91FF90EF90DF90CF900C94F51875
:10328000EA01C60FD71F7E0181E0E81AF10880E14C
:103290000E947718B60184E10E9477180115184042
:1032A00038F4E11488E0F80618F07E0188E0F81A96
:1032B000B70182E10E94771840E16FE180EA0E9445
:1032C000321840E26FE180E80E9432186FE180E03E
:1032D0000E94A61885FF07C061E070E080E090E0E2
:1032E0000E945F17F3CFDF91CF911F910F91FF9055
:1032F000EF90DF90CF900895CF92DF92EF92FF9200
:103300000F931F93CF93DF938C01609164027091B0
:1033100065026150784EC12C98E1D92EE4E6F2E0C6
:1033200080E0C0E0D0E045E09481992349F0499FD6
:10333000900111242C593D4FD9012D913C9101C090
:103340009B01E080F1802E193F090280F381E02D7E
:103350002E1B3F0B2017310739F4B5E08B9FE0019E
:103360001124CC59DD4F49C00217130748F42C151E
:103370003D0530F4489FE0011124CC59DD4F69012F
:10338000911107C02097C9F5C4E6D2E085E0D82E98
:103390001EC0499FF0011124EC59FD4F892FC4CF65
:1033A000EA80FB8028813981E20EF31ED89EE0017D
:1033B0001124CC59DD4F68817981E616F70639F082
:1033C0004A815B81C7010E942419F982E8828C81BD
:1033D0008111E6CF20916402309165028881998144
:1033E000281B390B8A819B81281B390B2150384EB1
:1033F0002017310710F480E01AC091E0E9E6F2E00E
:1034000022813381232B29F035969F5F9533C1F7B5
:10341000F2CF4A815B8128813981240F351F3183A6
:103420002083138302838C8184839C83892FDF9183
:10343000CF911F910F91FF90EF90DF90CF90089563
:10344000CF92DF92EF92FF920F931F93CF93DF9370
:103450007B018A01690125E0829FC0011124EC01F2
:10346000CC59DD4F688179816E0D7F1D82E00E940D
:1034700077180A80DB81C02DCE19DF09CC16DD0656
:1034800008F4E60160E08AE00E94D7168AE78EBD64
:103490000DB407FEFDCFC8018C0F9D1F081719073B
:1034A00041F0F80121918F012EBD0DB407FEFDCF33
:1034B000F5CF61E08AE00E94D716CE01DF91CF916F
:1034C0001F910F91FF90EF90DF90CF900895EF92B2
:1034D000FF920F931F93CF93DF938B017A018F3F5E
:1034E000D1F025E0829FE0011124CC59DD4F02C0CC
:1034F000C0E7D3E088819981B801680F791F80E027
:103500000E9477188A819B81801B910BE816F9062F
:1035100090F4C70110C08091700390917103860FE1
:10352000971F811528E0920718F3BC016F5F774061
:10353000C0E7D3E0E4CFDF91CF911F910F91FF90CF
:10354000EF9008958823A1F090916D03992381F065
:103550008F3F29F48091720390917303089595E051
:10356000899FF0011124EC59FD4F828193810895C8
:1035700080E090E0089560916E0370916F03611593
:10358000710549F061507109611588E0780728F0EC
:1035900060E070E002C06FEF77E060FF02C0615052
:1035A00071098CE00C9477180F931F93DB01E42FC3
:1035B000A80190E0EF3F09F165E0E69FF0011124DA
:1035C000EC59FD4F02C0E0E7F3E00190F081E02DFF
:1035D0002E0F3F1F65E0689FF001699FF00D1124D9
:1035E000EC59FD4F80819181B9018A0F9B1F0E9488
:1035F00024191F910F910C94BB1AE0917003F09164
:103600007103E20FF31FE11568E0F607E0F29F0196
:103610002F5F3740DFCF8091FE059091FF058F3FF0
:103620002FEF920759F420910006309101062F3FA9
:103630003F4F21F486E0E1E7F1E05AC020916002BB
:103640003091610228273927409158025091590240
:1036500024233523232B91F46091000670910106F9
:1036600020916202309163022627372740915A0247
:1036700050915B0224233523232B89F080915C0237
:1036800090915D02909347068093460680915E027A
:1036900090915F02909349068093480608C09093EA
:1036A000470680934606709349066093480620912A
:1036B000460630914706409148065091490680E001
:1036C0009BE001C08F5F883071F1989FF001112459
:1036D000EC5DFB4F608171812617370799F7628196
:1036E00073814617570771F780937C04349686E000
:1036F000A0EEB5E001900D928A95E1F786E0EDE746
:10370000F4E0A6EEB5E001900D928A95E1F788E02D
:1037100090E09093ED058093EC058091DC0590910D
:10372000DD050E9667C080937C0446E050E06FEFA5
:1037300070E080EE95E00E944F2086E0E0E0F6E049
:10374000DF01282F1D922A95E9F7EDE7F4E0A6EEB8
:10375000B5E0982F01900D929A95E1F7EDE7F4E02E
:10376000A6EFB5E0982F01900D929A95E1F7209180
:1037700046063091470630930706209306062091AF
:103780004806309149063093090620930806209197
:103790006002309161023093FD052093FC05209179
:1037A0006202309163023093FF052093FE0520E012
:1037B00031E03093F5052093F4053093EF05209325
:1037C000EE0528E030E03093F1052093F00580937A
:1037D000F20584E08093F30588E096E09093ED0590
:1037E0008093EC0586E196E09093DF058093DE05FB
:1037F0008AE290E09093DD058093DC050895EF92D6
:10380000FF920F931F93CF93DF939C01FB011092C4
:103810007C0490E08BE0983031F1899F7001112495
:10382000E701CC5DDB4F6881798161157105C9F0D5
:103830004A815B8141155105A1F0D9010D911C917F
:1038400011970617170769F412966D917C911397DB
:103850006417750731F490937C04D701A85DBB4FC2
:103860002AC09F5FD8CF90E08BE0983091F0899F7D
:10387000E0011124CC5DDB4F48815981452B39F49F
:103880004A815B81452B19F490937C040AC09F5FA9
:10389000ECCF109245061092440610927C04C4E2CC
:1038A000D4E0D9014D915D916D917C91DE014D93F4
:1038B0005D936D937D9386E001900D928A95E1F77B
:1038C0001A86DF91CF911F910F91FF90EF9008958D
:1038D0009C01AB017093DB056093DA0516161706A1
:1038E00054F48091D8059091D9052817390719F01B
:1038F000B9010C9446200895CF93DF93E1E3F5E0FE
:10390000C9E6D1E0D183C08312821382148215826A
:10391000E8E8F4E01382128288EE93E0A0E0B0E0E1
:1039200084839583A683B78389E391E09183808321
:1039300085EC90E09587848784EC90E09787868774
:1039400080EC90E0918B808B81EC90E0938B828B6C
:1039500082EC90E0958B848B86EC90E0978B868B45
:10396000118E128E138E148EE7E3F5E0D183C0839F
:103970001282138214821582EDE3F5E0D183C083B5
:103980001282138214821582E6E9F5E0D183C083A6
:103990001282138214821582E5E2F5E0D183C0839E
:1039A000128213821482158282E895E00E94BB0184
:1039B000ECE9F5E0D183C083128213821482158270
:1039C000EBE2F5E0D183C083128213821482158268
:1039D000E2EAF5E0D183C083128213821482158259
:1039E000ECEBF5E0D183C08312821382148215823E
:1039F00088EA95E0DF91CF910C94BB01CF93DF93E0
:103A0000CDB7DEB72C970FB6F894DEBF0FBECDBF93
:103A1000789484B5826084BD84B5816084BD85B5A9
:103A2000826085BD85B5816085BD80916E008160B5
:103A300080936E001092810080918100826080935B
:103A4000810080918100816080938100809180005D
:103A50008160809380008091B10084608093B10088
:103A60008091B00081608093B00080917A00846082
:103A700080937A0080917A00826080937A008091AE
:103A80007A00816080937A0080917A0080688093C8
:103A90007A001092C100E0919804F091990482E0BC
:103AA0008083E0919404F09195041082E091960453
:103AB000F09197048FEC80831092A004E0919C0415
:103AC000F0919D0486E08083E0919A04F0919B043C
:103AD000908190619083E0919A04F0919B04908191
:103AE00098609083E0919A04F0919B049081906893
:103AF0009083E0919A04F0919B0490819F7D908344
:103B0000EFE2F1E0DE011796982F01900D929A9561
:103B1000E1F729E631E03A83298390EC9B8398EA28
:103B20009C831D828E83BE016F5F7F4FCE010796FF
:103B30000E94C90A68E873E188EA95E00E9473016F
:103B4000F82E89E891E00E94E10CF11003C062E8D0
:103B500071E002C06AE771E088E894E00E94790DA4
:103B600088EA95E00E94C805181619060CF0E3C013
:103B70007C012FEFE21AF20AC7010E94141F6C01A8
:103B8000A701BC0188EA95E00E9423018C0D9D1DD0
:103B9000FC01108286E991E00E94E10CC6010E94BE
:103BA000E10CC6010E94A91F88EA95E00E94BE05AB
:103BB00018161906ECF288EA95E00E943C0560EAC6
:103BC00071E088E894E00E94790D82EA91E00E9419
:103BD000E10C68EA75E0CE0101960E949F00E98140
:103BE000FA810190F081E02D68E874E0CE01019641
:103BF000099567E771E088E894E00E94CC0C8EEAB2
:103C000091E00E94E10C88EA95E00E948F00AC01EF
:103C100060E070E02AE088E894E00E94E60C67E744
:103C200071E088E894E00E94CC0C88EA95E00E945C
:103C30008F007C0168EA75E0CE0101960E949F002A
:103C4000A701BE016F5F7F4F88EA95E00E94D8050B
:103C50007C018CEB91E00E94E10CE114F10419F479
:103C600062E871E002C06AE771E088E894E00E94CF
:103C7000790DEF2809F4A9CF6AEC71E088EA95E0A4
:103C80000E94790D6C0183EE91E00E94E10C0D2CF5
:103C9000000CEE08FF08F7FE14C0E0918804F091D4
:103CA00089040190F081E02D6DE288E894E00995A7
:103CB00044275527BA014C195D096E097F092AE08E
:103CC00003C02AE0B701A60188E894E00E94E60C50
:103CD00067E771E088E894E00E94CC0C88EA95E000
:103CE0000E9442017C0183EF91E00E94E10CEF28E9
:103CF00019F462E871E002C06AE771E088E894E0D4
:103D00000E94790D88EA95E00E9499018FEF91E079
:103D10000E94E10C68E873E188EA95E00E94730173
:103D2000811103C062E871E002C06AE771E088E8CF
:103D300094E00E94790D0E94EC1512CFFC012381C2
:103D4000260F2093D005A72FBB2792819A0F90931F
:103D5000CF0531813093CE0540814093CD05E92FC9
:103D6000F0E0EA17FB0748F481E0830F8093CE056B
:103D7000811103C04F5F4093CD0530E077272617B0
:103D8000370788F49F5F9093CF0591110CC0809105
:103D9000CE058F5F8093CE05811105C08091CD0542
:103DA0008F5F8093CD050895CF93DF93C091C905B0
:103DB000D091CA05BC01CE0108960E949E1EEDEC72
:103DC000F5E0808188878181898782818A878381E4
:103DD0008B87DF91CF910895A1E21A2EAA1BBB1BFE
:103DE000FD010DC0AA1FBB1FEE1FFF1FA217B307C7
:103DF000E407F50720F0A21BB30BE40BF50B661FDD
:103E0000771F881F991F1A9469F7609570958095A0
:103E100090959B01AC01BD01CF010895EE0FFF1FEE
:103E20000590F491E02D0994CF93DF9382309105B2
:103E300010F482E090E0E0915506F091560620E003
:103E400030E0C0E0D0E0309711F140815181481757
:103E50005907C0F04817590761F482819381209770
:103E600019F09B838A832BC0909356068093550646
:103E700026C02115310519F04217530718F49A018D
:103E8000BE01DF01EF010280F381E02DDCCF2115BF
:103E9000310509F1281B390B2430310590F41296B5
:103EA0008D919C9113976115710521F0FB0193830E
:103EB000828304C09093560680935506FD01329686
:103EC00044C0FD01E20FF31F819391932250310909
:103ED0002D933C933AC02091530630915406232BE6
:103EE00041F4209103013091040130935406209352
:103EF000530620910101309102012115310541F451
:103F00002DB73EB74091050150910601241B350B9A
:103F1000E0915306F0915406E217F307A0F42E1B2C
:103F20003F0B2817390778F0AC014E5F5F4F24171D
:103F3000350748F04E0F5F1F5093540640935306C9
:103F40008193919302C0E0E0F0E0CF01DF91CF9147
:103F500008950F931F93CF93DF93009709F48CC0BC
:103F6000FC01329713821282009155061091560679
:103F70000115110581F420813181820F931F209159
:103F80005306309154062817390779F5F0935406F3
:103F9000E093530671C0D80140E050E0AE17BF0770
:103FA00050F412962D913C911397AD0121153105D6
:103FB00009F1D901F3CF9D01DA01338322836081B6
:103FC0007181860F971F8217930769F4EC0128818E
:103FD0003981260F371F2E5F3F4F318320838A811F
:103FE0009B8193838283452B29F4F0935606E093BB
:103FF000550642C01396FC93EE931297ED0149913A
:1040000059919E01240F351FE217F30771F4808147
:104010009181840F951F029611969C938E938281B5
:10402000938113969C938E931297E0E0F0E0D80171
:1040300012968D919C911397009719F0F8018C01BD
:10404000F6CF8D919C9198012E5F3F4F820F931F69
:1040500020915306309154062817390769F4309798
:1040600029F4109256061092550602C0138212824D
:104070001093540600935306DF91CF911F910F9137
:10408000089581E090E0F8940C945620FB01DC0147
:1040900002C001900D9241505040D8F70895DC01C4
:1040A00001C06D9341505040E0F70895F894FFCF60
:1040B000FF00005706800000000000E2002A0120F7
:1040C000013C05BE05C50048057301F8009901D8FB
:1040D0000558064201C805700523019F008F0000A6
:1040E0000102030405000000006E16940AAF15B526
:1040F00016E015BE15D21500000000CA0C940A2067
:10410000011F01CA0CCA0CCA0C00000000CA0C94A2
:104110000A20011F01000000002F0D00000000CA4E
:104120000CFFFFFFFFFFFF0D0A00737563636573EC
:1041300073006661696C656400696E697469616CBD
:10414000697A653A200072656365697665643A202C
:10415000270072656D6F74652069703A2000726582
:104160006D6F746520706F72743A200062656769C4
:104170006E5061636B65743A200068656C6C6F20EB
:10418000776F726C642066726F6D206172647569FE
:104190006E6F006279746573207772697474656EEE
:1041A0003A2000656E645061636B65743A2000725A
:1041B00065737461727420636F6E6E656374696F8A
:0441C0006E3A200033
:107E0000112484B714BE81FFF0D085E080938100F7
:107E100082E08093C00088E18093C10086E0809377
:107E2000C20080E18093C4008EE0C9D0259A86E02C
:107E300020E33CEF91E0309385002093840096BBD3
:107E4000B09BFECF1D9AA8958150A9F7CC24DD24C4
:107E500088248394B5E0AB2EA1E19A2EF3E0BF2EE7
:107E6000A2D0813461F49FD0082FAFD0023811F036
:107E7000013811F484E001C083E08DD089C08234E0
:107E800011F484E103C0853419F485E0A6D080C0E4
:107E9000853579F488D0E82EFF2485D0082F10E0AE
:107EA000102F00270E291F29000F111F8ED06801E7
:107EB0006FC0863521F484E090D080E0DECF843638
:107EC00009F040C070D06FD0082F6DD080E0C81688
:107ED00080E7D80618F4F601B7BEE895C0E0D1E017
:107EE00062D089930C17E1F7F0E0CF16F0E7DF06D8
:107EF00018F0F601B7BEE89568D007B600FCFDCFD4
:107F0000A601A0E0B1E02C9130E011968C91119780
:107F100090E0982F8827822B932B1296FA010C0160
:107F200087BEE89511244E5F5F4FF1E0A038BF0790
:107F300051F7F601A7BEE89507B600FCFDCF97BE46
:107F4000E89526C08437B1F42ED02DD0F82E2BD052
:107F50003CD0F601EF2C8F010F5F1F4F84911BD097
:107F6000EA94F801C1F70894C11CD11CFA94CF0C13
:107F7000D11C0EC0853739F428D08EE10CD085E9AC
:107F80000AD08FE07ACF813511F488E018D01DD067
:107F900080E101D065CF982F8091C00085FFFCCF94
:107FA0009093C60008958091C00087FFFCCF809118
:107FB000C00084FD01C0A8958091C6000895E0E648
:107FC000F0E098E1908380830895EDDF803219F02E
:107FD00088E0F5DFFFCF84E1DECF1F93182FE3DFCA
:107FE0001150E9F7F2DF1F91089580E0E8DFEE27F6
:047FF000FF270994CA
:027FFE00040479
:0400000300007E007B
:00000001FF
