:100000000C9465000C948D000C948D000C948D0064
:100010000C948D000C948D000C948D000C948D002C
:100020000C948D000C948D000C948D000C948D001C
:100030000C948D000C948D000C948D000C948D000C
:100040000C9417160C948D000C9417150C94F11445
:100050000C948D000C948D000C948D000C948D00EC
:100060000C948D000C948D002B104210C410B5110F
:10007000D711F211FE11A911000000002400270081
:100080002A0000000000250028002B0004040404BE
:100090000404040402020202020203030303030332
:1000A000010204081020408001020408102001020F
:1000B00004081020000000080002010000030407EB
:1000C0000000000000000000CD2111241FBECFEF72
:1000D000D8E0DEBFCDBF11E0A0E0B1E0E8E8F7E492
:1000E00002C005900D92AC3BB107D9F725E0ACEB0F
:1000F000B1E001C01D92A13FB207E1F710E0C5E6F3
:10010000D0E004C02197FE010E947A22C436D107B4
:10011000C9F70E9477200C94C2230C940000CF935F
:10012000DF931F92CDB7DEB7DC01ED91FC91028821
:10013000F389E02D41E050E0BE016F5F7F4F0995EC
:1001400097FD03C0898190E002C08FEF9FEF0F9071
:10015000DF91CF910895FC014485558541155105E6
:1001600051F0FB01248535852115310521F081E011
:100170004217530709F080E00895DC011C96ED91C9
:10018000FC911D97309739F08181811106C08081E3
:1001900082958170089580E0089581E00895DC01E2
:1001A000ED91FC91028CF38DE02D099591E089276A
:1001B0000895089580E090E00895DC01ED91FC91B0
:1001C000048CF58DE02D0994EF92FF920F931F930D
:1001D000CF93DF93EC01E881F981008CF18DE02D64
:1001E00009958823B9F08C859D857C012FEFE21A53
:1001F000F20A8C010A5F1F4FC0E0D0E0F701819145
:100200007F010E942819C80FD91FE016F106B1F727
:10021000CE0102C080E090E0DF91CF911F910F915D
:10022000FF90EF9008950F931F93CF93DF931F924A
:10023000CDB7DEB78C01DC01ED91FC91008CF18D26
:10024000E02D0995882391F0D8011C96ED91FC9141
:100250001D978181882351F041E050E0BE016F5F1E
:100260007F4F0E94341E898190E002C08FEF9FEF84
:100270000F90DF91CF911F910F9108950F931F93CE
:10028000CF93DF93EC018C010B5F1F4F88810E949D
:1002900061161992C017D107C9F7DF91CF911F914D
:1002A0000F910895CF93DF93EC01E881F981008CE1
:1002B000F18DE02D0995882339F08C859D85019677
:1002C000DF91CF910C943E01DF91CF9108950F9370
:1002D0001F93CF93DF93EC01DC018D918D010E9480
:1002E0006116FE01CE010496D8012D918D01219356
:1002F000E817F907C9F71C82DF91CF911F910F9181
:1003000008956F927F928F929F92AF92BF92CF92F9
:10031000DF92EF92FF920F931F93CF93DF937C01B5
:100320005B01EA01DC01ED91FC91008CF18DE02D87
:100330000995882309F46FC0D7011C96ED91FC91B3
:100340001D978181882309F469C06E010EE1BE0109
:100350006C197D096A0D7B1DD7011C96ED91FC91EE
:100360001D97A60181810E94341E4C01F70164840F
:100370007584D30111961C91812F0E94281988162B
:10038000990681F5C818D908C30101960E94670132
:10039000F701A485B5858C91282F30E02F70029F3E
:1003A000F001039FF00D1124E452FC4F918D94FF56
:1003B00005C0982F907611F480688C93D7011C9615
:1003C000ED91FC911D97818181111FC0808186FF75
:1003D00005C010821D961C921E921C97CE018C198E
:1003E0009D091EC0B5E01B9FF0011124E356FD4F8F
:1003F00080819181880D991D918380838281938171
:10040000881999099383828304C0C114D10409F027
:100410009ECFCE0105C08FEF9FEF02C080E090E03D
:10042000DF91CF911F910F91FF90EF90DF90CF90D0
:10043000BF90AF909F908F907F906F900895CF92D4
:10044000DF92EF92FF920F931F93CF93DF938091F0
:10045000A603882309F406C2D0918E02D11160C090
:1004600089E30E9417179091A603992309F456C0B7
:10047000882309F453C06091A7037091A8038B01EE
:100480000A5F1F4F011528E0120710F00F5F174099
:1004900080E00E94C61660E08AE30E94F51690E0B4
:1004A0009093A8038093A70360E08AE30E94F51667
:1004B0002091A7033091A803382B3093A8032093F1
:1004C000A70360E08AE30E94F516C82F60E08AE384
:1004D0000E94F516F82E60E08AE30E94F516E82ED9
:1004E00040E46EE180E80E948116E7FE15C080912D
:1004F000A7039091A8038115984070F41093AA0364
:100500000093A9038C2F90E09F2904979093AC034C
:100510008093AB03DFEF02C00E94E009D0938E020C
:10052000C0918E02CC2309F420C181E080938F0218
:100530008C2F0E9428199093CA018093C901892B9E
:1005400009F407C142E650E06DEC71E08C2F0E9487
:10055000341EC091D901D091DA01C830D10509F01B
:1005600044C080918E02809390028091C901909145
:10057000CA010E979093CA018093C90120919902F4
:1005800030919A028091E7019091E80182279327A8
:10059000209191023091920282239323892BC1F4FE
:1005A00020919B0230919C028091E9019091EA0197
:1005B00082279327209193023091940282239323E0
:1005C000892B31F463ED71E087EE91E00E94ED0A32
:1005D00081E00E946A0B8091C9019091CA01892B28
:1005E00009F4B7C00E94F909B2C0C83046E0D40788
:1005F00009F0AFC08091C9019091CA011092CA015F
:100600001092C9018A9708F49CC08091E1019091F1
:10061000E201811551E0950729F08115924009F416
:1006200074C08FC02091F3013091F4018091990240
:1006300090919A022817390709F083C02091F5019B
:100640003091F60180919B0290919C022817390706
:1006500009F077C063EE71E089EE91E00E94ED0A47
:1006600080E092E09093E2018093E10186E0E3EE86
:10067000F1E0ADEEB1E001900D928A95E1F786E0F0
:10068000E6EBF4E0A3EEB1E001900D928A95E1F77C
:1006900086E0E6EBF4E0A3EDB1E001900D928A95DF
:1006A000E1F786E0EDEEF1E0ADECB1E001900D9206
:1006B0008A95E1F78091E9019091EA019093F40124
:1006C0008093F3018091EB019091EC019093F601FE
:1006D0008093F5018091990290919A029093EA019A
:1006E0008093E90180919B0290919C029093EC0190
:1006F0008093EB01D093DA01C093D9018AE290E0B4
:100700009093CA018093C9011CC02091F3013091DC
:10071000F4018091990290919A022817390789F47F
:100720002091F5013091F60180919B0290919C02FD
:100730002817390731F463EE71E089EE91E00E94E9
:10074000ED0A8091C9019091CA01892B11F00E9494
:100750003D1D80918E02882341F080918F0280FFA1
:1007600004C00E94E00910928E020E940B166B01D9
:100770007C018091BC049091BD04A091BE04B09115
:10078000BF04A7019601281B390B4A0B5B0BDA014A
:10079000C90180959095A095B0958827B7FD839560
:1007A0009927AA27BB27C82F0CED13E01093C80187
:1007B0000093C701CC2311F082E017C00115110589
:1007C00019F1D8015C96ED91FC915D973097D1F0CD
:1007D00085859685A785B089A7019601281B390BC9
:1007E0004A0B5B0B57FD10C083E00E946A0B80919F
:1007F000C9019091CA01892B39F00E94F9090E9420
:100800003D1D02C0F801E4CF025E1F4F34E0043505
:10081000130761F6CC2331F1D701C60186509F4FF3
:10082000AF4FBF4F8093BC049093BD04A093BE0410
:10083000B093BF04CEEAD3E0D093C101C093C0010E
:1008400085E00E946A0B8091C9019091CA01892BB1
:1008500021F089859A850E94E81D2B9643E0CA3DC8
:10086000D40751F7DF91CF911F910F91FF90EF9037
:10087000DF90CF900895CF93DF93EC010E941F0289
:10088000EC85FD85309739F0808186FF06C081E0D8
:100890009181911103C080E001C081E0DF91CF918F
:1008A0000895CF93DF93EC018C859D85009781F0AF
:1008B000FC012081222361F001960E943E01EC851B
:1008C000FD85908196FF02C0108202C090629083E5
:1008D0001D861C86DF91CF910C941F02EF92FF9230
:1008E0000F931F93CF93DF938C017B01EA01DC010F
:1008F000ED91FC910488F589E02D0995F70182813D
:1009000090E0982F88272381822B98278927982782
:10091000248130E0322F22274581242B32272327C0
:1009200032277C2F6D2F4091DA035091DB034F5F0C
:100930005F4F4115FDE75F0710F040E050E1D42F15
:10094000C52FECEDF3E0A0E0A43059F0B18DBB234E
:1009500029F0E480F580EC16FD0649F3AF5F7E9642
:10096000F3CF5093DB034093DA0310925C0440E032
:10097000C0E0D0E0AEE14430C1F0A49FF00111240A
:10098000E452FC4F518D511104C040935C04EF01BF
:100990000EC0573031F4209729F0B28D5A8D5B1775
:1009A00008F0FE014F5FEF01E6CF40935C04209713
:1009B00019F480E090E040C042E0498F4091C201CC
:1009C0004C874091C3014D874091C4014E874091AF
:1009D000C5014F8740E052E05B8B4A8B5D8B4C8BAF
:1009E00041E050E0598B488B1B8E4A8F43E0488F83
:1009F0001E8A40E14F8B4091DA035091DB0354276C
:100A0000452754275D834C837F836E839983888336
:100A10003B832A83898D8F7061F20E941F02898D2A
:100A20008F708330B9F78C8D9D8DD8011D969C9366
:100A30008E931C9781E090E0DF91CF911F910F91F1
:100A4000FF90EF900895CF92DF92EF92FF920F9375
:100A50001F93CF93DF93A091C701B091C8015C961B
:100A6000CD91DC915D975091C601209749F556FFD5
:100A700061C0E0E4F2E080E090E0208121111AC042
:100A800061E1689F9001699F300D1124E901C05C0C
:100A9000DD4F806188832F5B3D4F80E1F90111922A
:100AA0008A95E9F7209709F445C05D96DC93CE93CB
:100AB0005C9706C00196719684309105F1F63AC0B4
:100AC00051FF07C08091C9019091CA01892B09F09B
:100AD00047C0888187FF0EC08F7788838091C601C9
:100AE00082608093C601E091C701F091C801818DB9
:100AF0008F7E818F8091C601982F9071D92E84FFAF
:100B000072C0CE0106960E943E018981882309F4B5
:100B10006DC0E091C701F091C801848195819F83E8
:100B20008E83888180648883E091C701F091C80139
:100B3000158E148EE12CF12CB7018091CB01909190
:100B4000CC010E94560BF092CA01E092C901DF91DC
:100B5000CF911F910F91FF90EF90DF90CF9008956C
:100B60008881807609F0B5CF6E01FFEFCF1ADF0ADA
:100B7000F12CF6018081811122C02091C9013091B0
:100B8000CA012115310519F0C9010E94CB17F601E0
:100B900080838823A1F00091C9011091CA0120919E
:100BA000CB013091CC012D5C314040918E0260E050
:100BB00070E00E946F18F4E0FF128BCF0CC0F3942A
:100BC0002FEFC21AD20A35E0F312D3CF80918F02F1
:100BD0008E7F80938F02E091C701F091C801818DD3
:100BE0008061818F76CF87FF03C08BCF18829CCF27
:100BF00080FF04C0CE0106960E9467018091C60165
:100C00008C7009F443C0EE81EE2309F43FC08F815C
:100C100081110FC0EB84FC84E114F10409F48CCF42
:100C200025E0E29FF0011124E356FD4FF382E282BA
:100C300007C08E2F0E9428197C01892B09F47CCFD4
:100C40008091CB019091CC018D5C914080938D027D
:100C5000F701E80FF11DCF01EF2B19F00E94CB1720
:100C6000D82ED0929002DD2009F466CF60918D02DB
:100C700070E0870120E030E04E818D2D0E946F18DA
:100C800080918F02826080938F0256CF888185FF8A
:100C900051CF8E8181110BC01882E091C701F09174
:100CA000C801158E148E80E18093C60143CFE09178
:100CB000C701F091C801818D8061818F3BCF8F92F8
:100CC0009F92AF92BF92CF92DF92EF92FF920F93DB
:100CD0001F93CF938C015B017A016A014C0187E07D
:100CE000880E911C0E941F020115110509F452C0C3
:100CF000F8018081807609F04DC0F401C1E0819156
:100D0000811102C0C15004C0CF5FC530C1F7C4E03B
:100D1000F801EC0FF11D868181110DC080E092E099
:100D20000E94CB17F801EC0FF11D86838823D1F2C6
:100D3000F80114861386A7014C195D094A0D5B1D45
:100D4000F801638574859601EC0FF11D86810E9480
:100D5000A618C81AD90AF80123853485820F931F73
:100D6000948783871C141D042CF4C43009F4BACF73
:100D7000CF5FD4CF0E940B16DC01CB010A96A11DD8
:100D8000B11DF80185879687A787B08BC7018C199D
:100D90009D0902C080E090E0CF911F910F91FF90DC
:100DA000EF90DF90CF90BF90AF909F908F9008957D
:100DB000FC01848595850C945F06CF93DF931F9289
:100DC000CDB7DEB7698341E050E0BE016F5F7F4F72
:100DD000FC01848595850E945F060F90DF91CF917D
:100DE00008952F923F924F925F926F927F928F92CF
:100DF0009F92AF92BF92CF92DF92EF92FF920F93AA
:100E00001F93CF93DF93CDB7DEB765970FB6F894F6
:100E1000DEBF0FBECDBF7C016B013A01FB01DB01E0
:100E20008D91882331F08E32D9F380538A30C0F30C
:100E300034C020E030E080E090E05AE0419144236B
:100E4000F9F0843091054CF54E3269F42F3F3105AD
:100E500009F01CF5D301A80FB91F12962C93019627
:100E600020E030E0EBCF529FB001539F700D112472
:100E7000242F440F330B20533109260F371FDECFA9
:100E80002F3F310509F04CF48430910534F4F3011F
:100E9000E80FF91F228381E021C0F70142815381CD
:100EA000648175818091660590916705A0916805C0
:100EB000B0916905481759076A077B0709F4EBC128
:100EC0000E940B168701085F1F4F6F7077277C5FAA
:100ED000C8010E94311B813019F080E090E0F2C11E
:100EE0008FE991E09A838983F70182819381A481BC
:100EF000B5818B839C83AD83BE8345E350E0BE0107
:100F00006F5F7F4FC8010E94B11A892B19F420E04E
:100F100030E0B8C10E940B16F7017783668342E088
:100F200050E0B7016A5F7F4FC8010E94991A81E0C3
:100F300090E09A83898342E050E0BE016F5F7F4F6B
:100F4000C8010E94991A80E091E09A83898342E067
:100F500050E0BE016F5F7F4FC8010E94991A1A824C
:100F6000198242E050E0BE016F5F7F4FC8010E94CE
:100F7000991A42E050E0BE016F5F7F4FC8010E94A6
:100F8000991A42E050E0BE016F5F7F4FC8010E9496
:100F9000991A5601F5018081882311F1F6015F014C
:100FA0008191811115C045018C189D0818141904F0
:100FB00094F48D8641E050E0BE01635F7F4FC8012D
:100FC0000E94991AA401B601C8010E94991A03C08F
:100FD0008E3229F7E8CF6501FFEFCF1ADF0ADACFAB
:100FE0001D8641E050E0BE01635F7F4FC8010E9453
:100FF000991AC12CDD24D394DA82C98242E050E0F0
:10100000BE016F5F7F4FC8010E94991ADA82C982C0
:1010100042E050E0BE016F5F7F4FC8010E94991A05
:10102000C8010E94031E892B09F471CF83E0A82E0A
:10103000B12CF2E06F0E711C0E940B161B012C01EB
:10104000C8010E94FD1918161906ACF00E940B1673
:10105000DC01CB0182199309A409B50989389341B0
:10106000A105B10508F0FDC062E370E080E090E00A
:101070000E94D115E5CFF70122803380448055804E
:10108000B801CE0101960E9451198B819C81AD81DE
:10109000BE81281639064A065B0609F0E5C0C8017C
:1010A0000E944119C59709F0DFC0C8010E94F319D9
:1010B0000C970CF4DCC04CE050E0BE016F5F7F4F3A
:1010C000C8010E94DD008B819C8198278927982781
:1010D0009A8B898BF7014681578129813A81421782
:1010E000530711F497FD06C0C8010E94E7192CEFC1
:1010F0003FEFBFC08F709270892B31F0C8010E9402
:10110000E7192BEF3FEFB5C0CF80D884DC24CD2486
:10111000DC24C114D10431F4C8010E94E7192AEF7C
:101120003FEFA7C0812C912C8D819E819827892724
:1011300098278816990640F541E050E0BE01635FAC
:101140007F4FC8010E94DD008D85811113C08D8500
:101150008111F2CFC8010E947719C8010E94771946
:10116000C8010E947719C8010E947719FFEF8F1AF2
:101170009F0ADACF8D859FEF980F9D87882339F3DB
:10118000C8010E947719F6CF812C912C41E050E0E4
:10119000BE016D5E7F4FC8010E94DD008B89982FD4
:1011A000907C61F4882371F08B899FEF980F9B8B63
:1011B000882341F0C8010E947719F6CFC8010E9428
:1011C00077191B8A8B898111E1CF42E050E0BE0183
:1011D000615F7F4FC8010E94DD0042E050E0BE0128
:1011E000635F7F4FC8010E94DD00C8010E9477192C
:1011F000C8010E947719C8010E947719C8010E948E
:10120000771942E050E0BE016F5E7F4FC8010E9437
:10121000DD008F8598898115914029F48D859E8503
:1012200081159140D9F1412C512C89899A899827AF
:10123000892798274816590638F4C8010E9477195B
:10124000FFEF4F1A5F0AF1CF2FEF821A920A8C1428
:101250009D0409F09BCFC8010E94E71926EF3FEFDC
:1012600008C02FEF3FEF05C02EEF3FEF02C02DEF7C
:101270003FEF81E0A81AB10829F02F3FEFEF3E07BA
:1012800009F4DACEC8012C8B3D8B0E94571B2C89A8
:101290003D89C90117C08EEF9FEF14C089899A89D3
:1012A0008115944031F0C8010E94E71927EF3FEF04
:1012B000E0CF44E050E0B301C8010E94DD0021E02E
:1012C00030E0D7CF65960FB6F894DEBF0FBECDBF26
:1012D000DF91CF911F910F91FF90EF90DF90CF9012
:1012E000BF90AF909F908F907F906F905F904F9046
:1012F0003F902F900895CF92DF92EF92FF920F933D
:101300001F93CF93DF93CDB7DEB7AA970FB6F894AC
:10131000DEBF0FBECDBF7C016A010FE911E01A8369
:1013200009831B821C821D821E82CE01099669A739
:101330007AA70E941F1C1E8F0D8F1F8E18A219A244
:101340001AA28091600590916105A0916205B0910B
:1013500063058B839C83AD83BE8318861F82AE0199
:10136000435E5F4F69A57AA5CE0101960E94F10602
:1013700081309105B1F4D701ED91FC910684F78598
:10138000E02D1CA30BA38F8D98A1A9A1BAA18DA3B9
:101390009EA3AFA3B8A7A601BE016D5D7F4FC70195
:1013A0000995AA960FB6F894DEBF0FBECDBFDF91A8
:1013B000CF911F910F91FF90EF90DF90CF90089504
:1013C0006091A7037091A8036115710549F0615000
:1013D0007109611588E0780728F060E070E002C0CC
:1013E0006FEF77E060FF02C0615071098CE00C94F0
:1013F000C6168091EB019091EC018F3F2FEF920781
:1014000059F42091ED013091EE012F3F3F4F21F42F
:1014100086E0E7E0F1E05AC02091990230919A020B
:101420002827392740919102509192022423352395
:10143000232B91F46091ED017091EE0120919B02BC
:1014400030919C02262737274091930250919402B5
:1014500024233523232B89F08091950290919602C5
:1014600090933D0280933C02809197029091980264
:1014700090933F0280933E0208C090933D02809378
:101480003C0270933F0260933E0220913C023091F7
:101490003D0240913E0250913F0280E09BE001C03E
:1014A0008F5F883071F1989FF0011124E35AFB4F50
:1014B000608171812617370799F76281738146171A
:1014C000570771F78093B504349686E0ADECB1E030
:1014D00001900D928A95E1F786E0E6EBF4E0A3ED4A
:1014E000B1E001900D928A95E1F788E090E0909349
:1014F000DA018093D9018091C9019091CA010E96B9
:1015000067C08093B50446E050E06FEF70E08DEC6B
:1015100091E00E94BB2386E0EDEEF1E0DF01282F91
:101520001D922A95E9F7E6EBF4E0A3EDB1E0982FE0
:1015300001900D929A95E1F7E6EBF4E0A3EEB1E0AD
:10154000982F01900D929A95E1F720913C023091ED
:101550003D023093F4012093F30120913E0230913B
:101560003F023093F6012093F501209199023091CA
:101570009A023093EA012093E90120919B02309175
:101580009C023093EC012093EB0120E031E030939A
:10159000E2012093E1013093DC012093DB0128E09C
:1015A00030E03093DE012093DD018093DF0184E0A1
:1015B0008093E00188E096E09093DA018093D9016E
:1015C00083E092E09093CC018093CB018AE290E09B
:1015D0009093CA018093C9010895EF92FF920F93EF
:1015E0001F93CF93DF939C01FB011092B50490E011
:1015F0008BE0983031F1899F70011124E701C35AC3
:10160000DB4F6881798161157105C9F04A815B8181
:1016100041155105A1F0D9010D911C9111970617A3
:10162000170769F412966D917C91139764177507EB
:1016300031F49093B504D701AF59BB4F2AC09F5FD7
:10164000D8CF90E08BE0983091F0899FE001112491
:10165000C35ADB4F48815981452B39F44A815B815C
:10166000452B19F49093B5040AC09F5FECCF1092FC
:101670003B0210923A021092B504CDE5D4E0D901B4
:101680004D915D916D917C91DE014D935D936D93D4
:101690007D9386E001900D928A95E1F71A86DF919D
:1016A000CF911F910F91FF90EF9008959C01AB0196
:1016B00070933902609338021616170654F480911D
:1016C0003602909137022817390719F0B9010C94A6
:1016D000B2230895BF92CF92DF92EF92FF920F93C1
:1016E0001F93CF93DF93C091C701D091C80184307D
:1016F00009F4E9C123E032E03093CC012093CB011F
:101700003093370220933602833059F4898D8F70DD
:10171000833009F00EC788899989892B09F009C798
:101720007EC0823009F07FC08091C5018F5F8093B9
:10173000C501811113C08091C4018F5F8093C401E2
:1017400081110CC08091C3018F5F8093C30181110F
:1017500005C08091C2018F5F8093C2011092CA01BF
:101760001092C9011092390210923802898D982F77
:101770009D7F953041F48A8D8F5F8A8F883709F07D
:10178000D8C6198ED6C6882309F4D3C628893989C4
:10179000232B09F440C09A8D2FEF290F2A8F911126
:1017A000C8C69B8D983031F02FEF280F223048F4B7
:1017B000953039F4198E80E88093C6010E94230584
:1017C0006CC5953038F423E0092E01C0220F0A942D
:1017D000EAF701C020E32A8F9F5F9B8F8F708330D1
:1017E000A1F048F4813009F459C3823009F0A1C650
:1017F0001092FC0156C3863009F45EC5883009F4A6
:101800005BC5843009F095C657C584E08093C60156
:101810000E94230577C58F70833009F08AC688E05F
:101820008093C6012FC5853019F5E091C001F09174
:10183000C10184819581892B09F47BC61092C8016E
:101840001092C70187EF91E09093CC018093CB0178
:101850009093370280933602109239021092380228
:101860001092CA011092C90188E08093C60129C173
:101870008091DB01853409F05CC6E090DD01F12C3C
:10188000FE2CEE248091DE01E80EF11C8091C9014E
:101890009091CA018E159F0508F44BC6F092CA01BB
:1018A000E092C9018091E1018F7309F042C6D090A6
:1018B000E201D1103EC6C0919902D0919A022097C0
:1018C00039F480919B0290919C02892B09F442C0CB
:1018D0008091E4012091EB013091EC01813151F5CF
:1018E0002F3F1FEF310739F48091ED019091EE0108
:1018F000019609F471C080919102909192028095B5
:1019000090958C2B9D2B28173907A1F48091930279
:10191000909194028095909540919B0250919C02E9
:10192000842B952B4091ED015091EE0148175907FA
:1019300009F452C02C173D0709F0FBC52091ED01B9
:101940003091EE0180919B0290919C0228173907FB
:1019500009F0EFC50E942C1D019609F0EAC580919F
:10196000E401863009F413C18131B1F1813009F00D
:10197000E0C58091EF01883009F0DBC51092EF01DE
:101980008091F1019091F201873FBFEF9B0710F02A
:10199000099601C008969093F2018093F10180911D
:1019A000E7019091E8019093EC018093EB01809125
:1019B000E9019091EA019093EE018093ED01D093BB
:1019C000E801C093E70180919B0290919C02909363
:1019D000EA018093E901B1C5CCE1EC1AF108F0927B
:1019E000CA01E092C90187EF91E09093CC01809306
:1019F000CB018091F5019091F601892B99F420910A
:101A0000F1013091F2014091EF015091F0016091AC
:101A1000E7017091E801A091E901B091EA01EEEAD5
:101A2000F3E00CC081E10E94A01C019609F081C581
:101A3000E6CF84819581009731F43B9683E0EA3DBF
:101A4000F807B8F324C028173907B9F786819781BA
:101A5000009719F04817590781F780819181009705
:101A600029F4C281D381CD2B49F416C08F3F1FEFDB
:101A7000910721F4C281D381219671F0681779070B
:101A8000E1F682819381A817B907B9F605C0F093F2
:101A9000C101E093C0014DC5F093C101E093C001C5
:101AA0001092C8011092C70182E08093C60187EFAF
:101AB00091E090933702809336021092390210928F
:101AC00038020E94BA1B8091380290913902009727
:101AD00009F42FC59C01245E3F4F3093CA01209327
:101AE000C9013093DD012093DE01E091C001F09146
:101AF000C10120852093E30121E12093E4010896B0
:101B00009827892798279093F4018093F3011092E6
:101B1000F6011092F501848195819093F0018093F4
:101B2000EF01868197819093F2018093F10180917A
:101B3000990290919A029093E8018093E701809135
:101B40009B0290919C029093EA018093E90180812D
:101B500091819093EC018093EB018281938190932A
:101B6000EE018093ED0183E092E09093CC018093AD
:101B7000CB0181E10E94A01C80959095009711F403
:101B80008FEF9FEF9093F6018093F501AFC486E04D
:101B90000E94A01C019609F0CCC44091F101509123
:101BA000F2018091EF019091F0016091E701709155
:101BB000E801E091E901F091EA010CED13E0E801A0
:101BC000298D2223A9F0AC81BD814A175B0781F4DE
:101BD000AE81BF818A179B0759F4A881B9816A1722
:101BE0007B0731F4AA81BB81EA17FB0709F470C1B6
:101BF000025E1F4FD4E004351D0709F78091FC01F8
:101C00008F738230E1F4509335024093340280E0C8
:101C1000843099F0E82FF0E0EE0FFF1FEC5AFB4FF5
:101C2000208131818F5F4217530791F710925C0436
:101C300080E0C0E0D0E09EE17CC080935C048091B5
:101C4000FC0182FD76C484E18093FC0188E290E08F
:101C50009093CA018093C90180E58093FB01309184
:101C6000F6018091FA018093F6012091F5018091AF
:101C7000F9018093F5012093F9019091F40180918D
:101C8000F8018093F4019093F8018091F30180931F
:101C90005C044091F7014093F3018093F7013F5FAB
:101CA0003093FA0131110DC02F5F2093F9012111FA
:101CB00008C09F5F9093F801911103C08F5F8093DC
:101CC000F7018091EF019091F0019093350280939C
:101CD00034022091F1013091F2013093F001209310
:101CE000EF019093F2018093F1018091E7019091CF
:101CF000E8019093EC018093EB018091E9019091D0
:101D0000EA019093EE018093ED0180919902909108
:101D10009A029093E8018093E70180919B02909151
:101D20009C029093EA018093E901C4C3473099F083
:101D30008F5F8430F1F0282F30E0929FF001939F65
:101D4000F00D1124E452FC4F418D4111EFCF8093EF
:101D50005C04EF0110C0209721F0528D4A8D451789
:101D600038F7929FE001939FD00D1124C452DC4FAD
:101D7000DFCF80935C04209709F4DBC3D093C801C4
:101D8000C093C70183E08A8F888F1E8A84E08F8B7F
:101D90001B8E8091F1019091F2019D838C83809143
:101DA000EF019091F0019F838E838091E7019091E4
:101DB000E801998388838091E9019091EA019B83EE
:101DC0008A8381E0898F8091C2018C878091C301D1
:101DD0008D878091C4018E878091C5018F8781E0B6
:101DE00090E0998B888B8091F6018B878091F5012B
:101DF0008A878091F40189878091F301888781E047
:101E000090E00E945F208091FB01982F907F913598
:101E100008F444C082958F7090E00597880F991F51
:101E2000880F991F20913302ED2DF0E0E817F90794
:101E30008CF5E353FE4F26A9211105C0D0925C0416
:101E4000109233022BC0213011F4D394EDCF223005
:101E5000E1F437A93430C9F4D0925C042093330202
:101E600080AD90E0982F882721AD822B909335028A
:101E7000809334028130E2E09E0710F080E092E02F
:101E80009B8B8A8B9D8B8C8B09C037A9332311F0D8
:101E9000D30ECACFD0925C042093330280E18093AA
:101EA000FC018091FC0182608093FC0182E08093C0
:101EB000030294E0909304028093050210920602BC
:101EC0008CE290E09093CA018093C90180E6A0C2A1
:101ED000E8011093C8010093C7011092C6019091C8
:101EE000FC01F92FF470BF2E92FF03C0198E80E21F
:101EF00037C28091FB0182958F70880F880F809385
:101F00005C046701C81AD108760144E1E41AF108BB
:101F1000F092CA01E092C9012F70223021F4892F7A
:101F20008F73823111F1E114F10419F4892F837058
:101F3000E1F02091F301D80118968C91189728139D
:101F40005DC22091F40119968C911997281356C2FD
:101F50002091F5011A968C911A9728134FC220915F
:101F6000F6011B968C91281349C294FF63C0F801B7
:101F7000608971896115710509F45CC0C8010C960E
:101F80000E9497213091F7018091BC01381352C013
:101F90002091F8018091BD0128134CC09091F90166
:101FA0008091BE01981346C08091FA014091BF0113
:101FB000841340C0D8011C963C931C971D962C930B
:101FC0001D971E969C931E971F968C931F975B964A
:101FD0008C915B97811126C056969C915697589686
:101FE0008C9158975A962C915A97821B292F269597
:101FF00026952695821B980F56969C93569787FD9B
:10200000819557962C915797322F36953695231BED
:10201000820F57968C935797969596959695890F1C
:1020200058968C9381E08093C601F801808D828F51
:10203000118A108AD80159962C91E22FEF708E2FB9
:1020400090E0FC013197E830F10508F072C2EC5CD9
:10205000FF4F0C947A228091C60180FF6AC283E010
:10206000F801818F80E48093C601118A108AE114FF
:10207000F10409F403C182E48093C601C7010E9400
:102080005F20FCC08091C60180FF76C08091FC017A
:102090008F73823109F070C08091FB01982F907F7F
:1020A000913508F449C082958F7090E00597880FAC
:1020B000991F880F991F20913302EB2DF0E0E8174C
:1020C000F907B4F5E353FE4F26A9211105C0B092DC
:1020D0005C041092330230C0213011F4B394EDCF80
:1020E000223009F537A93430F1F4B0925C04209322
:1020F000330280AD90E0982F882721AD822B9093FA
:102100003502809334028130F2E09F0710F080E0C6
:1021100092E0D80153969C938E93529755969C9338
:102120008E93549709C037A9332311F0B30EC5CF4E
:10213000B0925C042093330283E0F801818F809198
:10214000F30180878091F40181878091F501828776
:102150008091F601838781E090E00E945F2082E415
:102160008093C601D80151961C921E9250971092EE
:10217000CA011092C90182C080E28093C6010E9408
:102180002305E801198E5BCD8091FC0180FF27C0FB
:1021900024FD25C0F80180899189892B09F0C9C1E6
:1021A000C60143970E945F208091C601982F9061DD
:1021B0009093C601EF2819F082618093C6010E94B6
:1021C000230581E090E0D80151969C938E9350971F
:1021D00088E059968C9359975B961C926DC085FF49
:1021E00015C08091010290E0982F8827309102025B
:1021F000832BAC014D5F5D4F5093CC014093CB01DD
:10220000E81AF90AF092CA01E092C9014091C901A5
:102210005091CA014115510551F024FD08C090911B
:10222000C60192609093C601CA010E945F2080910E
:10223000FD0190E0982F88272091FE01820F911DCB
:102240009093350280933402F80124893589281748
:10225000390710F0892B21F4309335022093340292
:102260008091340290913502D80153969C938E93BD
:1022700052978091C601837009F45BC110923902B4
:10228000109238020E9423058091C60185FF07C085
:102290001092390210923802198E84E1B0C084FF86
:1022A0000DC0109239021092380281E090E0998BB3
:1022B000888B84E0898F1B8E81E1A1C02091380238
:1022C0003091390221153105E1F080FF02C0198AF1
:1022D000188A88899989009781F48A899B8982174D
:1022E000930720F49093390280933802809138024A
:1022F00090913902998B888B04C090933902809316
:1023000038021B8E80913602909137029093CC0157
:102310008093CB018091380290913902892B59F03A
:1023200088899989009739F088969093CA0180939B
:10233000C90188E10BC08091C60181FFFAC088E223
:1023400090E09093CA018093C90180E18093FC01E1
:102350005EC08091C60180FFECC0E801198E80E16B
:102360008093C6010E942305E4C0E114F10419F032
:10237000C7010E945F209091FC018091C60190FFEF
:102380000EC080FF07C087E0F801818F128E118A8E
:10239000108A1BC086E0D80159968C9316C080FF26
:1023A0001EC085E0E801898F198A188AC2C0E1142D
:1023B000F10419F0C7010E945F208091FC0180FFA9
:1023C0000EC087E0F801818F128E81E090E00E94BC
:1023D0005F2080E18093C6010E9423050FC0EF2893
:1023E00069F4A7C08091C60180FFA3C087E0D8012F
:1023F00059968C9359975A961C929BC080E1809372
:10240000FC0188E290E09093CA018093C90180E5C5
:102410008093FB0188858093F70189858093F8017B
:102420008A858093F9018B858093FA018C8580934E
:10243000F3018D858093F4018E858093F5018F855E
:102440008093F60186E08093E4018C819D819093D6
:10245000F0018093EF018E819F819093F201809330
:10246000F1018091990290919A029093E8018093F2
:10247000E70180919B0290919C029093EA018093E6
:10248000E901888199819093EC018093EB018A8125
:102490009B819093EE018093ED01898D84FF05C0AF
:1024A0001092FE011092FD0105C082E08093FD01B3
:1024B0001092FE0180E48093E3018091C901909124
:1024C000CA019093DD018093DE0110920202109206
:1024D0000102109200021092FF0186E00E94A01CEF
:1024E00080959095909300028093FF0185E48093FE
:1024F000DB011092DC011092E2011092E101809167
:10250000310290913202019690933202809331020F
:102510009093DF018093E0011092E6011092E501B3
:102520000E942C1D809590959093E6018093E50183
:1025300004C01092CA011092C9011092C601DF9125
:10254000CF911F910F91FF90EF90DF90CF90BF90B0
:1025500008950F931F93CF93DF93DC012091DA034B
:102560003091DB032F5F3F4F21158DE7380710F0C7
:1025700020E030E1522F432FEEEAF3E080E0843098
:1025800041F0C481D5818F5F3B96C417D507B9F759
:10259000E9CF3093DB032093DA0390E08BE09430B3
:1025A000D1F0292F30E041E0490F829FF001839F55
:1025B000F00D1124E255FC4FEF01249604811581A2
:1025C000012B39F490935C04309741F480E090E063
:1025D0002EC0942FE4CF90935C04F8CF8091DA035F
:1025E0009091DB039827892798279983888377839D
:1025F0006683109729F410821182128213820BC015
:102600008D919C9111979183808312968D919C91CD
:102610001397938382838BE0829FD001839FB00DB9
:102620001124A255BC4F80E418968C93CF01DF9102
:10263000CF911F910F910895CF92DF92EF92FF9269
:102640000F931F93CF93DF936C017A018B01C0E04E
:10265000D0E0CE15DF0589F0D8016D918D01D6014E
:10266000ED91FC910190F081E02DC6010995892B37
:1026700011F47E0102C02196ECCFC701DF91CF910A
:102680001F910F91FF90EF90DF90CF900895FC0184
:10269000538D448D252F30E0842F90E0821B930BC7
:1026A000541710F0CF96089501970895FC01918D6D
:1026B000828D981761F0828DDF01A80FB11D5D96A4
:1026C0008C91928D9F5F9F73928F90E008958FEF12
:1026D0009FEF0895FC01918D828D981731F0828DC6
:1026E000E80FF11D858D90E008958FEF9FEF08951D
:1026F000FC01918D228D892F90E0805C9F4F821B81
:1027000091098F739927089581EC94E00E947813C2
:1027100021E0892B09F420E0822F0895FC01848DAB
:10272000DF01A80FB11DA35ABF4F2C91848D90E0FB
:1027300001968F739927848FA689B7892C93A089D6
:10274000B1898C9180648C93938D848D981306C08D
:102750000288F389E02D80818F7D80830895EF9238
:10276000FF920F931F93CF93DF93EC0181E0888F4B
:102770009B8D8C8D981305C0E889F989808185FD32
:1027800024C0F62E0B8D10E00F5F1F4F0F73112723
:10279000E02E8C8DE8120CC00FB607FCFACFE8894A
:1027A000F989808185FFF5CFCE010E948E13F1CF8C
:1027B0008B8DFE01E80FF11DE35AFF4FF0820B8F66
:1027C000EA89FB898081806207C0EE89FF89608386
:1027D000E889F98980818064808381E090E0DF91DD
:1027E000CF911F910F91FF90EF900895CF93DF93BA
:1027F000EC01888D8823C9F0EA89FB89808185FDF9
:1028000005C0A889B9898C9186FD0FC00FB607FC59
:10281000F5CF808185FFF2CFA889B9898C9185FF9A
:10282000EDCFCE010E948E13E7CFDF91CF910895B7
:1028300080E090E0892B29F00E94841381110C9490
:10284000000008953FB7F8948091890290918A0220
:10285000A0918B02B0918C0226B5A89B05C02F3F9A
:1028600019F00196A11DB11D3FBFBA2FA92F982FB6
:102870008827820F911DA11DB11DBC01CD0142E031
:10288000660F771F881F991F4A95D1F708950E94F8
:10289000AD236115710579F0FB0101900020E9F786
:1028A0003197AF01461B570BDC01ED91FC91028083
:1028B000F381E02D099480E090E008954F925F92BB
:1028C0006F927F92EF92FF920F931F93CF93DF93BC
:1028D000CDB7DEB7A1970FB6F894DEBF0FBECDBF60
:1028E0007C01FA01CB0119A2223008F42AE08E0102
:1028F0000F5D1F4F422E512C612C712CBF01A30183
:1029000092010E945822F901CA01015011096A304E
:1029100014F4605D01C0695CD8016C93232B242BF7
:10292000252B61F7B801C7010E944914A1960FB683
:10293000F894DEBF0FBECDBFDF91CF911F910F91F5
:10294000FF90EF907F906F905F904F9008958F92DF
:102950009F92AF92BF92CF92DF92EF92FF920F932E
:102960001F93CF93DF937C01EB016C0182E0C80ED3
:10297000D11C4701E5E08E0E911C00E010E0F6014D
:1029800041916F0150E060E070E02AE0CE010E94CA
:102990005E145C01E881F9810190F081E02D6EE226
:1029A000CE0109958A0D9B1D080F191FC814D90463
:1029B00031F7F701458150E060E070E02AE0CE0198
:1029C0000E945E14800F911FDF91CF911F910F9194
:1029D000FF90EF90DF90CF90BF90AF909F908F903F
:1029E00008951F920F920FB60F9211242F933F93C9
:1029F0004F935F936F937F938F939F93AF93BF9307
:102A0000EF93FF9381EC94E00E948E13FF91EF917E
:102A1000BF91AF919F918F917F916F915F914F91F6
:102A20003F912F910F900FBE0F901F9018951F92FE
:102A30000F920FB60F9211242F938F939F93EF93C2
:102A4000FF93E091D104F091D2048081E091D7040A
:102A5000F091D80482FD12C090818091DA048F5FDA
:102A60008F732091DB04821751F0E091DA04F0E0DB
:102A7000EF53FB4F958F8093DA0401C08081FF9163
:102A8000EF919F918F912F910F900FBE0F901F90FC
:102A9000189590E0FC01EC54FF4F3491FC01E05696
:102AA000FF4F2491FC01E457FF4FE491EE2309F41A
:102AB0003BC0332339F1333091F038F43130A9F091
:102AC000323001F584B58F7D12C0373091F0383047
:102AD000A1F03430B9F4809180008F7D03C08091E3
:102AE00080008F77809380000DC084B58F7784BD80
:102AF00009C08091B0008F7703C08091B0008F7DB6
:102B00008093B000F0E0EE0FFF1FEE57FF4FA5914E
:102B1000B4918FB7F894EC91611103C020952E23E6
:102B200001C02E2B2C938FBF0895CF93DF9390E09D
:102B3000FC01E056FF4F2491FC01E457FF4F8491C4
:102B4000882361F190E0880F991FFC01E858FF4F3E
:102B5000C591D491FC01EE57FF4FA591B49161113D
:102B600009C09FB7F8948881209582238883EC91CF
:102B70002E230BC0623061F49FB7F8943881822F06
:102B8000809583238883EC912E2B2C939FBF06C0C6
:102B90008FB7F894E8812E2B28838FBFDF91CF91D8
:102BA00008958F929F92AF92BF92CF92DF92EF9251
:102BB000FF926B017C010E9422144B015C01C11445
:102BC000D104E104F104F1F00E942214DC01CB01F4
:102BD00088199909AA09BB09883E9340A105B10546
:102BE00070F321E0C21AD108E108F10888EE880EDE
:102BF00083E0981EA11CB11CC114D104E104F104AE
:102C000019F7DDCFFF90EF90DF90CF90BF90AF909E
:102C10009F908F9008952FB7F894609185027091DE
:102C2000860280918702909188022FBF08951F929B
:102C30000F920FB60F9211242F933F938F939F9370
:102C4000AF93BF938091850290918602A0918702F5
:102C5000B09188023091840223E0230F2D3720F4B5
:102C60000196A11DB11D05C026E8230F0296A11DE6
:102C7000B11D209384028093850290938602A093D5
:102C80008702B09388028091890290918A02A09174
:102C90008B02B0918C020196A11DB11D8093890217
:102CA00090938A02A0938B02B0938C02BF91AF9154
:102CB0009F918F913F912F910F900FBE0F901F907A
:102CC00018958823E9F0ADE9B2E025E014969C91CF
:102CD000149798130DC095E0899FF0011124E356D5
:102CE000FD4F848114968C9313821282148208956E
:102CF000992331F0299FD0011124A356BD4FE6CF6F
:102D000008950F931F93CF93DF931F92CDB7DEB734
:102D1000182F062F60E08AE049830E944915802F12
:102D20008F71812B8EBD49810DB407FEFDCF4EBD45
:102D30000DB407FEFDCF61E08AE00F90DF91CF91E7
:102D40001F910F910C9449151F93CF93DF93182F68
:102D50001076C12FD0E02091000130E0C217D307D8
:102D600089F043E06FE180EA0E948116AE0185E0C0
:102D7000559547958A95E1F76FE180E80E948116A5
:102D800010930001DF91CF911F9108951F93CF936E
:102D9000DF9300D0CDB7DEB7182F69837A830E9406
:102DA000A4164981612F80E40E94811661E0610FC1
:102DB0007A81472F80E40F900F90DF91CF911F9180
:102DC0000C9481161F93CF93DF931F92CDB7DEB77C
:102DD000182F69830E94A4164981612F80E40F9007
:102DE000DF91CF911F910C948116CF93DF93C82F61
:102DF000D62F60E08AE00E9449158D2F8F71C82B75
:102E0000CEBD0DB407FEFDCF1EBC0DB407FEFDCF39
:102E1000D7FD08C061E08AE00E9449158EB5DF91B8
:102E2000CF9108951EBC0DB407FEFDCFF3CFCF9315
:102E3000DF931F92CDB7DEB7682F69830E94A41677
:102E4000698180E00F90DF91CF910C94F516CF93BC
:102E5000DF93EB01682F84ED0E94E216BE0186ED40
:102E60000E94C616CFE0D0E08AEE0E94171780FFBE
:102E700008C06AE070E080E090E00E94D1152197E0
:102E800099F7DF91CF910895CF93C62FBC0182E0CF
:102E90000E94C61660E08AE00E9449158AE78EBD4E
:102EA0000DB407FEFDCFCEBD0DB407FEFDCF61E032
:102EB0008AE0CF910C944915BC0180E00E94C616AF
:102EC00060E08AE00E9449158AE38EBD0DB407FEDA
:102ED000FDCF1EBC0DB407FEFDCF61E08AE00E946D
:102EE00049158EB50895CF92DF92EF92FF920F931E
:102EF0001F93CF93DF936C018B014130510579F41F
:102F0000CB010E945C17682FC601DF91CF911F9102
:102F10000F91FF90EF90DF90CF900C944417EA014F
:102F2000C60FD71F7E0181E0E81AF10880E10E94F8
:102F3000C616B60184E10E94C6160115184038F481
:102F4000E11488E0F80618F07E0188E0F81AB7016D
:102F500082E10E94C61640E16FE180EA0E9481167C
:102F600040E26FE180E80E9481166FE180E00E94FC
:102F7000F51685FF07C061E070E080E090E00E94F8
:102F8000D115F3CFDF91CF911F910F91FF90EF906B
:102F9000DF90CF900895CF92DF92EF92FF920F9340
:102FA0001F93CF93DF938C0160919D0270919E02DD
:102FB0006150784EC12C98E1D92EEDE9F2E080E025
:102FC000C0E0D0E045E09481992349F0499F900109
:102FD000112423563D4FD9012D913C9101C09B01F5
:102FE000E080F1802E193F090280F381E02D2E1B35
:102FF0003F0B2017310739F4B5E08B9FE001112416
:10300000C356DD4F49C00217130748F42C153D0580
:1030100030F4489FE0011124C356DD4F690191113E
:1030200007C02097C9F5CDE9D2E085E0D82E1EC0B3
:10303000499FF0011124E356FD4F892FC4CFEA8048
:10304000FB8028813981E20EF31ED89EE001112415
:10305000C356DD4F68817981E616F70639F04A815B
:103060005B81C7010E947317F982E8828C8181110C
:10307000E6CF20919D0230919E0288819981281B84
:10308000390B8A819B81281B390B2150384E201720
:10309000310710F480E01AC091E0E2EAF2E0228108
:1030A0003381232B29F035969F5F9533C1F7F2CFFB
:1030B0004A815B8128813981240F351F3183208328
:1030C000138302838C8184839C83892FDF91CF912A
:1030D0001F910F91FF90EF90DF90CF9008950F9385
:1030E0001F93DB01E42FA80190E0EF3F09F165E0B9
:1030F000E69FF0011124E356FD4F02C0E9EAF3E038
:103100000190F081E02D2E0F3F1F65E0689FF001D8
:10311000699FF00D1124E356FD4F80819181B90123
:103120008A0F9B1F0E9473171F910F910C94E00947
:10313000E091A903F091AA03E20FF31FE11568E003
:10314000F607E0F29F012F5F3740DFCFCF92DF928B
:10315000EF92FF920F931F93CF93DF937B018A012E
:10316000690125E0829FC0011124EC01C356DD4FA7
:10317000688179816E0D7F1D82E00E94C6160A80EB
:10318000DB81C02DCE19DF09CC16DD0608F4E6017F
:1031900060E08AE00E9449158AE78EBD0DB407FE03
:1031A000FDCFC8018C0F9D1F0817190741F0F801CA
:1031B00021918F012EBD0DB407FEFDCFF5CF61E04B
:1031C0008AE00E944915CE01DF91CF911F910F91A6
:1031D000FF90EF90DF90CF900895EF92FF920F93C2
:1031E0001F93CF93DF938B017A018F3FD1F025E0BE
:1031F000829FE0011124C356DD4F02C0C9EAD3E02B
:1032000088819981B801680F791F80E00E94C616F5
:103210008A819B81801B910BE816F90690F4C70107
:1032200010C08091A9039091AA03860F971F811562
:1032300028E0920718F3BC016F5F7740C9EAD3E03A
:10324000E4CFDF91CF911F910F91FF90EF90089500
:103250008823A1F09091A603992381F08F3F29F450
:103260008091AB039091AC03089595E0899FF001A4
:103270001124E356FD4F82819381089580E090E010
:103280000895DC011C96ED91FC911D97309731F06B
:1032900086819781982789279827089580E090E074
:1032A0000895CF93DF93FC01EB01AC85BD851097AA
:1032B00091F012969C91129713968C9113973C91D2
:1032C00011962C914FE951E051834083328323833F
:1032D0009483858308C08FE991E091838083128273
:1032E000138214821582CF01DF91CF910895CF937D
:1032F000DF931F92CDB7DEB7DC01ED91FC91048C1A
:10330000F58DE02D41E050E0BE016F5F7F4F0995E4
:10331000181619061CF4898190E002C08FEF9FEF08
:103320000F90DF91CF910895CF93DF931F92CDB788
:10333000DEB76983DC01ED91FC910280F381E02D21
:1033400041E050E0BE016F5F7F4F09950F90DF9124
:10335000CF91089580E00895CF93DF931F92CDB76A
:10336000DEB76983DC01ED91FC910280F381E02DF1
:1033700041E050E0BE016F5F7F4F09950F90DF91F4
:10338000CF910895FB0141505109460F571FE41793
:10339000F50778F4208130E0322F22276181260F53
:1033A000311D820F931F8217930708F401963296FE
:1033B000EECFE417F50751F4208130E0322F2227B9
:1033C000820F931F8217930708F401960895CF93F5
:1033D000DF93EC010E941F0289890E946116198AFD
:1033E000DF91CF910895CF93DF93EC010E941F02EC
:1033F0008989DF91CF910C942819CF93DF93EC0149
:103400000E941F02898981110E9461168889898B17
:10341000188ADF91CF910C942819FC012481358101
:1034200080E0843099F0E82FF0E091E0980FEE0F03
:10343000FF1FEC5AFB4F40815181452B29F48093AB
:103440005C043183208304C0892FEBCF80935C041C
:103450000C941F020F931F93CF93DF931F92CDB74E
:10346000DEB78C010E941F02F8018189882361F078
:1034700041E050E0BE016F5F7F4F0E94341E019714
:1034800019F4898190E002C08FEF9FEF0F90DF91D8
:10349000CF911F910F910895DF92EF92FF920F93BA
:1034A0001F93CF93DF9300D000D0CDB7DEB77C0160
:1034B0004B835C8369837A830E941F02F7018189B1
:1034C0004B815C8169817A81882329F10E94341EB5
:1034D0008C01F701D1888D2D0E9428190817190732
:1034E00031F48D2D0E946116F701118A12C085E01A
:1034F000D89EF0011124E356FD4F80819181800F09
:10350000911F9183808382819381801B910B938390
:103510008283C80102C080E090E00F900F900F906E
:103520000F90DF91CF911F910F91FF90EF90DF905F
:103530000895CF93DF93EC018A89882369F09A017B
:10354000AB016E857F850E94A6182E853F85280FCA
:10355000391F3F872E8702C080E090E0DF91CF9136
:103560000895CF92DF92EF92FF920F931F93CF9324
:10357000DF9300D000D0CDB7DEB78C016B017A01AC
:103580000E941F02F60182819381A481B581892B5B
:103590008A2B8B2B41F1E114F10429F1828190E017
:1035A000982F88272381822B9827892798279A8309
:1035B0008983248130E0322F22274581242B322732
:1035C000232732273C832B83D8011C96ED91FC9155
:1035D0001D977E2D6F2D309729F177836683918318
:1035E000808333832283D8011C968D919C911D97F3
:1035F000892BA9F052968C91811111C086E096E03A
:103600000E94CB17F801828B2AE230E037872687A9
:1036100021E090E0811101C020E0822F15C080E000
:1036200090E012C0CE0101960E94A912D8011D9609
:103630009C938E931C97009791F39801225F3F4FC4
:10364000FC0132872187CFCF0F900F900F900F9002
:10365000DF91CF911F910F91FF90EF90DF90CF906E
:1036600008950F931F93CF93DF93EC018B018C850B
:103670009D85892B41F460E070E080E090E00E943D
:10368000A9129D878C87EC85FD85309751F0102716
:1036900001271027158304832E96D287C18781E0E6
:1036A00001C080E0DF91CF911F910F910895CF93DA
:1036B000DF93DC011C96ED91FC911D973097B1F0E2
:1036C000EC0115821482128611861D861C8689895A
:1036D0000E94611688890E9461168A890E9461167B
:1036E0002E9686E0FE0111928A95E9F7DF91CF913F
:1036F00008959F92AF92BF92CF92DF92EF92FF9286
:103700000F931F93CF93DF938C017B016A01C0E479
:10371000D2E0A12CB12C8EE1982E288124FF18C074
:1037200030E02F70929EF001939EF00D1124E45230
:10373000FC4F24813581F801848195812817390750
:1037400039F4A601B701CE010E945F06A80EB91E8A
:103750006196F2E0C438DF0701F7C501DF91CF9130
:103760001F910F91FF90EF90DF90CF90BF90AF909F
:103770009F900895FF920F931F93CF93DF93E09153
:10378000C001F091C101C185D285209709F451C0D3
:103790008091C60181FF31C0FA80F1102EC0809166
:1037A000EF019091F001978386838091E7019091DA
:1037B000E801918380838091E9019091EA019383EC
:1037C00082838091F3019091F401982789279827AB
:1037D000089719F00E94CB17F82EFA82FF2069F0A3
:1037E0008F2D0E9428198C012AE230E040918E0230
:1037F00060E070E08F2D0E946F188091C60183FFFA
:1038000018C08D818823A9F08C81809390028AE270
:1038100080938D02688179816A5271098091CB0110
:103820009091CC01DF91CF911F910F91FF900C945B
:10383000560BDF91CF911F910F91FF900895FC01DE
:103840001382128288EE93E0A0E0B0E08483958337
:10385000A683B78389E391E09183808315861486DC
:103860003E9686E0DF011D928A95E9F70895CF9292
:10387000DF92EF92FF920F931F93CF93DF93CDB719
:10388000DEB7AA970FB6F894DEBF0FBECDBF7C019E
:103890006A010FE911E01A8309831B821C821D82D1
:1038A0001E82CE01099669A77AA70E941F1C1E8F4F
:1038B0000D8F1F8E18A219A21AA2809160059091F7
:1038C0006105A0916205B09163058DA39EA3AFA38E
:1038D000B8A78B839C83AD83BE8318861F82AE01FD
:1038E000435E5F4F69A57AA5CE0101960E94F1065D
:1038F00081309105B1F4D701ED91FC910488F589EF
:10390000E02D1CA30BA38F8D98A1A9A1BAA18DA313
:103910009EA3AFA3B8A7A601BE016D5D7F4FC701EF
:103920000995AA960FB6F894DEBF0FBECDBFDF9102
:10393000CF911F910F91FF90EF90DF90CF9008955E
:10394000EF92FF920F931F93CF93DF93C82FE090D6
:10395000DE01F12C84E1E81AF1082091DD0130E06C
:10396000322F2227E20EF31E48E050E067EE71E0AE
:10397000C7018C0F911D0E94C219C13131F0C09155
:10398000FB01C695C695CC7301C0C8E0D0E0AE017E
:103990006FEE71E00E94C2198C01CE15DF0508F0B0
:1039A0004CC0A7014C1B5D0BBE016E5D7F4F80912B
:1039B00090020E94ED18EC01219760E08AE00E94DD
:1039C00049158AE38EBD0DB407FEFDCFA80160E066
:1039D00070E06C177D07C8F41EBC0DB407FEFDCF68
:1039E0002EB530E0322F22271EBC0DB407FEFDCFCE
:1039F0008EB5280F311D420F531F4217530710F485
:103A00004F5F5F4F6E5F7F4FE4CF8A016C177D077A
:103A100081F41EBC0DB407FEFDCF8EB590E0982F4B
:103A200088278A01080F191F0817190710F40F5F5C
:103A30001F4F61E08AE00E9449150115110519F038
:103A4000902F812F02C08FEF9FEFDF91CF911F91B9
:103A50000F91FF90EF90089544E150E06BED71E01D
:103A600080E090E00E94C219009721F098278927F2
:103A7000982708958FEF9FEF0895CF92DF92EF92EE
:103A8000FF920F931F93CF93DF93C0918F028C2FE0
:103A90008270C1FF0FC020918D0230E04DEC51E0EB
:103AA00060E070E0809190020E94A618CD7FC093E4
:103AB0008F0219C02091C9013091CA012115310529
:103AC00019F0C9010E94CB1780939002882309F452
:103AD00075C02091C9013091CA014DEC51E060E000
:103AE00070E00E94A618C09090028091A6038823DF
:103AF00009F45DC085E0C89EF0011124E356FD4F36
:103B0000C081D1812197028113810C0F1D1FCE012D
:103B10000E945C17D82E882321F060E0CE010E941D
:103B20004417BE0184E00E94C616B80186E00E94D8
:103B3000C6160AE010E040E86FE180E80E948116B6
:103B400040E86FE180EA0E9481164AE06CE180EA79
:103B50000E94811648E06FE180E80E94811684E6A9
:103B6000E82EF12C8CE10E9417178A7069F4E11499
:103B7000F10461F081E0E81AF1086AE070E080E0A9
:103B800090E00E94D115EECFEF2849F448E06FE1B4
:103B900080EA0E9481160150110969F608C0012BC4
:103BA00031F0DD2021F06D2DCE010E9444178C2DC7
:103BB0000E9461161092900281E001C080E0DF91C6
:103BC000CF911F910F91FF90EF90DF90CF900895CC
:103BD000CF93DF93EC010E94F9092091C901309144
:103BE000CA0190918F022A32310521F4109290027D
:103BF0009D7F03C01D821C82926090938F02DF9193
:103C0000CF910C943D1DCF93DF93EC018C859D8566
:103C1000892B19F480E090E024C0EA89EE23D1F3E7
:103C200081E08B8B8E859F8525E0E29FF00111243A
:103C3000E356FD4F938382838C859D859093C101CC
:103C40008093C00185E00E946A0B8091C901909128
:103C5000CA01892BF9F2CE010E960E94E81D81E07F
:103C600090E0DF91CF9108950F931F93CF93DF934F
:103C7000EB0160E070E00E94ED188C0160E08AE0EA
:103C80000E9449158AE38EBD0DB407FEFDCFCE011B
:103C9000800F911FC817D90739F01EBC0DB407FE5D
:103CA000FDCF2EB52993F6CF61E08AE00E94491539
:103CB000C801DF91CF911F910F910895EF92FF926C
:103CC0000F931F93CF93DF93CDB7DEB7C254D109C3
:103CD0000FB6F894DEBF0FBECDBF8C01FB01828111
:103CE0009381A481B58123968CAF9DAFAEAFBFAF5A
:103CF000239721E023962FAF239723964CAD5DADFC
:103D00006EAD7FAD23974BAB5CAB6DAB7EAB89AF3C
:103D10009AAFABAFBCAF8DA79EA7AFA7B8AB28AB90
:103D20004DA55EA56FA578A94FA358A769A77AA747
:103D30002EAB4BA95CA96DA97EA949A35AA36BA37D
:103D40007CA38B8F9C8FAD8FBE8F2AA74FA158A5C8
:103D500069A57AA54D8B5E8B6F8B788F2CA349A1BB
:103D60005AA16BA17CA14F87588B698B7A8B89876D
:103D70009A87AB87BC870E940B16DC01CB0186506B
:103D80009F4FAF4FBF4F8093BC049093BD04A0934F
:103D9000BE04B093BF041092AA031092A90310921C
:103DA000AC031092AB0389E091E0EDE9F2E0DF01B2
:103DB0009C011D9221503040E1F781E098E0909302
:103DC0009E0280939D0261E08AE00E94951561E069
:103DD0008AE00E94491561E08BE00E94951561E040
:103DE0008DE00E94951560E08CE00E94951560E0E2
:103DF0008BE00E94491560E08DE00E94491580E546
:103E00008CBD8DB581608DBD4FEF60E08FEF0E945E
:103E1000811662E070E080E090E00E94D11562E3DC
:103E200070E080E090E00E94D1151092A8031092FB
:103E3000A703B0E1EB2EF12C6DE180E00E94F516B6
:103E400081110BC031E0E31AF10839F06AE070E04B
:103E500080E090E00E94D115EFCF60E070E088E054
:103E60000E94C61660E070E08CE00E94C6166FEFFC
:103E700077E08AE00E94C61661EB88E30E94E216B2
:103E80006FE370E388E20E94C61669EF77EF80E384
:103E90000E94C6166DE070E080EC0E94C61642E3F8
:103EA00062EC80E80E94811662E17CE086EC0E9470
:103EB000C61662E184EC0E94E2166CED75E08AECB5
:103EC0000E94C616F801608184EE0E94E216D801B5
:103ED00011966C9185EE0E94E216F801628182EEE5
:103EE0000E94E216D80113966C9183EE0E94E216AE
:103EF000F801648180EE0E94E216D80115966C915B
:103F000081EE0E94E21660E071E080E10E942717D6
:103F10008FE10E94A41640EC6BE180E80E948116BC
:103F200044E06FE180E80E94811666E774E084E176
:103F30000E94271782E70E9417178F3F09F0BCC025
:103F40001092A603D8018C918093B60411968C919F
:103F500011978093B70412968C9112978093B804AE
:103F600013968C9113978093B90414968C9114979F
:103F70008093BA0415968C918093BB0480E0E82F5F
:103F8000F0E0EE0FFF1FEC5AFB4F118210828F5FA3
:103F90008430A9F780E09EE1989FF0011124E4525B
:103FA000FC4F118E8F5F8430B9F780E094E09093DE
:103FB000DB038093DA0380E09BE0989FF0011124FB
:103FC000E255FC4F158214828F5F8430B1F78093E5
:103FD0005C041092B5049BE08091B504883068F4CD
:103FE000989FF0011124E35AFB4F10821182128234
:103FF00013828F5F8093B504EFCF7D894E896F89DF
:1040000051E05A8B8F859889A989BA898B839C83C3
:10401000AD83BE838B8590E0982F88272C85822BDB
:10402000982789279827298530E0322F2227EA858B
:104030002E2B32272327322730939A02209399027E
:1040400090939C0280939B02842F90E0972B94275F
:10405000892798279093960280939502862F90E067
:10406000916090939802809397028FEF9FEF9093C7
:104070009202809391028FEF90E09093940280934C
:1040800093025E838B819C81AD81BE8180936005AC
:1040900090936105A0936205B0936305CE5BDF4FFB
:1040A0000FB6F894DEBF0FBECDBFDF91CF911F9149
:1040B0000F91FF90EF9008958093A60343CFCF9385
:1040C000DF93C091C701D091C801BC01CE01089611
:1040D0000E949721ECEBF1E08081888781818987BC
:1040E00082818A8783818B87DF91CF910895CF93D7
:1040F000DF93CDB7DEB764970FB6F894DEBF0FBE7F
:10410000CDBF789484B5826084BD84B5816084BD60
:1041100085B5826085BD85B5816085BD80916E0065
:10412000816080936E001092810080918100826096
:1041300080938100809181008160809381008091D3
:1041400080008160809380008091B10084608093C2
:10415000B1008091B00081608093B00080917A00BE
:10416000846080937A0080917A00826080937A00E4
:1041700080917A00816080937A0080917A008068D3
:1041800080937A001092C100E091D104F091D204A2
:1041900082E08083E091CD04F091CE041082E09122
:1041A000CF04F091D0048FEC80831092D904E09179
:1041B000D504F091D60486E08083E091D304F09199
:1041C000D404908190619083E091D304F091D40461
:1041D000908198609083E091D304F091D404908111
:1041E00090689083E091D304F091D40490819F7DF6
:1041F0009083EDE0F1E0DE011F96982F01900D9283
:104200009A95E1F72FE931E03A83298390EC9B837B
:1042100098EA9C831D828E83BE016F5F7F4FCE0123
:104220000F960E945E1E8AE695E00E940D1A8EE1AE
:10423000782E98EE892E93E0992EA12CB12C27E1AF
:10424000C22E21E0D22E0E941F0220916E053091D5
:104250006F05E0E4F2E08181882331F1808184FF01
:104260001CC0482F50E04F70749ED001759EB00D59
:104270001124A452BC4F14964D915C91159742178E
:10428000530759F41C821B828D829E82AF82B886AE
:10429000DA82C982FE87ED8716C086FF05C0868157
:1042A00097818217930771F3719682E0E438F807DB
:1042B00091F61C821B828D829E82AF82B886DA8242
:1042C000C9821E861D86CE0101960E943B0488236A
:1042D00059F1CE0101960E94E4008C01892BA1F0D6
:1042E000C8010E9480227C01A801BC01CE01019678
:1042F0000E948101AC01B70181EC94E00E941C1383
:10430000C7010E941523E5CF67EA71E0CE0101964F
:104310000E94491469EB71E0CE0101960E94491494
:10432000CE0101960E9451040E9418148CCFFC010A
:104330002381260F2093BF01A72FBB2792819A0FBD
:104340009093BE0131813093BD0140814093BC0107
:10435000E92FF0E0EA17FB0748F481E0830F809330
:10436000BD01811103C04F5F4093BC0130E077274E
:104370002617370788F49F5F9093BE0191110CC0F8
:104380008091BD018F5F8093BD01811105C0809137
:10439000BC018F5F8093BC010895CF93DF93E0E76A
:1043A000F5E0CFE9D1E0D183C08312821382148279
:1043B0001582E1ECF4E01382128288EE93E0A0E033
:1043C000B0E084839583A683B78381E691E09183EF
:1043D000808385EC90E09587848784EC90E09787D4
:1043E000868780EC90E0918B808B81EC90E0938BC2
:1043F000828B82EC90E0958B848B86EC90E0978B9F
:10440000868B118E128E138E148EE6E7F5E0D18323
:10441000C0831282138214821582ECE7F5E0D18307
:10442000C0831282138214821582E5EDF5E0D183F8
:10443000C0831282138214821582EEE5F5E0D183E7
:10444000C083128213821482158281EC95E00E944F
:104450001F1CEBEDF5E0D183C0831282138214821E
:104460001582E4E6F5E0D183C083128213821482C0
:104470001582E1EEF5E0D183C083128213821482AB
:104480001582E7EEF5E0D183C08312821382148295
:104490001582EAE6F5E01382128285E891E09183C5
:1044A000808383E098EE95838483DF91CF91089594
:1044B000A1E21A2EAA1BBB1BFD010DC0AA1FBB1F28
:1044C000EE1FFF1FA217B307E407F50720F0A21B9A
:1044D000B30BE40BF50B661F771F881F991F1A9407
:1044E00069F760957095809590959B01AC01BD0131
:1044F000CF010895EE0FFF1F0590F491E02D099470
:10450000CF93DF938230910510F482E090E0E09148
:10451000EF05F091F00520E030E0C0E0D0E030970A
:1045200011F14081518148175907C0F048175907C8
:1045300061F482819381209719F09B838A832BC039
:104540009093F0058093EF0526C02115310519F0F1
:104550004217530718F49A01BE01DF01EF010280F0
:10456000F381E02DDCCF2115310509F1281B390B32
:104570002430310590F412968D919C91139761151A
:10458000710521F0FB019383828304C09093F005B1
:104590008093EF05FD01329644C0FD01E20FF31F49
:1045A00081939193225031092D933C933AC02091ED
:1045B000ED053091EE05232B41F42091030130915C
:1045C00004013093EE052093ED0520910101309117
:1045D00002012115310541F42DB73EB74091050187
:1045E00050910601241B350BE091ED05F091EE058D
:1045F000E217F307A0F42E1B3F0B2817390778F0BA
:10460000AC014E5F5F4F2417350748F04E0F5F1F18
:104610005093EE054093ED058193919302C0E0E045
:10462000F0E0CF01DF91CF9108950F931F93CF93C7
:10463000DF93009709F48CC0FC0132971382128239
:104640000091EF051091F0050115110581F420810D
:104650003181820F931F2091ED053091EE052817CF
:10466000390779F5F093EE05E093ED0571C0D801B7
:1046700040E050E0AE17BF0750F412962D913C91E8
:104680001397AD012115310509F1D901F3CF9D0132
:10469000DA013383228360817181860F971F82172D
:1046A000930769F4EC0128813981260F371F2E5FAB
:1046B0003F4F318320838A819B8193838283452B63
:1046C00029F4F093F005E093EF0542C01396FC93B4
:1046D000EE931297ED01499159919E01240F351FD8
:1046E000E217F30771F480819181840F951F029680
:1046F00011969C938E938281938113969C938E93B3
:104700001297E0E0F0E0D80112968D919C911397FA
:10471000009719F0F8018C01F6CF8D919C919801CA
:104720002E5F3F4F820F931F2091ED053091EE05D4
:104730002817390769F4309729F41092F005109280
:10474000EF0502C0138212821093EE050093ED056F
:10475000DF91CF911F910F91089581E090E0F8943F
:104760000C94C223FB01DC0102C001900D92415068
:104770005040D8F70895DC0101C06D93415050407E
:08478000E0F70895F894FFCF63
:10478800FF0000F1058000FFFFFFFFFFFF000102AF
:1047980003040500000000DD06D806DA005201E433
:1047A800008F0013016E047B0981015104BD003B99
:1047B80004AB00CF00000000009419991ADA00E752
:1047C80019F31977192A1A311BAA19571BB11A3765
:1047D8001C031EFD194C1ADD005119411900000077
:1047E80000AF131C134713F613781356136A1300FC
:1047F80000000047141C13DA00D900471447144777
:104808001400000000AC19791BDA00D9000D1A0059
:1048180000000047141C13DA00D90000000000A7AC
:1048280014000000004714444154412066726F6D23
:0C4838002053657276657221000D0A00A5
:107E0000112484B714BE81FFF0D085E080938100F7
:107E100082E08093C00088E18093C10086E0809377
:107E2000C20080E18093C4008EE0C9D0259A86E02C
:107E300020E33CEF91E0309385002093840096BBD3
:107E4000B09BFECF1D9AA8958150A9F7CC24DD24C4
:107E500088248394B5E0AB2EA1E19A2EF3E0BF2EE7
:107E6000A2D0813461F49FD0082FAFD0023811F036
:107E7000013811F484E001C083E08DD089C08234E0
:107E800011F484E103C0853419F485E0A6D080C0E4
:107E9000853579F488D0E82EFF2485D0082F10E0AE
:107EA000102F00270E291F29000F111F8ED06801E7
:107EB0006FC0863521F484E090D080E0DECF843638
:107EC00009F040C070D06FD0082F6DD080E0C81688
:107ED00080E7D80618F4F601B7BEE895C0E0D1E017
:107EE00062D089930C17E1F7F0E0CF16F0E7DF06D8
:107EF00018F0F601B7BEE89568D007B600FCFDCFD4
:107F0000A601A0E0B1E02C9130E011968C91119780
:107F100090E0982F8827822B932B1296FA010C0160
:107F200087BEE89511244E5F5F4FF1E0A038BF0790
:107F300051F7F601A7BEE89507B600FCFDCF97BE46
:107F4000E89526C08437B1F42ED02DD0F82E2BD052
:107F50003CD0F601EF2C8F010F5F1F4F84911BD097
:107F6000EA94F801C1F70894C11CD11CFA94CF0C13
:107F7000D11C0EC0853739F428D08EE10CD085E9AC
:107F80000AD08FE07ACF813511F488E018D01DD067
:107F900080E101D065CF982F8091C00085FFFCCF94
:107FA0009093C60008958091C00087FFFCCF809118
:107FB000C00084FD01C0A8958091C6000895E0E648
:107FC000F0E098E1908380830895EDDF803219F02E
:107FD00088E0F5DFFFCF84E1DECF1F93182FE3DFCA
:107FE0001150E9F7F2DF1F91089580E0E8DFEE27F6
:047FF000FF270994CA
:027FFE00040479
:0400000300007E007B
:00000001FF
